{
	"data": {
		"bytecode": {
			"linkReferences": {},
			"object": "608060405234801561000f575f80fd5b506107a08061001d5f395ff3fe608060405234801561000f575f80fd5b5060043610610029575f3560e01c8063032d6d7c1461002d575b5f80fd5b610047600480360381019061004291906103fa565b61005d565b604051610054919061049c565b60405180910390f35b5f60308451146100a2576040517f08c379a00000000000000000000000000000000000000000000000000000000081526004016100999061050f565b60405180910390fd5b60608251146100e6576040517f08c379a00000000000000000000000000000000000000000000000000000000081526004016100dd90610577565b60405180910390fd5b5f6002846040516020016100fa91906105b5565b604051602081830303815290604052604051610116919061063b565b602060405180830381855afa158015610131573d5f803e3d5ffd5b5050506040513d601f19601f820116820180604052508101906101549190610665565b90505f80606673ffffffffffffffffffffffffffffffffffffffff167f48b2f2a947105d01c86b15409a4c8312e3dd9bdf0e038bc299f222f30ee1fff98885886040518060600160405280602b8152602001610740602b91396040516024016101c094939291906106e7565b604051602081830303815290604052907bffffffffffffffffffffffffffffffffffffffffffffffffffffffff19166020820180517bffffffffffffffffffffffffffffffffffffffffffffffffffffffff838183161783525050505060405161022a919061063b565b5f60405180830381855afa9150503d805f8114610262576040519150601f19603f3d011682016040523d82523d5f602084013e610267565b606091505b5091509150600193505050509392505050565b5f604051905090565b5f80fd5b5f80fd5b5f80fd5b5f80fd5b5f601f19601f8301169050919050565b7f4e487b71000000000000000000000000000000000000000000000000000000005f52604160045260245ffd5b6102d982610293565b810181811067ffffffffffffffff821117156102f8576102f76102a3565b5b80604052505050565b5f61030a61027a565b905061031682826102d0565b919050565b5f67ffffffffffffffff821115610335576103346102a3565b5b61033e82610293565b9050602081019050919050565b828183375f83830152505050565b5f61036b6103668461031b565b610301565b9050828152602081018484840111156103875761038661028f565b5b61039284828561034b565b509392505050565b5f82601f8301126103ae576103ad61028b565b5b81356103be848260208601610359565b91505092915050565b5f819050919050565b6103d9816103c7565b81146103e3575f80fd5b50565b5f813590506103f4816103d0565b92915050565b5f805f6060848603121561041157610410610283565b5b5f84013567ffffffffffffffff81111561042e5761042d610287565b5b61043a8682870161039a565b935050602061044b868287016103e6565b925050604084013567ffffffffffffffff81111561046c5761046b610287565b5b6104788682870161039a565b9150509250925092565b5f8115159050919050565b61049681610482565b82525050565b5f6020820190506104af5f83018461048d565b92915050565b5f82825260208201905092915050565b7f424c5320706b206d7573742062652034382062797465730000000000000000005f82015250565b5f6104f96017836104b5565b9150610504826104c5565b602082019050919050565b5f6020820190508181035f830152610526816104ed565b9050919050565b7f424c53207369676e6174757265206d75737420626520393620627974657300005f82015250565b5f610561601e836104b5565b915061056c8261052d565b602082019050919050565b5f6020820190508181035f83015261058e81610555565b9050919050565b5f819050919050565b6105af6105aa826103c7565b610595565b82525050565b5f6105c0828461059e565b60208201915081905092915050565b5f81519050919050565b5f81905092915050565b5f5b838110156106005780820151818401526020810190506105e5565b5f8484015250505050565b5f610615826105cf565b61061f81856105d9565b935061062f8185602086016105e3565b80840191505092915050565b5f610646828461060b565b915081905092915050565b5f8151905061065f816103d0565b92915050565b5f6020828403121561067a57610679610283565b5b5f61068784828501610651565b91505092915050565b5f82825260208201905092915050565b5f6106aa826105cf565b6106b48185610690565b93506106c48185602086016105e3565b6106cd81610293565b840191505092915050565b6106e1816103c7565b82525050565b5f6080820190508181035f8301526106ff81876106a0565b905061070e60208301866106d8565b818103604083015261072081856106a0565b9050818103606083015261073481846106a0565b90509594505050505056fe424c535f5349475f424c53313233383147325f584d443a5348412d3235365f535357555f524f5f504f505fa2646970667358221220d0cd03fb5a8ee36a680fd3cd026af98e867781574ead0e47ab55483ebcd2e45964736f6c63430008140033",
			"opcodes": "PUSH1 0x80 PUSH1 0x40 MSTORE CALLVALUE DUP1 ISZERO PUSH2 0xF JUMPI PUSH0 DUP1 REVERT JUMPDEST POP PUSH2 0x7A0 DUP1 PUSH2 0x1D PUSH0 CODECOPY PUSH0 RETURN INVALID PUSH1 0x80 PUSH1 0x40 MSTORE CALLVALUE DUP1 ISZERO PUSH2 0xF JUMPI PUSH0 DUP1 REVERT JUMPDEST POP PUSH1 0x4 CALLDATASIZE LT PUSH2 0x29 JUMPI PUSH0 CALLDATALOAD PUSH1 0xE0 SHR DUP1 PUSH4 0x32D6D7C EQ PUSH2 0x2D JUMPI JUMPDEST PUSH0 DUP1 REVERT JUMPDEST PUSH2 0x47 PUSH1 0x4 DUP1 CALLDATASIZE SUB DUP2 ADD SWAP1 PUSH2 0x42 SWAP2 SWAP1 PUSH2 0x3FA JUMP JUMPDEST PUSH2 0x5D JUMP JUMPDEST PUSH1 0x40 MLOAD PUSH2 0x54 SWAP2 SWAP1 PUSH2 0x49C JUMP JUMPDEST PUSH1 0x40 MLOAD DUP1 SWAP2 SUB SWAP1 RETURN JUMPDEST PUSH0 PUSH1 0x30 DUP5 MLOAD EQ PUSH2 0xA2 JUMPI PUSH1 0x40 MLOAD PUSH32 0x8C379A000000000000000000000000000000000000000000000000000000000 DUP2 MSTORE PUSH1 0x4 ADD PUSH2 0x99 SWAP1 PUSH2 0x50F JUMP JUMPDEST PUSH1 0x40 MLOAD DUP1 SWAP2 SUB SWAP1 REVERT JUMPDEST PUSH1 0x60 DUP3 MLOAD EQ PUSH2 0xE6 JUMPI PUSH1 0x40 MLOAD PUSH32 0x8C379A000000000000000000000000000000000000000000000000000000000 DUP2 MSTORE PUSH1 0x4 ADD PUSH2 0xDD SWAP1 PUSH2 0x577 JUMP JUMPDEST PUSH1 0x40 MLOAD DUP1 SWAP2 SUB SWAP1 REVERT JUMPDEST PUSH0 PUSH1 0x2 DUP5 PUSH1 0x40 MLOAD PUSH1 0x20 ADD PUSH2 0xFA SWAP2 SWAP1 PUSH2 0x5B5 JUMP JUMPDEST PUSH1 0x40 MLOAD PUSH1 0x20 DUP2 DUP4 SUB SUB DUP2 MSTORE SWAP1 PUSH1 0x40 MSTORE PUSH1 0x40 MLOAD PUSH2 0x116 SWAP2 SWAP1 PUSH2 0x63B JUMP JUMPDEST PUSH1 0x20 PUSH1 0x40 MLOAD DUP1 DUP4 SUB DUP2 DUP6 GAS STATICCALL ISZERO DUP1 ISZERO PUSH2 0x131 JUMPI RETURNDATASIZE PUSH0 DUP1 RETURNDATACOPY RETURNDATASIZE PUSH0 REVERT JUMPDEST POP POP POP PUSH1 0x40 MLOAD RETURNDATASIZE PUSH1 0x1F NOT PUSH1 0x1F DUP3 ADD AND DUP3 ADD DUP1 PUSH1 0x40 MSTORE POP DUP2 ADD SWAP1 PUSH2 0x154 SWAP2 SWAP1 PUSH2 0x665 JUMP JUMPDEST SWAP1 POP PUSH0 DUP1 PUSH1 0x66 PUSH20 0xFFFFFFFFFFFFFFFFFFFFFFFFFFFFFFFFFFFFFFFF AND PUSH32 0x48B2F2A947105D01C86B15409A4C8312E3DD9BDF0E038BC299F222F30EE1FFF9 DUP9 DUP6 DUP9 PUSH1 0x40 MLOAD DUP1 PUSH1 0x60 ADD PUSH1 0x40 MSTORE DUP1 PUSH1 0x2B DUP2 MSTORE PUSH1 0x20 ADD PUSH2 0x740 PUSH1 0x2B SWAP2 CODECOPY PUSH1 0x40 MLOAD PUSH1 0x24 ADD PUSH2 0x1C0 SWAP5 SWAP4 SWAP3 SWAP2 SWAP1 PUSH2 0x6E7 JUMP JUMPDEST PUSH1 0x40 MLOAD PUSH1 0x20 DUP2 DUP4 SUB SUB DUP2 MSTORE SWAP1 PUSH1 0x40 MSTORE SWAP1 PUSH28 0xFFFFFFFFFFFFFFFFFFFFFFFFFFFFFFFFFFFFFFFFFFFFFFFFFFFFFFFF NOT AND PUSH1 0x20 DUP3 ADD DUP1 MLOAD PUSH28 0xFFFFFFFFFFFFFFFFFFFFFFFFFFFFFFFFFFFFFFFFFFFFFFFFFFFFFFFF DUP4 DUP2 DUP4 AND OR DUP4 MSTORE POP POP POP POP PUSH1 0x40 MLOAD PUSH2 0x22A SWAP2 SWAP1 PUSH2 0x63B JUMP JUMPDEST PUSH0 PUSH1 0x40 MLOAD DUP1 DUP4 SUB DUP2 DUP6 GAS STATICCALL SWAP2 POP POP RETURNDATASIZE DUP1 PUSH0 DUP2 EQ PUSH2 0x262 JUMPI PUSH1 0x40 MLOAD SWAP2 POP PUSH1 0x1F NOT PUSH1 0x3F RETURNDATASIZE ADD AND DUP3 ADD PUSH1 0x40 MSTORE RETURNDATASIZE DUP3 MSTORE RETURNDATASIZE PUSH0 PUSH1 0x20 DUP5 ADD RETURNDATACOPY PUSH2 0x267 JUMP JUMPDEST PUSH1 0x60 SWAP2 POP JUMPDEST POP SWAP2 POP SWAP2 POP PUSH1 0x1 SWAP4 POP POP POP POP SWAP4 SWAP3 POP POP POP JUMP JUMPDEST PUSH0 PUSH1 0x40 MLOAD SWAP1 POP SWAP1 JUMP JUMPDEST PUSH0 DUP1 REVERT JUMPDEST PUSH0 DUP1 REVERT JUMPDEST PUSH0 DUP1 REVERT JUMPDEST PUSH0 DUP1 REVERT JUMPDEST PUSH0 PUSH1 0x1F NOT PUSH1 0x1F DUP4 ADD AND SWAP1 POP SWAP2 SWAP1 POP JUMP JUMPDEST PUSH32 0x4E487B7100000000000000000000000000000000000000000000000000000000 PUSH0 MSTORE PUSH1 0x41 PUSH1 0x4 MSTORE PUSH1 0x24 PUSH0 REVERT JUMPDEST PUSH2 0x2D9 DUP3 PUSH2 0x293 JUMP JUMPDEST DUP2 ADD DUP2 DUP2 LT PUSH8 0xFFFFFFFFFFFFFFFF DUP3 GT OR ISZERO PUSH2 0x2F8 JUMPI PUSH2 0x2F7 PUSH2 0x2A3 JUMP JUMPDEST JUMPDEST DUP1 PUSH1 0x40 MSTORE POP POP POP JUMP JUMPDEST PUSH0 PUSH2 0x30A PUSH2 0x27A JUMP JUMPDEST SWAP1 POP PUSH2 0x316 DUP3 DUP3 PUSH2 0x2D0 JUMP JUMPDEST SWAP2 SWAP1 POP JUMP JUMPDEST PUSH0 PUSH8 0xFFFFFFFFFFFFFFFF DUP3 GT ISZERO PUSH2 0x335 JUMPI PUSH2 0x334 PUSH2 0x2A3 JUMP JUMPDEST JUMPDEST PUSH2 0x33E DUP3 PUSH2 0x293 JUMP JUMPDEST SWAP1 POP PUSH1 0x20 DUP2 ADD SWAP1 POP SWAP2 SWAP1 POP JUMP JUMPDEST DUP3 DUP2 DUP4 CALLDATACOPY PUSH0 DUP4 DUP4 ADD MSTORE POP POP POP JUMP JUMPDEST PUSH0 PUSH2 0x36B PUSH2 0x366 DUP5 PUSH2 0x31B JUMP JUMPDEST PUSH2 0x301 JUMP JUMPDEST SWAP1 POP DUP3 DUP2 MSTORE PUSH1 0x20 DUP2 ADD DUP5 DUP5 DUP5 ADD GT ISZERO PUSH2 0x387 JUMPI PUSH2 0x386 PUSH2 0x28F JUMP JUMPDEST JUMPDEST PUSH2 0x392 DUP5 DUP3 DUP6 PUSH2 0x34B JUMP JUMPDEST POP SWAP4 SWAP3 POP POP POP JUMP JUMPDEST PUSH0 DUP3 PUSH1 0x1F DUP4 ADD SLT PUSH2 0x3AE JUMPI PUSH2 0x3AD PUSH2 0x28B JUMP JUMPDEST JUMPDEST DUP2 CALLDATALOAD PUSH2 0x3BE DUP5 DUP3 PUSH1 0x20 DUP7 ADD PUSH2 0x359 JUMP JUMPDEST SWAP2 POP POP SWAP3 SWAP2 POP POP JUMP JUMPDEST PUSH0 DUP2 SWAP1 POP SWAP2 SWAP1 POP JUMP JUMPDEST PUSH2 0x3D9 DUP2 PUSH2 0x3C7 JUMP JUMPDEST DUP2 EQ PUSH2 0x3E3 JUMPI PUSH0 DUP1 REVERT JUMPDEST POP JUMP JUMPDEST PUSH0 DUP2 CALLDATALOAD SWAP1 POP PUSH2 0x3F4 DUP2 PUSH2 0x3D0 JUMP JUMPDEST SWAP3 SWAP2 POP POP JUMP JUMPDEST PUSH0 DUP1 PUSH0 PUSH1 0x60 DUP5 DUP7 SUB SLT ISZERO PUSH2 0x411 JUMPI PUSH2 0x410 PUSH2 0x283 JUMP JUMPDEST JUMPDEST PUSH0 DUP5 ADD CALLDATALOAD PUSH8 0xFFFFFFFFFFFFFFFF DUP2 GT ISZERO PUSH2 0x42E JUMPI PUSH2 0x42D PUSH2 0x287 JUMP JUMPDEST JUMPDEST PUSH2 0x43A DUP7 DUP3 DUP8 ADD PUSH2 0x39A JUMP JUMPDEST SWAP4 POP POP PUSH1 0x20 PUSH2 0x44B DUP7 DUP3 DUP8 ADD PUSH2 0x3E6 JUMP JUMPDEST SWAP3 POP POP PUSH1 0x40 DUP5 ADD CALLDATALOAD PUSH8 0xFFFFFFFFFFFFFFFF DUP2 GT ISZERO PUSH2 0x46C JUMPI PUSH2 0x46B PUSH2 0x287 JUMP JUMPDEST JUMPDEST PUSH2 0x478 DUP7 DUP3 DUP8 ADD PUSH2 0x39A JUMP JUMPDEST SWAP2 POP POP SWAP3 POP SWAP3 POP SWAP3 JUMP JUMPDEST PUSH0 DUP2 ISZERO ISZERO SWAP1 POP SWAP2 SWAP1 POP JUMP JUMPDEST PUSH2 0x496 DUP2 PUSH2 0x482 JUMP JUMPDEST DUP3 MSTORE POP POP JUMP JUMPDEST PUSH0 PUSH1 0x20 DUP3 ADD SWAP1 POP PUSH2 0x4AF PUSH0 DUP4 ADD DUP5 PUSH2 0x48D JUMP JUMPDEST SWAP3 SWAP2 POP POP JUMP JUMPDEST PUSH0 DUP3 DUP3 MSTORE PUSH1 0x20 DUP3 ADD SWAP1 POP SWAP3 SWAP2 POP POP JUMP JUMPDEST PUSH32 0x424C5320706B206D757374206265203438206279746573000000000000000000 PUSH0 DUP3 ADD MSTORE POP JUMP JUMPDEST PUSH0 PUSH2 0x4F9 PUSH1 0x17 DUP4 PUSH2 0x4B5 JUMP JUMPDEST SWAP2 POP PUSH2 0x504 DUP3 PUSH2 0x4C5 JUMP JUMPDEST PUSH1 0x20 DUP3 ADD SWAP1 POP SWAP2 SWAP1 POP JUMP JUMPDEST PUSH0 PUSH1 0x20 DUP3 ADD SWAP1 POP DUP2 DUP2 SUB PUSH0 DUP4 ADD MSTORE PUSH2 0x526 DUP2 PUSH2 0x4ED JUMP JUMPDEST SWAP1 POP SWAP2 SWAP1 POP JUMP JUMPDEST PUSH32 0x424C53207369676E6174757265206D7573742062652039362062797465730000 PUSH0 DUP3 ADD MSTORE POP JUMP JUMPDEST PUSH0 PUSH2 0x561 PUSH1 0x1E DUP4 PUSH2 0x4B5 JUMP JUMPDEST SWAP2 POP PUSH2 0x56C DUP3 PUSH2 0x52D JUMP JUMPDEST PUSH1 0x20 DUP3 ADD SWAP1 POP SWAP2 SWAP1 POP JUMP JUMPDEST PUSH0 PUSH1 0x20 DUP3 ADD SWAP1 POP DUP2 DUP2 SUB PUSH0 DUP4 ADD MSTORE PUSH2 0x58E DUP2 PUSH2 0x555 JUMP JUMPDEST SWAP1 POP SWAP2 SWAP1 POP JUMP JUMPDEST PUSH0 DUP2 SWAP1 POP SWAP2 SWAP1 POP JUMP JUMPDEST PUSH2 0x5AF PUSH2 0x5AA DUP3 PUSH2 0x3C7 JUMP JUMPDEST PUSH2 0x595 JUMP JUMPDEST DUP3 MSTORE POP POP JUMP JUMPDEST PUSH0 PUSH2 0x5C0 DUP3 DUP5 PUSH2 0x59E JUMP JUMPDEST PUSH1 0x20 DUP3 ADD SWAP2 POP DUP2 SWAP1 POP SWAP3 SWAP2 POP POP JUMP JUMPDEST PUSH0 DUP2 MLOAD SWAP1 POP SWAP2 SWAP1 POP JUMP JUMPDEST PUSH0 DUP2 SWAP1 POP SWAP3 SWAP2 POP POP JUMP JUMPDEST PUSH0 JUMPDEST DUP4 DUP2 LT ISZERO PUSH2 0x600 JUMPI DUP1 DUP3 ADD MLOAD DUP2 DUP5 ADD MSTORE PUSH1 0x20 DUP2 ADD SWAP1 POP PUSH2 0x5E5 JUMP JUMPDEST PUSH0 DUP5 DUP5 ADD MSTORE POP POP POP POP JUMP JUMPDEST PUSH0 PUSH2 0x615 DUP3 PUSH2 0x5CF JUMP JUMPDEST PUSH2 0x61F DUP2 DUP6 PUSH2 0x5D9 JUMP JUMPDEST SWAP4 POP PUSH2 0x62F DUP2 DUP6 PUSH1 0x20 DUP7 ADD PUSH2 0x5E3 JUMP JUMPDEST DUP1 DUP5 ADD SWAP2 POP POP SWAP3 SWAP2 POP POP JUMP JUMPDEST PUSH0 PUSH2 0x646 DUP3 DUP5 PUSH2 0x60B JUMP JUMPDEST SWAP2 POP DUP2 SWAP1 POP SWAP3 SWAP2 POP POP JUMP JUMPDEST PUSH0 DUP2 MLOAD SWAP1 POP PUSH2 0x65F DUP2 PUSH2 0x3D0 JUMP JUMPDEST SWAP3 SWAP2 POP POP JUMP JUMPDEST PUSH0 PUSH1 0x20 DUP3 DUP5 SUB SLT ISZERO PUSH2 0x67A JUMPI PUSH2 0x679 PUSH2 0x283 JUMP JUMPDEST JUMPDEST PUSH0 PUSH2 0x687 DUP5 DUP3 DUP6 ADD PUSH2 0x651 JUMP JUMPDEST SWAP2 POP POP SWAP3 SWAP2 POP POP JUMP JUMPDEST PUSH0 DUP3 DUP3 MSTORE PUSH1 0x20 DUP3 ADD SWAP1 POP SWAP3 SWAP2 POP POP JUMP JUMPDEST PUSH0 PUSH2 0x6AA DUP3 PUSH2 0x5CF JUMP JUMPDEST PUSH2 0x6B4 DUP2 DUP6 PUSH2 0x690 JUMP JUMPDEST SWAP4 POP PUSH2 0x6C4 DUP2 DUP6 PUSH1 0x20 DUP7 ADD PUSH2 0x5E3 JUMP JUMPDEST PUSH2 0x6CD DUP2 PUSH2 0x293 JUMP JUMPDEST DUP5 ADD SWAP2 POP POP SWAP3 SWAP2 POP POP JUMP JUMPDEST PUSH2 0x6E1 DUP2 PUSH2 0x3C7 JUMP JUMPDEST DUP3 MSTORE POP POP JUMP JUMPDEST PUSH0 PUSH1 0x80 DUP3 ADD SWAP1 POP DUP2 DUP2 SUB PUSH0 DUP4 ADD MSTORE PUSH2 0x6FF DUP2 DUP8 PUSH2 0x6A0 JUMP JUMPDEST SWAP1 POP PUSH2 0x70E PUSH1 0x20 DUP4 ADD DUP7 PUSH2 0x6D8 JUMP JUMPDEST DUP2 DUP2 SUB PUSH1 0x40 DUP4 ADD MSTORE PUSH2 0x720 DUP2 DUP6 PUSH2 0x6A0 JUMP JUMPDEST SWAP1 POP DUP2 DUP2 SUB PUSH1 0x60 DUP4 ADD MSTORE PUSH2 0x734 DUP2 DUP5 PUSH2 0x6A0 JUMP JUMPDEST SWAP1 POP SWAP6 SWAP5 POP POP POP POP POP JUMP INVALID TIMESTAMP 0x4C MSTORE8 PUSH0 MSTORE8 0x49 SELFBALANCE PUSH0 TIMESTAMP 0x4C MSTORE8 BALANCE ORIGIN CALLER CODESIZE BALANCE SELFBALANCE ORIGIN PUSH0 PC 0x4D PREVRANDAO GASPRICE MSTORE8 BASEFEE COINBASE 0x2D ORIGIN CALLDATALOAD CALLDATASIZE PUSH0 MSTORE8 MSTORE8 JUMPI SSTORE PUSH0 MSTORE 0x4F PUSH0 POP 0x4F POP PUSH0 LOG2 PUSH5 0x6970667358 0x22 SLT KECCAK256 0xD0 0xCD SUB 0xFB GAS DUP15 0xE3 PUSH11 0x680FD3CD026AF98E867781 JUMPI 0x4E 0xAD 0xE SELFBALANCE 0xAB SSTORE BASEFEE RETURNDATACOPY 0xBC 0xD2 0xE4 MSIZE PUSH5 0x736F6C6343 STOP ADDMOD EQ STOP CALLER "
		},
		"gasEstimates": {
			"creation": {
				"codeDepositCost": "390400",
				"executionCost": "422",
				"totalCost": "390822"
			},
			"external": {
				"verifyBLSSignature(bytes,bytes32,bytes)": "infinite"
			}
		},
		"methodIdentifiers": {
			"verifyBLSSignature(bytes,bytes32,bytes)": "032d6d7c"
		}
	},
	"abi": [
		{
			"inputs": [
				{
					"internalType": "bytes",
					"name": "pk",
					"type": "bytes"
				},
				{
					"internalType": "bytes32",
					"name": "message",
					"type": "bytes32"
				},
				{
					"internalType": "bytes",
					"name": "signature",
					"type": "bytes"
				}
			],
			"name": "verifyBLSSignature",
			"outputs": [
				{
					"internalType": "bool",
					"name": "",
					"type": "bool"
				}
			],
			"stateMutability": "view",
			"type": "function"
		}
	]
}