{
	"data": {
		"bytecode": {
			"linkReferences": {},
			"object": "60a060405234801562000010575f80fd5b50604051620062b9380380620062b9833981810160405281019062000036919062000381565b60015f819055505f821162000082576040517f08c379a0000000000000000000000000000000000000000000000000000000008152600401620000799062000424565b60405180910390fd5b5f73ffffffffffffffffffffffffffffffffffffffff168173ffffffffffffffffffffffffffffffffffffffff1603620000f3576040517f08c379a0000000000000000000000000000000000000000000000000000000008152600401620000ea9062000492565b60405180910390fd5b816002819055503073ffffffffffffffffffffffffffffffffffffffff1660808173ffffffffffffffffffffffffffffffffffffffff1681525050620001607fc1b6b25172765141d53bdec489e447c8b55159182799c48f41f9f454fbb17016826200017e60201b60201c565b50620001755f801b336200017e60201b60201c565b505050620004b2565b5f6200019183836200027960201b60201c565b6200026f576001805f8581526020019081526020015f205f015f8473ffffffffffffffffffffffffffffffffffffffff1673ffffffffffffffffffffffffffffffffffffffff1681526020019081526020015f205f6101000a81548160ff0219169083151502179055506200020b620002dd60201b60201c565b73ffffffffffffffffffffffffffffffffffffffff168273ffffffffffffffffffffffffffffffffffffffff16847f2f8788117e7eff1d82e926ec794901d17c78024a50270940304540a733656f0d60405160405180910390a46001905062000273565b5f90505b92915050565b5f60015f8481526020019081526020015f205f015f8373ffffffffffffffffffffffffffffffffffffffff1673ffffffffffffffffffffffffffffffffffffffff1681526020019081526020015f205f9054906101000a900460ff16905092915050565b5f33905090565b5f80fd5b5f819050919050565b620002fc81620002e8565b811462000307575f80fd5b50565b5f815190506200031a81620002f1565b92915050565b5f73ffffffffffffffffffffffffffffffffffffffff82169050919050565b5f6200034b8262000320565b9050919050565b6200035d816200033f565b811462000368575f80fd5b50565b5f815190506200037b8162000352565b92915050565b5f80604083850312156200039a5762000399620002e4565b5b5f620003a9858286016200030a565b9250506020620003bc858286016200036b565b9150509250929050565b5f82825260208201905092915050565b7f42617365207374616b652063616e6e6f74206265207a65726f000000000000005f82015250565b5f6200040c601983620003c6565b91506200041982620003d6565b602082019050919050565b5f6020820190508181035f8301526200043d81620003fe565b9050919050565b7f496e76616c69642073656c656374696f6e20636f6e74726163740000000000005f82015250565b5f6200047a601a83620003c6565b9150620004878262000444565b602082019050919050565b5f6020820190508181035f830152620004ab816200046c565b9050919050565b608051615de7620004d25f395f81816119e701526126780152615de75ff3fe6080604052600436106101db575f3560e01c8063a217fddf11610101578063e8497e7211610094578063f6b4dfb411610063578063f6b4dfb41461077b578063f79d0731146107a5578063fa357d34146107cf578063fa620e5c146107f75761028a565b8063e8497e72146106c7578063e88ab95c146106ef578063f2ebe21214610717578063f33057e8146107535761028a565b8063cb851c1e116100d0578063cb851c1e1461060f578063d2f01a9b14610639578063d547741f14610663578063d711e9061461068b5761028a565b8063a217fddf14610575578063bed9d8611461059f578063c0a4f1fb146105b5578063c10c4add146105df5761028a565b806352b3bc04116101795780638db90738116101485780638db90738146104a457806391d14854146104e757806393fa8cdd146105235780639790874c1461055f5761028a565b806352b3bc04146103c657806352fa871e146104025780636e9e9d461461043e5780637ab8b36b1461047a5761028a565b806327f200a9116101b557806327f200a9146103425780632f2ff15d1461034c57806336568abe146103745780634c0d97811461039c5761028a565b806301ffc9a71461028e578063032d6d7c146102ca578063248a9ca3146103065761028a565b3661028a575f3373ffffffffffffffffffffffffffffffffffffffff1634604051610205906137cf565b5f6040518083038185875af1925050503d805f811461023f576040519150601f19603f3d011682016040523d82523d5f602084013e610244565b606091505b5050905080610288576040517f08c379a000000000000000000000000000000000000000000000000000000000815260040161027f90613863565b60405180910390fd5b005b5f80fd5b348015610299575f80fd5b506102b460048036038101906102af91906138e7565b610833565b6040516102c1919061392c565b60405180910390f35b3480156102d5575f80fd5b506102f060048036038101906102eb9190613ab4565b6108ac565b6040516102fd919061392c565b60405180910390f35b348015610311575f80fd5b5061032c60048036038101906103279190613b3c565b610ac9565b6040516103399190613b76565b60405180910390f35b61034a610ae6565b005b348015610357575f80fd5b50610372600480360381019061036d9190613be9565b610d6b565b005b34801561037f575f80fd5b5061039a60048036038101906103959190613be9565b610d8d565b005b3480156103a7575f80fd5b506103b0610e08565b6040516103bd9190613c91565b60405180910390f35b3480156103d1575f80fd5b506103ec60048036038101906103e79190613d4f565b610e41565b6040516103f99190613dae565b60405180910390f35b34801561040d575f80fd5b5061042860048036038101906104239190613df1565b610e6e565b6040516104359190613c91565b60405180910390f35b348015610449575f80fd5b50610464600480360381019061045f9190613d4f565b610f1f565b6040516104719190613dae565b60405180910390f35b348015610485575f80fd5b5061048e610f4c565b60405161049b9190613b76565b60405180910390f35b3480156104af575f80fd5b506104ca60048036038101906104c59190613d4f565b610f70565b6040516104de989796959493929190613ef4565b60405180910390f35b3480156104f2575f80fd5b5061050d60048036038101906105089190613be9565b6110e4565b60405161051a919061392c565b60405180910390f35b34801561052e575f80fd5b5061054960048036038101906105449190613d4f565b611148565b6040516105569190613dae565b60405180910390f35b34801561056a575f80fd5b50610573611175565b005b348015610580575f80fd5b5061058961133e565b6040516105969190613b76565b60405180910390f35b3480156105aa575f80fd5b506105b3611344565b005b3480156105c0575f80fd5b506105c96115d2565b6040516105d69190613dae565b60405180910390f35b6105f960048036038101906105f49190614030565b6115d8565b6040516106069190613c91565b60405180910390f35b34801561061a575f80fd5b50610623611d92565b6040516106309190613dae565b60405180910390f35b348015610644575f80fd5b5061064d611d97565b60405161065a9190613dae565b60405180910390f35b34801561066e575f80fd5b5061068960048036038101906106849190613be9565b611d9e565b005b348015610696575f80fd5b506106b160048036038101906106ac9190614107565b611dc0565b6040516106be9190613c91565b60405180910390f35b3480156106d2575f80fd5b506106ed60048036038101906106e89190614132565b611e66565b005b3480156106fa575f80fd5b5061071560048036038101906107109190614107565b6121af565b005b348015610722575f80fd5b5061073d600480360381019061073891906141b0565b61224a565b60405161074a919061392c565b60405180910390f35b34801561075e575f80fd5b5061077960048036038101906107749190614253565b6125ce565b005b348015610786575f80fd5b5061078f612676565b60405161079c919061428d565b60405180910390f35b3480156107b0575f80fd5b506107b961269a565b6040516107c69190613dae565b60405180910390f35b3480156107da575f80fd5b506107f560048036038101906107f091906142a6565b6126a1565b005b348015610802575f80fd5b5061081d60048036038101906108189190614324565b612abb565b60405161082a9190613c91565b60405180910390f35b5f7f7965db0b000000000000000000000000000000000000000000000000000000007bffffffffffffffffffffffffffffffffffffffffffffffffffffffff1916827bffffffffffffffffffffffffffffffffffffffffffffffffffffffff191614806108a557506108a482612b6e565b5b9050919050565b5f60308451146108f1576040517f08c379a00000000000000000000000000000000000000000000000000000000081526004016108e8906143b5565b60405180910390fd5b6060825114610935576040517f08c379a000000000000000000000000000000000000000000000000000000000815260040161092c9061441d565b60405180910390fd5b5f600284604051602001610949919061445b565b60405160208183030381529060405260405161096591906144a5565b602060405180830381855afa158015610980573d5f803e3d5ffd5b5050506040513d601f19601f820116820180604052508101906109a391906144cf565b90505f80606673ffffffffffffffffffffffffffffffffffffffff167f48b2f2a947105d01c86b15409a4c8312e3dd9bdf0e038bc299f222f30ee1fff98885886040518060600160405280602b8152602001615d87602b9139604051602401610a0f94939291906144fa565b604051602081830303815290604052907bffffffffffffffffffffffffffffffffffffffffffffffffffffffff19166020820180517bffffffffffffffffffffffffffffffffffffffffffffffffffffffff8381831617835250505050604051610a7991906144a5565b5f60405180830381855afa9150503d805f8114610ab1576040519150601f19603f3d011682016040523d82523d5f602084013e610ab6565b606091505b5091509150600193505050509392505050565b5f60015f8381526020019081526020015f20600101549050919050565b610aee612bd7565b5f610af7612c24565b90505f600382604051610b0a919061458c565b9081526020016040518091039020905060026004811115610b2e57610b2d613e81565b5b816005015f9054906101000a900460ff166004811115610b5157610b50613e81565b5b14610b91576040517f08c379a0000000000000000000000000000000000000000000000000000000008152600401610b88906145ec565b60405180910390fd5b6003816006015410610bd8576040517f08c379a0000000000000000000000000000000000000000000000000000000008152600401610bcf9061467a565b60405180910390fd5b600782604051610be8919061458c565b908152602001604051809103902054421015610c39576040517f08c379a0000000000000000000000000000000000000000000000000000000008152600401610c3090614708565b60405180910390fd5b600254341015610c7e576040517f08c379a0000000000000000000000000000000000000000000000000000000008152600401610c7590614770565b60405180910390fd5b6001816005015f6101000a81548160ff02191690836004811115610ca557610ca4613e81565b5b02179055503481600201819055505f6009805490509050600983908060018154018082558091505060019003905f5260205f20015f909190919091509081610ced9190614988565b5080600684604051610cff919061458c565b90815260200160405180910390208190555082604051610d1f919061458c565b60405180910390207feb438e5bc628b66a384ff92df1b383fadf555ded62c1e41c64bcf5916ee8a18842604051610d569190613dae565b60405180910390a2505050610d69612d95565b565b610d7482610ac9565b610d7d81612d9e565b610d878383612db2565b50505050565b610d95612e9b565b73ffffffffffffffffffffffffffffffffffffffff168173ffffffffffffffffffffffffffffffffffffffff1614610df9576040517f6697b23200000000000000000000000000000000000000000000000000000000815260040160405180910390fd5b610e038282612ea2565b505050565b6040518060400160405280600981526020017f6469643a657468723a000000000000000000000000000000000000000000000081525081565b6006818051602081018201805184825260208301602085012081835280955050505050505f915090505481565b6005602052815f5260405f208181548110610e87575f80fd5b905f5260205f20015f91509150508054610ea0906147bb565b80601f0160208091040260200160405190810160405280929190818152602001828054610ecc906147bb565b8015610f175780601f10610eee57610100808354040283529160200191610f17565b820191905f5260205f20905b815481529060010190602001808311610efa57829003601f168201915b505050505081565b6007818051602081018201805184825260208301602085012081835280955050505050505f915090505481565b7fc1b6b25172765141d53bdec489e447c8b55159182799c48f41f9f454fbb1701681565b6003818051602081018201805184825260208301602085012081835280955050505050505f91509050805f018054610fa7906147bb565b80601f0160208091040260200160405190810160405280929190818152602001828054610fd3906147bb565b801561101e5780601f10610ff55761010080835404028352916020019161101e565b820191905f5260205f20905b81548152906001019060200180831161100157829003601f168201915b505050505090806001015490806002015490806003015490806004015490806005015f9054906101000a900460ff1690806006015490806007018054611063906147bb565b80601f016020809104026020016040519081016040528092919081815260200182805461108f906147bb565b80156110da5780601f106110b1576101008083540402835291602001916110da565b820191905f5260205f20905b8154815290600101906020018083116110bd57829003601f168201915b5050505050905088565b5f60015f8481526020019081526020015f205f015f8373ffffffffffffffffffffffffffffffffffffffff1673ffffffffffffffffffffffffffffffffffffffff1681526020019081526020015f205f9054906101000a900460ff16905092915050565b6008818051602081018201805184825260208301602085012081835280955050505050505f915090505481565b61117d612bd7565b5f611186612c24565b90505f600382604051611199919061458c565b90815260200160405180910390209050600160048111156111bd576111bc613e81565b5b816005015f9054906101000a900460ff1660048111156111e0576111df613e81565b5b14806112205750600260048111156111fb576111fa613e81565b5b816005015f9054906101000a900460ff16600481111561121e5761121d613e81565b5b145b61125f576040517f08c379a000000000000000000000000000000000000000000000000000000000815260040161125690614ac7565b60405180910390fd5b6003816005015f6101000a81548160ff0219169083600481111561128657611285613e81565b5b021790555062093a804261129a9190614b12565b6008836040516112aa919061458c565b9081526020016040518091039020819055506112c582612f8c565b816040516112d3919061458c565b60405180910390207fd005efba581bf54897413dc0b34ded7ecdd656a834779273f92df07e086c231160088460405161130c919061458c565b9081526020016040518091039020544260405161132a929190614b45565b60405180910390a2505061133c612d95565b565b5f801b81565b61134c612bd7565b5f611355612c24565b90505f600382604051611368919061458c565b908152602001604051809103902090505f600883604051611389919061458c565b9081526020016040518091039020549050600360048111156113ae576113ad613e81565b5b826005015f9054906101000a900460ff1660048111156113d1576113d0613e81565b5b14611411576040517f08c379a000000000000000000000000000000000000000000000000000000000815260040161140890614bb6565b60405180910390fd5b80421015611454576040517f08c379a000000000000000000000000000000000000000000000000000000000815260040161144b90614c44565b60405180910390fd5b5f82600201541161149a576040517f08c379a000000000000000000000000000000000000000000000000000000000815260040161149190614cac565b60405180910390fd5b5f826002015490505f83600201819055506008846040516114bb919061458c565b90815260200160405180910390205f90555f3373ffffffffffffffffffffffffffffffffffffffff16826040516114f1906137cf565b5f6040518083038185875af1925050503d805f811461152b576040519150601f19603f3d011682016040523d82523d5f602084013e611530565b606091505b5050905080611574576040517f08c379a000000000000000000000000000000000000000000000000000000000815260040161156b90614d14565b60405180910390fd5b84604051611582919061458c565b60405180910390207fd0f857b3b0cfc3fd40a2410848afef3121302fb24875935e554fed8fb8128c9583426040516115bb929190614b45565b60405180910390a250505050506115d0612d95565b565b60025481565b60606115e2612bd7565b60308989905014611628576040517f08c379a000000000000000000000000000000000000000000000000000000000815260040161161f90614da2565b60405180910390fd5b6060858590501461166e576040517f08c379a000000000000000000000000000000000000000000000000000000000815260040161166590614e30565b60405180910390fd5b61172c60048a8a604051611683929190614e72565b9081526020016040518091039020805461169c906147bb565b80601f01602080910402602001604051908101604052809291908181526020018280546116c8906147bb565b80156117135780601f106116ea57610100808354040283529160200191611713565b820191905f5260205f20905b8154815290600101906020018083116116f657829003601f168201915b505050505060405180602001604052805f815250613112565b61176b576040517f08c379a000000000000000000000000000000000000000000000000000000000815260040161176290614ed4565b60405180910390fd5b5f60028a8a8960405160200161178393929190614ef2565b60405160208183030381529060405260405161179f91906144a5565b602060405180830381855afa1580156117ba573d5f803e3d5ffd5b5050506040513d601f19601f820116820180604052508101906117dd91906144cf565b9050808814611821576040517f08c379a000000000000000000000000000000000000000000000000000000000815260040161181890614f8b565b60405180910390fd5b5f60028b8b8b8b60405160200161183b9493929190614fa9565b60405160208183030381529060405260405161185791906144a5565b602060405180830381855afa158015611872573d5f803e3d5ffd5b5050506040513d601f19601f8201168201806040525081019061189591906144cf565b90506119288b8b8080601f0160208091040260200160405190810160405280939291908181526020018383808284375f81840152601f19601f820116905080830192505050505050508289898080601f0160208091040260200160405190810160405280939291908181526020018383808284375f81840152601f19601f820116905080830192505050505050506108ac565b611967576040517f08c379a000000000000000000000000000000000000000000000000000000000815260040161195e9061502d565b60405180910390fd5b6002543410156119ac576040517f08c379a00000000000000000000000000000000000000000000000000000000081526004016119a3906150bb565b60405180910390fd5b6040518060400160405280600981526020017f6469643a657468723a0000000000000000000000000000000000000000000000815250611a0b7f000000000000000000000000000000000000000000000000000000000000000061312c565b611a148b61342d565b604051602001611a2693929190615123565b60405160208183030381529060405292505f600384604051611a48919061458c565b908152602001604051809103902050602060ff1614611a9c576040517f08c379a0000000000000000000000000000000000000000000000000000000008152600401611a93906151a8565b60405180910390fd5b6040518061010001604052808c8c8080601f0160208091040260200160405190810160405280939291908181526020018383808284375f81840152601f19601f8201169050808301925050505050505081526020018a815260200134815260200142815260200142815260200160016004811115611b1d57611b1c613e81565b5b81526020015f815260200186868080601f0160208091040260200160405190810160405280939291908181526020018383808284375f81840152601f19601f82011690508083019250505050505050815250600384604051611b7f919061458c565b90815260200160405180910390205f820151815f019081611ba0919061521e565b506020820151816001015560408201518160020155606082015181600301556080820151816004015560a0820151816005015f6101000a81548160ff02191690836004811115611bf357611bf2613e81565b5b021790555060c0820151816006015560e0820151816007019081611c179190614988565b509050508260048c8c604051611c2e929190614e72565b90815260200160405180910390209081611c489190614988565b5060055f3373ffffffffffffffffffffffffffffffffffffffff1673ffffffffffffffffffffffffffffffffffffffff1681526020019081526020015f2083908060018154018082558091505060019003905f5260205f20015f909190919091509081611cb59190614988565b505f6009805490509050600984908060018154018082558091505060019003905f5260205f20015f909190919091509081611cf09190614988565b5080600685604051611d02919061458c565b9081526020016040518091039020819055508b8b604051611d24929190614e72565b604051809103902084604051611d3a919061458c565b60405180910390207fad530fe6c369284575ed65fbb752871ce30bb2c70308406b82fcd493dc289e543442604051611d73929190614b45565b60405180910390a3505050611d86612d95565b98975050505050505050565b600381565b62093a8081565b611da782610ac9565b611db081612d9e565b611dba8383612ea2565b50505050565b60098181548110611dcf575f80fd5b905f5260205f20015f915090508054611de7906147bb565b80601f0160208091040260200160405190810160405280929190818152602001828054611e13906147bb565b8015611e5e5780601f10611e3557610100808354040283529160200191611e5e565b820191905f5260205f20905b815481529060010190602001808311611e4157829003601f168201915b505050505081565b7fc1b6b25172765141d53bdec489e447c8b55159182799c48f41f9f454fbb17016611e9081612d9e565b611e98612bd7565b5f60038686604051611eab929190615311565b908152602001604051809103902090505f602060ff1611611f01576040517f08c379a0000000000000000000000000000000000000000000000000000000008152600401611ef890615373565b60405180910390fd5b600480811115611f1457611f13613e81565b5b816005015f9054906101000a900460ff166004811115611f3757611f36613e81565b5b03611f77576040517f08c379a0000000000000000000000000000000000000000000000000000000008152600401611f6e906153db565b60405180910390fd5b6001816006015f828254611f8b9190614b12565b925050819055505f8160060154905060038110611ff6576004826005015f6101000a81548160ff02191690836004811115611fc957611fc8613e81565b5b021790555060078787604051611fe0929190615311565b90815260200160405180910390205f9055612056565b6002826005015f6101000a81548160ff0219169083600481111561201d5761201c613e81565b5b02179055506203f480426120319190614b12565b60078888604051612043929190615311565b9081526020016040518091039020819055505b5f826002015490505f83600201819055503373ffffffffffffffffffffffffffffffffffffffff166108fc8290811502906040515f60405180830381858888f193505050501580156120aa573d5f803e3d5ffd5b506120f788888080601f0160208091040260200160405190810160405280939291908181526020018383808284375f81840152601f19601f82011690508083019250505050505050612f8c565b8787604051612107929190615311565b60405180910390207fcd8f47fa8504c2e6d007b21efcf790e2c60e1c6881b32abbbf228b45fd19f9f2878785426040516121449493929190615425565b60405180910390a2878760405161215c929190615311565b60405180910390207fb3e4532e494a043696bdd3d4b670ea16fb3412f7c13937f05ed0ba0a5d71e7988242604051612195929190614b45565b60405180910390a25050506121a8612d95565b5050505050565b5f801b6121bb81612d9e565b5f82116121fd576040517f08c379a00000000000000000000000000000000000000000000000000000000081526004016121f4906154ad565b60405180910390fd5b5f6002549050826002819055507f5dce7ef1d777d2f057b53be7d924c94cc81547a0aac5aebb1bcd4b1955f493c281844260405161223d939291906154cb565b60405180910390a1505050565b5f806003888860405161225e929190615311565b908152602001604051809103902090505f602060ff16116122b4576040517f08c379a00000000000000000000000000000000000000000000000000000000081526004016122ab90615373565b60405180910390fd5b600160048111156122c8576122c7613e81565b5b816005015f9054906101000a900460ff1660048111156122eb576122ea613e81565b5b1461232b576040517f08c379a000000000000000000000000000000000000000000000000000000000815260040161232290615570565b60405180910390fd5b5f429050604b8161233c919061558e565b84101580156123575750604b816123539190614b12565b8411155b612396576040517f08c379a000000000000000000000000000000000000000000000000000000000815260040161238d90615631565b60405180910390fd5b5f60028a8a88886040516020016123b0949392919061566f565b6040516020818303038152906040526040516123cc91906144a5565b602060405180830381855afa1580156123e7573d5f803e3d5ffd5b5050506040513d601f19601f8201168201806040525081019061240a91906144cf565b90506124e3835f01805461241d906147bb565b80601f0160208091040260200160405190810160405280929190818152602001828054612449906147bb565b80156124945780601f1061246b57610100808354040283529160200191612494565b820191905f5260205f20905b81548152906001019060200180831161247757829003601f168201915b5050505050828a8a8080601f0160208091040260200160405190810160405280939291908181526020018383808284375f81840152601f19601f820116905080830192505050505050506108ac565b612522576040517f08c379a0000000000000000000000000000000000000000000000000000000008152600401612519906156f3565b60405180910390fd5b6002548360020154101561256b576040517f08c379a00000000000000000000000000000000000000000000000000000000081526004016125629061575b565b60405180910390fd5b898960405161257b929190615311565b60405180910390207fa3d75da3b30eacea2316361580f28edc7a78686829c94690d100616a71058ce86001426040516125b5929190615779565b60405180910390a2600193505050509695505050505050565b5f801b6125da81612d9e565b5f73ffffffffffffffffffffffffffffffffffffffff168273ffffffffffffffffffffffffffffffffffffffff1603612648576040517f08c379a000000000000000000000000000000000000000000000000000000000815260040161263f90615810565b60405180910390fd5b6126727fc1b6b25172765141d53bdec489e447c8b55159182799c48f41f9f454fbb1701683610d6b565b5050565b7f000000000000000000000000000000000000000000000000000000000000000081565b6203f48081565b6126a9612bd7565b603084849050146126ef576040517f08c379a00000000000000000000000000000000000000000000000000000000081526004016126e69061589e565b60405180910390fd5b60608282905014612735576040517f08c379a000000000000000000000000000000000000000000000000000000000815260040161272c9061592c565b60405180910390fd5b6127f36004858560405161274a929190614e72565b90815260200160405180910390208054612763906147bb565b80601f016020809104026020016040519081016040528092919081815260200182805461278f906147bb565b80156127da5780601f106127b1576101008083540402835291602001916127da565b820191905f5260205f20905b8154815290600101906020018083116127bd57829003601f168201915b505050505060405180602001604052805f815250613112565b612832576040517f08c379a0000000000000000000000000000000000000000000000000000000008152600401612829906159ba565b60405180910390fd5b5f61283b612c24565b90505f60038260405161284e919061458c565b908152602001604051809103902090505f815f01805461286d906147bb565b80601f0160208091040260200160405190810160405280929190818152602001828054612899906147bb565b80156128e45780601f106128bb576101008083540402835291602001916128e4565b820191905f5260205f20905b8154815290600101906020018083116128c757829003601f168201915b505050505090505f6002848989604051602001612903939291906159d8565b60405160208183030381529060405260405161291f91906144a5565b602060405180830381855afa15801561293a573d5f803e3d5ffd5b5050506040513d601f19601f8201168201806040525081019061295d91906144cf565b90506129ad828288888080601f0160208091040260200160405190810160405280939291908181526020018383808284375f81840152601f19601f820116905080830192505050505050506108ac565b6129ec576040517f08c379a00000000000000000000000000000000000000000000000000000000081526004016129e390615a47565b60405180910390fd5b6004826040516129fc91906144a5565b90815260200160405180910390205f612a15919061374a565b8360048989604051612a28929190614e72565b90815260200160405180910390209081612a429190614988565b508787845f019182612a55929190615a6f565b5083604051612a64919061458c565b60405180910390207f9c224697dad8634da3612c158cdc1759d5161333fabe2a34e62ed8933fdcb699838a8a42604051612aa19493929190615b68565b60405180910390a250505050612ab5612d95565b50505050565b6004818051602081018201805184825260208301602085012081835280955050505050505f915090508054612aef906147bb565b80601f0160208091040260200160405190810160405280929190818152602001828054612b1b906147bb565b8015612b665780601f10612b3d57610100808354040283529160200191612b66565b820191905f5260205f20905b815481529060010190602001808311612b4957829003601f168201915b505050505081565b5f7f01ffc9a7000000000000000000000000000000000000000000000000000000007bffffffffffffffffffffffffffffffffffffffffffffffffffffffff1916827bffffffffffffffffffffffffffffffffffffffffffffffffffffffff1916149050919050565b60025f5403612c1b576040517f08c379a0000000000000000000000000000000000000000000000000000000008152600401612c1290615bf7565b60405180910390fd5b60025f81905550565b60605f60055f3373ffffffffffffffffffffffffffffffffffffffff1673ffffffffffffffffffffffffffffffffffffffff1681526020019081526020015f20805480602002602001604051908101604052809291908181526020015f905b82821015612d2b578382905f5260205f20018054612ca0906147bb565b80601f0160208091040260200160405190810160405280929190818152602001828054612ccc906147bb565b8015612d175780601f10612cee57610100808354040283529160200191612d17565b820191905f5260205f20905b815481529060010190602001808311612cfa57829003601f168201915b505050505081526020019060010190612c83565b5050505090505f815111612d74576040517f08c379a0000000000000000000000000000000000000000000000000000000008152600401612d6b90615c5f565b60405180910390fd5b805f81518110612d8757612d86615c7d565b5b602002602001015191505090565b60015f81905550565b612daf81612daa612e9b565b6136f9565b50565b5f612dbd83836110e4565b612e91576001805f8581526020019081526020015f205f015f8473ffffffffffffffffffffffffffffffffffffffff1673ffffffffffffffffffffffffffffffffffffffff1681526020019081526020015f205f6101000a81548160ff021916908315150217905550612e2e612e9b565b73ffffffffffffffffffffffffffffffffffffffff168273ffffffffffffffffffffffffffffffffffffffff16847f2f8788117e7eff1d82e926ec794901d17c78024a50270940304540a733656f0d60405160405180910390a460019050612e95565b5f90505b92915050565b5f33905090565b5f612ead83836110e4565b15612f82575f60015f8581526020019081526020015f205f015f8473ffffffffffffffffffffffffffffffffffffffff1673ffffffffffffffffffffffffffffffffffffffff1681526020019081526020015f205f6101000a81548160ff021916908315150217905550612f1f612e9b565b73ffffffffffffffffffffffffffffffffffffffff168273ffffffffffffffffffffffffffffffffffffffff16847ff6391f5c32d9c69d2a47ea670b442974b53935d1edc7fd64eb21e047a839171b60405160405180910390a460019050612f86565b5f90505b92915050565b5f600682604051612f9d919061458c565b90815260200160405180910390205490505f6001600980549050612fc1919061558e565b90508082146130bf575f60098281548110612fdf57612fde615c7d565b5b905f5260205f20018054612ff2906147bb565b80601f016020809104026020016040519081016040528092919081815260200182805461301e906147bb565b80156130695780601f1061304057610100808354040283529160200191613069565b820191905f5260205f20905b81548152906001019060200180831161304c57829003601f168201915b50505050509050806009848154811061308557613084615c7d565b5b905f5260205f200190816130999190614988565b50826006826040516130ab919061458c565b908152602001604051809103902081905550505b60098054806130d1576130d0615caa565b5b600190038181905f5260205f20015f6130ea919061374a565b90556006836040516130fc919061458c565b90815260200160405180910390205f9055505050565b5f8180519060200120838051906020012014905092915050565b60605f8273ffffffffffffffffffffffffffffffffffffffff165f1b90505f6040518060400160405280601081526020017f303132333435363738396162636465660000000000000000000000000000000081525090505f602a67ffffffffffffffff81111561319f5761319e61395d565b5b6040519080825280601f01601f1916602001820160405280156131d15781602001600182028036833780820191505090505b5090507f3000000000000000000000000000000000000000000000000000000000000000815f8151811061320857613207615c7d565b5b60200101907effffffffffffffffffffffffffffffffffffffffffffffffffffffffffffff191690815f1a9053507f78000000000000000000000000000000000000000000000000000000000000008160018151811061326b5761326a615c7d565b5b60200101907effffffffffffffffffffffffffffffffffffffffffffffffffffffffffffff191690815f1a9053505f5b60148110156134215782600485600c846132b59190614b12565b602081106132c6576132c5615c7d565b5b1a60f81b7effffffffffffffffffffffffffffffffffffffffffffffffffffffffffffff1916901c60f81c60ff168151811061330557613304615c7d565b5b602001015160f81c60f81b8260028361331e9190615cd7565b600261332a9190614b12565b8151811061333b5761333a615c7d565b5b60200101907effffffffffffffffffffffffffffffffffffffffffffffffffffffffffffff191690815f1a90535082600f60f81b85600c8461337d9190614b12565b6020811061338e5761338d615c7d565b5b1a60f81b1660f81c60ff16815181106133aa576133a9615c7d565b5b602001015160f81c60f81b826002836133c39190615cd7565b60036133cf9190614b12565b815181106133e0576133df615c7d565b5b60200101907effffffffffffffffffffffffffffffffffffffffffffffffffffffffffffff191690815f1a905350808061341990615d18565b91505061329b565b50809350505050919050565b60605f6040518060400160405280601081526020017f303132333435363738396162636465660000000000000000000000000000000081525090505f604267ffffffffffffffff8111156134845761348361395d565b5b6040519080825280601f01601f1916602001820160405280156134b65781602001600182028036833780820191505090505b5090507f3000000000000000000000000000000000000000000000000000000000000000815f815181106134ed576134ec615c7d565b5b60200101907effffffffffffffffffffffffffffffffffffffffffffffffffffffffffffff191690815f1a9053507f7800000000000000000000000000000000000000000000000000000000000000816001815181106135505761354f615c7d565b5b60200101907effffffffffffffffffffffffffffffffffffffffffffffffffffffffffffff191690815f1a9053505f5b60208110156136ee5782600486836020811061359f5761359e615c7d565b5b1a60f81b7effffffffffffffffffffffffffffffffffffffffffffffffffffffffffffff1916901c60f81c60ff16815181106135de576135dd615c7d565b5b602001015160f81c60f81b826002836135f79190615cd7565b60026136039190614b12565b8151811061361457613613615c7d565b5b60200101907effffffffffffffffffffffffffffffffffffffffffffffffffffffffffffff191690815f1a90535082600f60f81b86836020811061365b5761365a615c7d565b5b1a60f81b1660f81c60ff168151811061367757613676615c7d565b5b602001015160f81c60f81b826002836136909190615cd7565b600361369c9190614b12565b815181106136ad576136ac615c7d565b5b60200101907effffffffffffffffffffffffffffffffffffffffffffffffffffffffffffff191690815f1a90535080806136e690615d18565b915050613580565b508092505050919050565b61370382826110e4565b6137465780826040517fe2517d3f00000000000000000000000000000000000000000000000000000000815260040161373d929190615d5f565b60405180910390fd5b5050565b508054613756906147bb565b5f825580601f106137675750613784565b601f0160209004905f5260205f20908101906137839190613787565b5b50565b5b8082111561379e575f815f905550600101613788565b5090565b5f81905092915050565b50565b5f6137ba5f836137a2565b91506137c5826137ac565b5f82019050919050565b5f6137d9826137af565b9150819050919050565b5f82825260208201905092915050565b7f526566756e64206661696c656420666f72206163636964656e74616c204554485f8201527f207472616e736665720000000000000000000000000000000000000000000000602082015250565b5f61384d6029836137e3565b9150613858826137f3565b604082019050919050565b5f6020820190508181035f83015261387a81613841565b9050919050565b5f604051905090565b5f80fd5b5f80fd5b5f7fffffffff0000000000000000000000000000000000000000000000000000000082169050919050565b6138c681613892565b81146138d0575f80fd5b50565b5f813590506138e1816138bd565b92915050565b5f602082840312156138fc576138fb61388a565b5b5f613909848285016138d3565b91505092915050565b5f8115159050919050565b61392681613912565b82525050565b5f60208201905061393f5f83018461391d565b92915050565b5f80fd5b5f80fd5b5f601f19601f8301169050919050565b7f4e487b71000000000000000000000000000000000000000000000000000000005f52604160045260245ffd5b6139938261394d565b810181811067ffffffffffffffff821117156139b2576139b161395d565b5b80604052505050565b5f6139c4613881565b90506139d0828261398a565b919050565b5f67ffffffffffffffff8211156139ef576139ee61395d565b5b6139f88261394d565b9050602081019050919050565b828183375f83830152505050565b5f613a25613a20846139d5565b6139bb565b905082815260208101848484011115613a4157613a40613949565b5b613a4c848285613a05565b509392505050565b5f82601f830112613a6857613a67613945565b5b8135613a78848260208601613a13565b91505092915050565b5f819050919050565b613a9381613a81565b8114613a9d575f80fd5b50565b5f81359050613aae81613a8a565b92915050565b5f805f60608486031215613acb57613aca61388a565b5b5f84013567ffffffffffffffff811115613ae857613ae761388e565b5b613af486828701613a54565b9350506020613b0586828701613aa0565b925050604084013567ffffffffffffffff811115613b2657613b2561388e565b5b613b3286828701613a54565b9150509250925092565b5f60208284031215613b5157613b5061388a565b5b5f613b5e84828501613aa0565b91505092915050565b613b7081613a81565b82525050565b5f602082019050613b895f830184613b67565b92915050565b5f73ffffffffffffffffffffffffffffffffffffffff82169050919050565b5f613bb882613b8f565b9050919050565b613bc881613bae565b8114613bd2575f80fd5b50565b5f81359050613be381613bbf565b92915050565b5f8060408385031215613bff57613bfe61388a565b5b5f613c0c85828601613aa0565b9250506020613c1d85828601613bd5565b9150509250929050565b5f81519050919050565b5f5b83811015613c4e578082015181840152602081019050613c33565b5f8484015250505050565b5f613c6382613c27565b613c6d81856137e3565b9350613c7d818560208601613c31565b613c868161394d565b840191505092915050565b5f6020820190508181035f830152613ca98184613c59565b905092915050565b5f67ffffffffffffffff821115613ccb57613cca61395d565b5b613cd48261394d565b9050602081019050919050565b5f613cf3613cee84613cb1565b6139bb565b905082815260208101848484011115613d0f57613d0e613949565b5b613d1a848285613a05565b509392505050565b5f82601f830112613d3657613d35613945565b5b8135613d46848260208601613ce1565b91505092915050565b5f60208284031215613d6457613d6361388a565b5b5f82013567ffffffffffffffff811115613d8157613d8061388e565b5b613d8d84828501613d22565b91505092915050565b5f819050919050565b613da881613d96565b82525050565b5f602082019050613dc15f830184613d9f565b92915050565b613dd081613d96565b8114613dda575f80fd5b50565b5f81359050613deb81613dc7565b92915050565b5f8060408385031215613e0757613e0661388a565b5b5f613e1485828601613bd5565b9250506020613e2585828601613ddd565b9150509250929050565b5f81519050919050565b5f82825260208201905092915050565b5f613e5382613e2f565b613e5d8185613e39565b9350613e6d818560208601613c31565b613e768161394d565b840191505092915050565b7f4e487b71000000000000000000000000000000000000000000000000000000005f52602160045260245ffd5b60058110613ebf57613ebe613e81565b5b50565b5f819050613ecf82613eae565b919050565b5f613ede82613ec2565b9050919050565b613eee81613ed4565b82525050565b5f610100820190508181035f830152613f0d818b613e49565b9050613f1c602083018a613b67565b613f296040830189613d9f565b613f366060830188613d9f565b613f436080830187613d9f565b613f5060a0830186613ee5565b613f5d60c0830185613d9f565b81810360e0830152613f6f8184613c59565b90509998505050505050505050565b5f80fd5b5f80fd5b5f8083601f840112613f9b57613f9a613945565b5b8235905067ffffffffffffffff811115613fb857613fb7613f7e565b5b602083019150836001820283011115613fd457613fd3613f82565b5b9250929050565b5f8083601f840112613ff057613fef613945565b5b8235905067ffffffffffffffff81111561400d5761400c613f7e565b5b60208301915083600182028301111561402957614028613f82565b5b9250929050565b5f805f805f805f8060a0898b03121561404c5761404b61388a565b5b5f89013567ffffffffffffffff8111156140695761406861388e565b5b6140758b828c01613f86565b985098505060206140888b828c01613aa0565b96505060406140998b828c01613aa0565b955050606089013567ffffffffffffffff8111156140ba576140b961388e565b5b6140c68b828c01613f86565b9450945050608089013567ffffffffffffffff8111156140e9576140e861388e565b5b6140f58b828c01613fdb565b92509250509295985092959890939650565b5f6020828403121561411c5761411b61388a565b5b5f61412984828501613ddd565b91505092915050565b5f805f806040858703121561414a5761414961388a565b5b5f85013567ffffffffffffffff8111156141675761416661388e565b5b61417387828801613fdb565b9450945050602085013567ffffffffffffffff8111156141965761419561388e565b5b6141a287828801613fdb565b925092505092959194509250565b5f805f805f80608087890312156141ca576141c961388a565b5b5f87013567ffffffffffffffff8111156141e7576141e661388e565b5b6141f389828a01613fdb565b9650965050602087013567ffffffffffffffff8111156142165761421561388e565b5b61422289828a01613f86565b9450945050604061423589828a01613aa0565b925050606061424689828a01613ddd565b9150509295509295509295565b5f602082840312156142685761426761388a565b5b5f61427584828501613bd5565b91505092915050565b61428781613bae565b82525050565b5f6020820190506142a05f83018461427e565b92915050565b5f805f80604085870312156142be576142bd61388a565b5b5f85013567ffffffffffffffff8111156142db576142da61388e565b5b6142e787828801613f86565b9450945050602085013567ffffffffffffffff81111561430a5761430961388e565b5b61431687828801613f86565b925092505092959194509250565b5f602082840312156143395761433861388a565b5b5f82013567ffffffffffffffff8111156143565761435561388e565b5b61436284828501613a54565b91505092915050565b7f424c5320706b206d7573742062652034382062797465730000000000000000005f82015250565b5f61439f6017836137e3565b91506143aa8261436b565b602082019050919050565b5f6020820190508181035f8301526143cc81614393565b9050919050565b7f424c53207369676e6174757265206d75737420626520393620627974657300005f82015250565b5f614407601e836137e3565b9150614412826143d3565b602082019050919050565b5f6020820190508181035f830152614434816143fb565b9050919050565b5f819050919050565b61445561445082613a81565b61443b565b82525050565b5f6144668284614444565b60208201915081905092915050565b5f61447f82613e2f565b61448981856137a2565b9350614499818560208601613c31565b80840191505092915050565b5f6144b08284614475565b915081905092915050565b5f815190506144c981613a8a565b92915050565b5f602082840312156144e4576144e361388a565b5b5f6144f1848285016144bb565b91505092915050565b5f6080820190508181035f8301526145128187613e49565b90506145216020830186613b67565b81810360408301526145338185613e49565b905081810360608301526145478184613e49565b905095945050505050565b5f81905092915050565b5f61456682613c27565b6145708185614552565b9350614580818560208601613c31565b80840191505092915050565b5f614597828461455c565b915081905092915050565b7f4e6f6465206973206e6f742066726f7a656e00000000000000000000000000005f82015250565b5f6145d66012836137e3565b91506145e1826145a2565b602082019050919050565b5f6020820190508181035f830152614603816145ca565b9050919050565b7f43616e6e6f7420756e667265657a65207065726d616e656e746c792066726f7a5f8201527f656e206e6f646500000000000000000000000000000000000000000000000000602082015250565b5f6146646027836137e3565b915061466f8261460a565b604082019050919050565b5f6020820190508181035f83015261469181614658565b9050919050565b7f43616e6e6f7420756e667265657a65206265666f726520667265657a652070655f8201527f72696f6420656e64730000000000000000000000000000000000000000000000602082015250565b5f6146f26029836137e3565b91506146fd82614698565b604082019050919050565b5f6020820190508181035f83015261471f816146e6565b9050919050565b7f496e73756666696369656e74207374616b6520746f20756e667265657a6500005f82015250565b5f61475a601e836137e3565b915061476582614726565b602082019050919050565b5f6020820190508181035f8301526147878161474e565b9050919050565b7f4e487b71000000000000000000000000000000000000000000000000000000005f52602260045260245ffd5b5f60028204905060018216806147d257607f821691505b6020821081036147e5576147e461478e565b5b50919050565b5f819050815f5260205f209050919050565b5f6020601f8301049050919050565b5f82821b905092915050565b5f600883026148477fffffffffffffffffffffffffffffffffffffffffffffffffffffffffffffffff8261480c565b614851868361480c565b95508019841693508086168417925050509392505050565b5f819050919050565b5f61488c61488761488284613d96565b614869565b613d96565b9050919050565b5f819050919050565b6148a583614872565b6148b96148b182614893565b848454614818565b825550505050565b5f90565b6148cd6148c1565b6148d881848461489c565b505050565b5b818110156148fb576148f05f826148c5565b6001810190506148de565b5050565b601f82111561494057614911816147eb565b61491a846147fd565b81016020851015614929578190505b61493d614935856147fd565b8301826148dd565b50505b505050565b5f82821c905092915050565b5f6149605f1984600802614945565b1980831691505092915050565b5f6149788383614951565b9150826002028217905092915050565b61499182613c27565b67ffffffffffffffff8111156149aa576149a961395d565b5b6149b482546147bb565b6149bf8282856148ff565b5f60209050601f8311600181146149f0575f84156149de578287015190505b6149e8858261496d565b865550614a4f565b601f1984166149fe866147eb565b5f5b82811015614a2557848901518255600182019150602085019450602081019050614a00565b86831015614a425784890151614a3e601f891682614951565b8355505b6001600288020188555050505b505050505050565b7f496e76616c6964206e6f64652073746174757320286f6e6c79206163746976655f8201527f2f66726f7a656e2063616e207265766f6b652900000000000000000000000000602082015250565b5f614ab16033836137e3565b9150614abc82614a57565b604082019050919050565b5f6020820190508181035f830152614ade81614aa5565b9050919050565b7f4e487b71000000000000000000000000000000000000000000000000000000005f52601160045260245ffd5b5f614b1c82613d96565b9150614b2783613d96565b9250828201905080821115614b3f57614b3e614ae5565b5b92915050565b5f604082019050614b585f830185613d9f565b614b656020830184613d9f565b9392505050565b7f444944206e6f74207265766f6b656400000000000000000000000000000000005f82015250565b5f614ba0600f836137e3565b9150614bab82614b6c565b602082019050919050565b5f6020820190508181035f830152614bcd81614b94565b9050919050565b7f5374616b65207374696c6c206c6f636b656420287761697420666f72206672655f8201527f657a6520706572696f6429000000000000000000000000000000000000000000602082015250565b5f614c2e602b836137e3565b9150614c3982614bd4565b604082019050919050565b5f6020820190508181035f830152614c5b81614c22565b9050919050565b7f4e6f207374616b6520746f2077697468647261770000000000000000000000005f82015250565b5f614c966014836137e3565b9150614ca182614c62565b602082019050919050565b5f6020820190508181035f830152614cc381614c8a565b9050919050565b7f5374616b65207769746864726177616c206661696c65640000000000000000005f82015250565b5f614cfe6017836137e3565b9150614d0982614cca565b602082019050919050565b5f6020820190508181035f830152614d2b81614cf2565b9050919050565b7f496e76616c696420424c5320706b20286d7573742062652034382062797465735f8201527f2900000000000000000000000000000000000000000000000000000000000000602082015250565b5f614d8c6021836137e3565b9150614d9782614d32565b604082019050919050565b5f6020820190508181035f830152614db981614d80565b9050919050565b7f496e76616c696420424c532073696720286d75737420626520393620627974655f8201527f7329000000000000000000000000000000000000000000000000000000000000602082015250565b5f614e1a6022836137e3565b9150614e2582614dc0565b604082019050919050565b5f6020820190508181035f830152614e4781614e0e565b9050919050565b5f614e5983856137a2565b9350614e66838584613a05565b82840190509392505050565b5f614e7e828486614e4e565b91508190509392505050565b7f5075626c6963206b657920616c726561647920626f756e6420746f20444944005f82015250565b5f614ebe601f836137e3565b9150614ec982614e8a565b602082019050919050565b5f6020820190508181035f830152614eeb81614eb2565b9050919050565b5f614efe828587614e4e565b9150614f0a8284614444565b602082019150819050949350505050565b7f496e76616c6964204e6f6465494420286d69736d6174636820706b2f73616c745f8201527f2900000000000000000000000000000000000000000000000000000000000000602082015250565b5f614f756021836137e3565b9150614f8082614f1b565b604082019050919050565b5f6020820190508181035f830152614fa281614f69565b9050919050565b5f614fb5828688614e4e565b9150614fc18285614444565b602082019150614fd18284614444565b60208201915081905095945050505050565b7f496e76616c696420424c53207369676e617475726500000000000000000000005f82015250565b5f6150176015836137e3565b915061502282614fe3565b602082019050919050565b5f6020820190508181035f8301526150448161500b565b9050919050565b7f496e73756666696369656e74207374616b65202862656c6f77206261736520725f8201527f6571756972656d656e7429000000000000000000000000000000000000000000602082015250565b5f6150a5602b836137e3565b91506150b08261504b565b604082019050919050565b5f6020820190508181035f8301526150d281615099565b9050919050565b7f3a000000000000000000000000000000000000000000000000000000000000005f82015250565b5f61510d600183614552565b9150615118826150d9565b600182019050919050565b5f61512e828661455c565b915061513a828561455c565b915061514582615101565b9150615151828461455c565b9150819050949350505050565b7f44494420616c72656164792065786973747300000000000000000000000000005f82015250565b5f6151926012836137e3565b915061519d8261515e565b602082019050919050565b5f6020820190508181035f8301526151bf81615186565b9050919050565b5f819050815f5260205f209050919050565b601f821115615219576151ea816151c6565b6151f3846147fd565b81016020851015615202578190505b61521661520e856147fd565b8301826148dd565b50505b505050565b61522782613e2f565b67ffffffffffffffff8111156152405761523f61395d565b5b61524a82546147bb565b6152558282856151d8565b5f60209050601f831160018114615286575f8415615274578287015190505b61527e858261496d565b8655506152e5565b601f198416615294866151c6565b5f5b828110156152bb57848901518255600182019150602085019450602081019050615296565b868310156152d857848901516152d4601f891682614951565b8355505b6001600288020188555050505b505050505050565b5f6152f88385614552565b9350615305838584613a05565b82840190509392505050565b5f61531d8284866152ed565b91508190509392505050565b7f444944206e6f74207265676973746572656400000000000000000000000000005f82015250565b5f61535d6012836137e3565b915061536882615329565b602082019050919050565b5f6020820190508181035f83015261538a81615351565b9050919050565b7f4e6f646520616c7265616479207065726d616e656e746c792066726f7a656e005f82015250565b5f6153c5601f836137e3565b91506153d082615391565b602082019050919050565b5f6020820190508181035f8301526153f2816153b9565b9050919050565b5f61540483856137e3565b9350615411838584613a05565b61541a8361394d565b840190509392505050565b5f6060820190508181035f83015261543e8186886153f9565b905061544d6020830185613d9f565b61545a6040830184613d9f565b95945050505050565b7f42617365207374616b652063616e6e6f74206265207a65726f000000000000005f82015250565b5f6154976019836137e3565b91506154a282615463565b602082019050919050565b5f6020820190508181035f8301526154c48161548b565b9050919050565b5f6060820190506154de5f830186613d9f565b6154eb6020830185613d9f565b6154f86040830184613d9f565b949350505050565b7f4e6f6465206973206e6f7420616374697665202866726f7a656e2f7265766f6b5f8201527f6564290000000000000000000000000000000000000000000000000000000000602082015250565b5f61555a6023836137e3565b915061556582615500565b604082019050919050565b5f6020820190508181035f8301526155878161554e565b9050919050565b5f61559882613d96565b91506155a383613d96565b92508282039050818111156155bb576155ba614ae5565b5b92915050565b7f496e76616c69642074696d657374616d7020287265706c61792061747461636b5f8201527f2900000000000000000000000000000000000000000000000000000000000000602082015250565b5f61561b6021836137e3565b9150615626826155c1565b604082019050919050565b5f6020820190508181035f8301526156488161560f565b9050919050565b5f819050919050565b61566961566482613d96565b61564f565b82525050565b5f61567b8286886152ed565b91506156878285614444565b6020820191506156978284615658565b60208201915081905095945050505050565b7f496e76616c696420766572696669636174696f6e2070726f6f660000000000005f82015250565b5f6156dd601a836137e3565b91506156e8826156a9565b602082019050919050565b5f6020820190508181035f83015261570a816156d1565b9050919050565b7f5374616b652062656c6f772063757272656e7420726571756972656d656e74005f82015250565b5f615745601f836137e3565b915061575082615711565b602082019050919050565b5f6020820190508181035f83015261577281615739565b9050919050565b5f60408201905061578c5f83018561391d565b6157996020830184613d9f565b9392505050565b7f496e76616c69642073656c656374696f6e20636f6e747261637420287a65726f5f8201527f2061646472657373290000000000000000000000000000000000000000000000602082015250565b5f6157fa6029836137e3565b9150615805826157a0565b604082019050919050565b5f6020820190508181035f830152615827816157ee565b9050919050565b7f496e76616c6964206e657720424c5320706b20286d75737420626520343820625f8201527f7974657329000000000000000000000000000000000000000000000000000000602082015250565b5f6158886025836137e3565b91506158938261582e565b604082019050919050565b5f6020820190508181035f8301526158b58161587c565b9050919050565b7f496e76616c6964207369676e617475726520286d7573742062652039362062795f8201527f7465732900000000000000000000000000000000000000000000000000000000602082015250565b5f6159166024836137e3565b9150615921826158bc565b604082019050919050565b5f6020820190508181035f8301526159438161590a565b9050919050565b7f4e6577207075626c6963206b657920616c726561647920626f756e6420746f205f8201527f4449440000000000000000000000000000000000000000000000000000000000602082015250565b5f6159a46023836137e3565b91506159af8261594a565b604082019050919050565b5f6020820190508181035f8301526159d181615998565b9050919050565b5f6159e3828661455c565b91506159f0828486614e4e565b9150819050949350505050565b7f496e76616c6964207369676e617475726520666f72206b6579207570646174655f82015250565b5f615a316020836137e3565b9150615a3c826159fd565b602082019050919050565b5f6020820190508181035f830152615a5e81615a25565b9050919050565b5f82905092915050565b615a798383615a65565b67ffffffffffffffff811115615a9257615a9161395d565b5b615a9c82546147bb565b615aa78282856151d8565b5f601f831160018114615ad4575f8415615ac2578287013590505b615acc858261496d565b865550615b33565b601f198416615ae2866151c6565b5f5b82811015615b0957848901358255600182019150602085019450602081019050615ae4565b86831015615b265784890135615b22601f891682614951565b8355505b6001600288020188555050505b50505050505050565b5f615b478385613e39565b9350615b54838584613a05565b615b5d8361394d565b840190509392505050565b5f6060820190508181035f830152615b808187613e49565b90508181036020830152615b95818587615b3c565b9050615ba46040830184613d9f565b95945050505050565b7f5265656e7472616e637947756172643a207265656e7472616e742063616c6c005f82015250565b5f615be1601f836137e3565b9150615bec82615bad565b602082019050919050565b5f6020820190508181035f830152615c0e81615bd5565b9050919050565b7f53656e646572206e6f7420626f756e6420746f20616e792044494400000000005f82015250565b5f615c49601b836137e3565b9150615c5482615c15565b602082019050919050565b5f6020820190508181035f830152615c7681615c3d565b9050919050565b7f4e487b71000000000000000000000000000000000000000000000000000000005f52603260045260245ffd5b7f4e487b71000000000000000000000000000000000000000000000000000000005f52603160045260245ffd5b5f615ce182613d96565b9150615cec83613d96565b9250828202615cfa81613d96565b91508282048414831517615d1157615d10614ae5565b5b5092915050565b5f615d2282613d96565b91507fffffffffffffffffffffffffffffffffffffffffffffffffffffffffffffffff8203615d5457615d53614ae5565b5b600182019050919050565b5f604082019050615d725f83018561427e565b615d7f6020830184613b67565b939250505056fe424c535f5349475f424c53313233383147325f584d443a5348412d3235365f535357555f524f5f504f505fa2646970667358221220cd6e2ee29bfeccf6f05360021fb072957d63c6fb56db21527814a56a00eeac3d64736f6c63430008140033",
			"opcodes": "PUSH1 0xA0 PUSH1 0x40 MSTORE CALLVALUE DUP1 ISZERO PUSH3 0x10 JUMPI PUSH0 DUP1 REVERT JUMPDEST POP PUSH1 0x40 MLOAD PUSH3 0x62B9 CODESIZE SUB DUP1 PUSH3 0x62B9 DUP4 CODECOPY DUP2 DUP2 ADD PUSH1 0x40 MSTORE DUP2 ADD SWAP1 PUSH3 0x36 SWAP2 SWAP1 PUSH3 0x381 JUMP JUMPDEST PUSH1 0x1 PUSH0 DUP2 SWAP1 SSTORE POP PUSH0 DUP3 GT PUSH3 0x82 JUMPI PUSH1 0x40 MLOAD PUSH32 0x8C379A000000000000000000000000000000000000000000000000000000000 DUP2 MSTORE PUSH1 0x4 ADD PUSH3 0x79 SWAP1 PUSH3 0x424 JUMP JUMPDEST PUSH1 0x40 MLOAD DUP1 SWAP2 SUB SWAP1 REVERT JUMPDEST PUSH0 PUSH20 0xFFFFFFFFFFFFFFFFFFFFFFFFFFFFFFFFFFFFFFFF AND DUP2 PUSH20 0xFFFFFFFFFFFFFFFFFFFFFFFFFFFFFFFFFFFFFFFF AND SUB PUSH3 0xF3 JUMPI PUSH1 0x40 MLOAD PUSH32 0x8C379A000000000000000000000000000000000000000000000000000000000 DUP2 MSTORE PUSH1 0x4 ADD PUSH3 0xEA SWAP1 PUSH3 0x492 JUMP JUMPDEST PUSH1 0x40 MLOAD DUP1 SWAP2 SUB SWAP1 REVERT JUMPDEST DUP2 PUSH1 0x2 DUP2 SWAP1 SSTORE POP ADDRESS PUSH20 0xFFFFFFFFFFFFFFFFFFFFFFFFFFFFFFFFFFFFFFFF AND PUSH1 0x80 DUP2 PUSH20 0xFFFFFFFFFFFFFFFFFFFFFFFFFFFFFFFFFFFFFFFF AND DUP2 MSTORE POP POP PUSH3 0x160 PUSH32 0xC1B6B25172765141D53BDEC489E447C8B55159182799C48F41F9F454FBB17016 DUP3 PUSH3 0x17E PUSH1 0x20 SHL PUSH1 0x20 SHR JUMP JUMPDEST POP PUSH3 0x175 PUSH0 DUP1 SHL CALLER PUSH3 0x17E PUSH1 0x20 SHL PUSH1 0x20 SHR JUMP JUMPDEST POP POP POP PUSH3 0x4B2 JUMP JUMPDEST PUSH0 PUSH3 0x191 DUP4 DUP4 PUSH3 0x279 PUSH1 0x20 SHL PUSH1 0x20 SHR JUMP JUMPDEST PUSH3 0x26F JUMPI PUSH1 0x1 DUP1 PUSH0 DUP6 DUP2 MSTORE PUSH1 0x20 ADD SWAP1 DUP2 MSTORE PUSH1 0x20 ADD PUSH0 KECCAK256 PUSH0 ADD PUSH0 DUP5 PUSH20 0xFFFFFFFFFFFFFFFFFFFFFFFFFFFFFFFFFFFFFFFF AND PUSH20 0xFFFFFFFFFFFFFFFFFFFFFFFFFFFFFFFFFFFFFFFF AND DUP2 MSTORE PUSH1 0x20 ADD SWAP1 DUP2 MSTORE PUSH1 0x20 ADD PUSH0 KECCAK256 PUSH0 PUSH2 0x100 EXP DUP2 SLOAD DUP2 PUSH1 0xFF MUL NOT AND SWAP1 DUP4 ISZERO ISZERO MUL OR SWAP1 SSTORE POP PUSH3 0x20B PUSH3 0x2DD PUSH1 0x20 SHL PUSH1 0x20 SHR JUMP JUMPDEST PUSH20 0xFFFFFFFFFFFFFFFFFFFFFFFFFFFFFFFFFFFFFFFF AND DUP3 PUSH20 0xFFFFFFFFFFFFFFFFFFFFFFFFFFFFFFFFFFFFFFFF AND DUP5 PUSH32 0x2F8788117E7EFF1D82E926EC794901D17C78024A50270940304540A733656F0D PUSH1 0x40 MLOAD PUSH1 0x40 MLOAD DUP1 SWAP2 SUB SWAP1 LOG4 PUSH1 0x1 SWAP1 POP PUSH3 0x273 JUMP JUMPDEST PUSH0 SWAP1 POP JUMPDEST SWAP3 SWAP2 POP POP JUMP JUMPDEST PUSH0 PUSH1 0x1 PUSH0 DUP5 DUP2 MSTORE PUSH1 0x20 ADD SWAP1 DUP2 MSTORE PUSH1 0x20 ADD PUSH0 KECCAK256 PUSH0 ADD PUSH0 DUP4 PUSH20 0xFFFFFFFFFFFFFFFFFFFFFFFFFFFFFFFFFFFFFFFF AND PUSH20 0xFFFFFFFFFFFFFFFFFFFFFFFFFFFFFFFFFFFFFFFF AND DUP2 MSTORE PUSH1 0x20 ADD SWAP1 DUP2 MSTORE PUSH1 0x20 ADD PUSH0 KECCAK256 PUSH0 SWAP1 SLOAD SWAP1 PUSH2 0x100 EXP SWAP1 DIV PUSH1 0xFF AND SWAP1 POP SWAP3 SWAP2 POP POP JUMP JUMPDEST PUSH0 CALLER SWAP1 POP SWAP1 JUMP JUMPDEST PUSH0 DUP1 REVERT JUMPDEST PUSH0 DUP2 SWAP1 POP SWAP2 SWAP1 POP JUMP JUMPDEST PUSH3 0x2FC DUP2 PUSH3 0x2E8 JUMP JUMPDEST DUP2 EQ PUSH3 0x307 JUMPI PUSH0 DUP1 REVERT JUMPDEST POP JUMP JUMPDEST PUSH0 DUP2 MLOAD SWAP1 POP PUSH3 0x31A DUP2 PUSH3 0x2F1 JUMP JUMPDEST SWAP3 SWAP2 POP POP JUMP JUMPDEST PUSH0 PUSH20 0xFFFFFFFFFFFFFFFFFFFFFFFFFFFFFFFFFFFFFFFF DUP3 AND SWAP1 POP SWAP2 SWAP1 POP JUMP JUMPDEST PUSH0 PUSH3 0x34B DUP3 PUSH3 0x320 JUMP JUMPDEST SWAP1 POP SWAP2 SWAP1 POP JUMP JUMPDEST PUSH3 0x35D DUP2 PUSH3 0x33F JUMP JUMPDEST DUP2 EQ PUSH3 0x368 JUMPI PUSH0 DUP1 REVERT JUMPDEST POP JUMP JUMPDEST PUSH0 DUP2 MLOAD SWAP1 POP PUSH3 0x37B DUP2 PUSH3 0x352 JUMP JUMPDEST SWAP3 SWAP2 POP POP JUMP JUMPDEST PUSH0 DUP1 PUSH1 0x40 DUP4 DUP6 SUB SLT ISZERO PUSH3 0x39A JUMPI PUSH3 0x399 PUSH3 0x2E4 JUMP JUMPDEST JUMPDEST PUSH0 PUSH3 0x3A9 DUP6 DUP3 DUP7 ADD PUSH3 0x30A JUMP JUMPDEST SWAP3 POP POP PUSH1 0x20 PUSH3 0x3BC DUP6 DUP3 DUP7 ADD PUSH3 0x36B JUMP JUMPDEST SWAP2 POP POP SWAP3 POP SWAP3 SWAP1 POP JUMP JUMPDEST PUSH0 DUP3 DUP3 MSTORE PUSH1 0x20 DUP3 ADD SWAP1 POP SWAP3 SWAP2 POP POP JUMP JUMPDEST PUSH32 0x42617365207374616B652063616E6E6F74206265207A65726F00000000000000 PUSH0 DUP3 ADD MSTORE POP JUMP JUMPDEST PUSH0 PUSH3 0x40C PUSH1 0x19 DUP4 PUSH3 0x3C6 JUMP JUMPDEST SWAP2 POP PUSH3 0x419 DUP3 PUSH3 0x3D6 JUMP JUMPDEST PUSH1 0x20 DUP3 ADD SWAP1 POP SWAP2 SWAP1 POP JUMP JUMPDEST PUSH0 PUSH1 0x20 DUP3 ADD SWAP1 POP DUP2 DUP2 SUB PUSH0 DUP4 ADD MSTORE PUSH3 0x43D DUP2 PUSH3 0x3FE JUMP JUMPDEST SWAP1 POP SWAP2 SWAP1 POP JUMP JUMPDEST PUSH32 0x496E76616C69642073656C656374696F6E20636F6E7472616374000000000000 PUSH0 DUP3 ADD MSTORE POP JUMP JUMPDEST PUSH0 PUSH3 0x47A PUSH1 0x1A DUP4 PUSH3 0x3C6 JUMP JUMPDEST SWAP2 POP PUSH3 0x487 DUP3 PUSH3 0x444 JUMP JUMPDEST PUSH1 0x20 DUP3 ADD SWAP1 POP SWAP2 SWAP1 POP JUMP JUMPDEST PUSH0 PUSH1 0x20 DUP3 ADD SWAP1 POP DUP2 DUP2 SUB PUSH0 DUP4 ADD MSTORE PUSH3 0x4AB DUP2 PUSH3 0x46C JUMP JUMPDEST SWAP1 POP SWAP2 SWAP1 POP JUMP JUMPDEST PUSH1 0x80 MLOAD PUSH2 0x5DE7 PUSH3 0x4D2 PUSH0 CODECOPY PUSH0 DUP2 DUP2 PUSH2 0x19E7 ADD MSTORE PUSH2 0x2678 ADD MSTORE PUSH2 0x5DE7 PUSH0 RETURN INVALID PUSH1 0x80 PUSH1 0x40 MSTORE PUSH1 0x4 CALLDATASIZE LT PUSH2 0x1DB JUMPI PUSH0 CALLDATALOAD PUSH1 0xE0 SHR DUP1 PUSH4 0xA217FDDF GT PUSH2 0x101 JUMPI DUP1 PUSH4 0xE8497E72 GT PUSH2 0x94 JUMPI DUP1 PUSH4 0xF6B4DFB4 GT PUSH2 0x63 JUMPI DUP1 PUSH4 0xF6B4DFB4 EQ PUSH2 0x77B JUMPI DUP1 PUSH4 0xF79D0731 EQ PUSH2 0x7A5 JUMPI DUP1 PUSH4 0xFA357D34 EQ PUSH2 0x7CF JUMPI DUP1 PUSH4 0xFA620E5C EQ PUSH2 0x7F7 JUMPI PUSH2 0x28A JUMP JUMPDEST DUP1 PUSH4 0xE8497E72 EQ PUSH2 0x6C7 JUMPI DUP1 PUSH4 0xE88AB95C EQ PUSH2 0x6EF JUMPI DUP1 PUSH4 0xF2EBE212 EQ PUSH2 0x717 JUMPI DUP1 PUSH4 0xF33057E8 EQ PUSH2 0x753 JUMPI PUSH2 0x28A JUMP JUMPDEST DUP1 PUSH4 0xCB851C1E GT PUSH2 0xD0 JUMPI DUP1 PUSH4 0xCB851C1E EQ PUSH2 0x60F JUMPI DUP1 PUSH4 0xD2F01A9B EQ PUSH2 0x639 JUMPI DUP1 PUSH4 0xD547741F EQ PUSH2 0x663 JUMPI DUP1 PUSH4 0xD711E906 EQ PUSH2 0x68B JUMPI PUSH2 0x28A JUMP JUMPDEST DUP1 PUSH4 0xA217FDDF EQ PUSH2 0x575 JUMPI DUP1 PUSH4 0xBED9D861 EQ PUSH2 0x59F JUMPI DUP1 PUSH4 0xC0A4F1FB EQ PUSH2 0x5B5 JUMPI DUP1 PUSH4 0xC10C4ADD EQ PUSH2 0x5DF JUMPI PUSH2 0x28A JUMP JUMPDEST DUP1 PUSH4 0x52B3BC04 GT PUSH2 0x179 JUMPI DUP1 PUSH4 0x8DB90738 GT PUSH2 0x148 JUMPI DUP1 PUSH4 0x8DB90738 EQ PUSH2 0x4A4 JUMPI DUP1 PUSH4 0x91D14854 EQ PUSH2 0x4E7 JUMPI DUP1 PUSH4 0x93FA8CDD EQ PUSH2 0x523 JUMPI DUP1 PUSH4 0x9790874C EQ PUSH2 0x55F JUMPI PUSH2 0x28A JUMP JUMPDEST DUP1 PUSH4 0x52B3BC04 EQ PUSH2 0x3C6 JUMPI DUP1 PUSH4 0x52FA871E EQ PUSH2 0x402 JUMPI DUP1 PUSH4 0x6E9E9D46 EQ PUSH2 0x43E JUMPI DUP1 PUSH4 0x7AB8B36B EQ PUSH2 0x47A JUMPI PUSH2 0x28A JUMP JUMPDEST DUP1 PUSH4 0x27F200A9 GT PUSH2 0x1B5 JUMPI DUP1 PUSH4 0x27F200A9 EQ PUSH2 0x342 JUMPI DUP1 PUSH4 0x2F2FF15D EQ PUSH2 0x34C JUMPI DUP1 PUSH4 0x36568ABE EQ PUSH2 0x374 JUMPI DUP1 PUSH4 0x4C0D9781 EQ PUSH2 0x39C JUMPI PUSH2 0x28A JUMP JUMPDEST DUP1 PUSH4 0x1FFC9A7 EQ PUSH2 0x28E JUMPI DUP1 PUSH4 0x32D6D7C EQ PUSH2 0x2CA JUMPI DUP1 PUSH4 0x248A9CA3 EQ PUSH2 0x306 JUMPI PUSH2 0x28A JUMP JUMPDEST CALLDATASIZE PUSH2 0x28A JUMPI PUSH0 CALLER PUSH20 0xFFFFFFFFFFFFFFFFFFFFFFFFFFFFFFFFFFFFFFFF AND CALLVALUE PUSH1 0x40 MLOAD PUSH2 0x205 SWAP1 PUSH2 0x37CF JUMP JUMPDEST PUSH0 PUSH1 0x40 MLOAD DUP1 DUP4 SUB DUP2 DUP6 DUP8 GAS CALL SWAP3 POP POP POP RETURNDATASIZE DUP1 PUSH0 DUP2 EQ PUSH2 0x23F JUMPI PUSH1 0x40 MLOAD SWAP2 POP PUSH1 0x1F NOT PUSH1 0x3F RETURNDATASIZE ADD AND DUP3 ADD PUSH1 0x40 MSTORE RETURNDATASIZE DUP3 MSTORE RETURNDATASIZE PUSH0 PUSH1 0x20 DUP5 ADD RETURNDATACOPY PUSH2 0x244 JUMP JUMPDEST PUSH1 0x60 SWAP2 POP JUMPDEST POP POP SWAP1 POP DUP1 PUSH2 0x288 JUMPI PUSH1 0x40 MLOAD PUSH32 0x8C379A000000000000000000000000000000000000000000000000000000000 DUP2 MSTORE PUSH1 0x4 ADD PUSH2 0x27F SWAP1 PUSH2 0x3863 JUMP JUMPDEST PUSH1 0x40 MLOAD DUP1 SWAP2 SUB SWAP1 REVERT JUMPDEST STOP JUMPDEST PUSH0 DUP1 REVERT JUMPDEST CALLVALUE DUP1 ISZERO PUSH2 0x299 JUMPI PUSH0 DUP1 REVERT JUMPDEST POP PUSH2 0x2B4 PUSH1 0x4 DUP1 CALLDATASIZE SUB DUP2 ADD SWAP1 PUSH2 0x2AF SWAP2 SWAP1 PUSH2 0x38E7 JUMP JUMPDEST PUSH2 0x833 JUMP JUMPDEST PUSH1 0x40 MLOAD PUSH2 0x2C1 SWAP2 SWAP1 PUSH2 0x392C JUMP JUMPDEST PUSH1 0x40 MLOAD DUP1 SWAP2 SUB SWAP1 RETURN JUMPDEST CALLVALUE DUP1 ISZERO PUSH2 0x2D5 JUMPI PUSH0 DUP1 REVERT JUMPDEST POP PUSH2 0x2F0 PUSH1 0x4 DUP1 CALLDATASIZE SUB DUP2 ADD SWAP1 PUSH2 0x2EB SWAP2 SWAP1 PUSH2 0x3AB4 JUMP JUMPDEST PUSH2 0x8AC JUMP JUMPDEST PUSH1 0x40 MLOAD PUSH2 0x2FD SWAP2 SWAP1 PUSH2 0x392C JUMP JUMPDEST PUSH1 0x40 MLOAD DUP1 SWAP2 SUB SWAP1 RETURN JUMPDEST CALLVALUE DUP1 ISZERO PUSH2 0x311 JUMPI PUSH0 DUP1 REVERT JUMPDEST POP PUSH2 0x32C PUSH1 0x4 DUP1 CALLDATASIZE SUB DUP2 ADD SWAP1 PUSH2 0x327 SWAP2 SWAP1 PUSH2 0x3B3C JUMP JUMPDEST PUSH2 0xAC9 JUMP JUMPDEST PUSH1 0x40 MLOAD PUSH2 0x339 SWAP2 SWAP1 PUSH2 0x3B76 JUMP JUMPDEST PUSH1 0x40 MLOAD DUP1 SWAP2 SUB SWAP1 RETURN JUMPDEST PUSH2 0x34A PUSH2 0xAE6 JUMP JUMPDEST STOP JUMPDEST CALLVALUE DUP1 ISZERO PUSH2 0x357 JUMPI PUSH0 DUP1 REVERT JUMPDEST POP PUSH2 0x372 PUSH1 0x4 DUP1 CALLDATASIZE SUB DUP2 ADD SWAP1 PUSH2 0x36D SWAP2 SWAP1 PUSH2 0x3BE9 JUMP JUMPDEST PUSH2 0xD6B JUMP JUMPDEST STOP JUMPDEST CALLVALUE DUP1 ISZERO PUSH2 0x37F JUMPI PUSH0 DUP1 REVERT JUMPDEST POP PUSH2 0x39A PUSH1 0x4 DUP1 CALLDATASIZE SUB DUP2 ADD SWAP1 PUSH2 0x395 SWAP2 SWAP1 PUSH2 0x3BE9 JUMP JUMPDEST PUSH2 0xD8D JUMP JUMPDEST STOP JUMPDEST CALLVALUE DUP1 ISZERO PUSH2 0x3A7 JUMPI PUSH0 DUP1 REVERT JUMPDEST POP PUSH2 0x3B0 PUSH2 0xE08 JUMP JUMPDEST PUSH1 0x40 MLOAD PUSH2 0x3BD SWAP2 SWAP1 PUSH2 0x3C91 JUMP JUMPDEST PUSH1 0x40 MLOAD DUP1 SWAP2 SUB SWAP1 RETURN JUMPDEST CALLVALUE DUP1 ISZERO PUSH2 0x3D1 JUMPI PUSH0 DUP1 REVERT JUMPDEST POP PUSH2 0x3EC PUSH1 0x4 DUP1 CALLDATASIZE SUB DUP2 ADD SWAP1 PUSH2 0x3E7 SWAP2 SWAP1 PUSH2 0x3D4F JUMP JUMPDEST PUSH2 0xE41 JUMP JUMPDEST PUSH1 0x40 MLOAD PUSH2 0x3F9 SWAP2 SWAP1 PUSH2 0x3DAE JUMP JUMPDEST PUSH1 0x40 MLOAD DUP1 SWAP2 SUB SWAP1 RETURN JUMPDEST CALLVALUE DUP1 ISZERO PUSH2 0x40D JUMPI PUSH0 DUP1 REVERT JUMPDEST POP PUSH2 0x428 PUSH1 0x4 DUP1 CALLDATASIZE SUB DUP2 ADD SWAP1 PUSH2 0x423 SWAP2 SWAP1 PUSH2 0x3DF1 JUMP JUMPDEST PUSH2 0xE6E JUMP JUMPDEST PUSH1 0x40 MLOAD PUSH2 0x435 SWAP2 SWAP1 PUSH2 0x3C91 JUMP JUMPDEST PUSH1 0x40 MLOAD DUP1 SWAP2 SUB SWAP1 RETURN JUMPDEST CALLVALUE DUP1 ISZERO PUSH2 0x449 JUMPI PUSH0 DUP1 REVERT JUMPDEST POP PUSH2 0x464 PUSH1 0x4 DUP1 CALLDATASIZE SUB DUP2 ADD SWAP1 PUSH2 0x45F SWAP2 SWAP1 PUSH2 0x3D4F JUMP JUMPDEST PUSH2 0xF1F JUMP JUMPDEST PUSH1 0x40 MLOAD PUSH2 0x471 SWAP2 SWAP1 PUSH2 0x3DAE JUMP JUMPDEST PUSH1 0x40 MLOAD DUP1 SWAP2 SUB SWAP1 RETURN JUMPDEST CALLVALUE DUP1 ISZERO PUSH2 0x485 JUMPI PUSH0 DUP1 REVERT JUMPDEST POP PUSH2 0x48E PUSH2 0xF4C JUMP JUMPDEST PUSH1 0x40 MLOAD PUSH2 0x49B SWAP2 SWAP1 PUSH2 0x3B76 JUMP JUMPDEST PUSH1 0x40 MLOAD DUP1 SWAP2 SUB SWAP1 RETURN JUMPDEST CALLVALUE DUP1 ISZERO PUSH2 0x4AF JUMPI PUSH0 DUP1 REVERT JUMPDEST POP PUSH2 0x4CA PUSH1 0x4 DUP1 CALLDATASIZE SUB DUP2 ADD SWAP1 PUSH2 0x4C5 SWAP2 SWAP1 PUSH2 0x3D4F JUMP JUMPDEST PUSH2 0xF70 JUMP JUMPDEST PUSH1 0x40 MLOAD PUSH2 0x4DE SWAP9 SWAP8 SWAP7 SWAP6 SWAP5 SWAP4 SWAP3 SWAP2 SWAP1 PUSH2 0x3EF4 JUMP JUMPDEST PUSH1 0x40 MLOAD DUP1 SWAP2 SUB SWAP1 RETURN JUMPDEST CALLVALUE DUP1 ISZERO PUSH2 0x4F2 JUMPI PUSH0 DUP1 REVERT JUMPDEST POP PUSH2 0x50D PUSH1 0x4 DUP1 CALLDATASIZE SUB DUP2 ADD SWAP1 PUSH2 0x508 SWAP2 SWAP1 PUSH2 0x3BE9 JUMP JUMPDEST PUSH2 0x10E4 JUMP JUMPDEST PUSH1 0x40 MLOAD PUSH2 0x51A SWAP2 SWAP1 PUSH2 0x392C JUMP JUMPDEST PUSH1 0x40 MLOAD DUP1 SWAP2 SUB SWAP1 RETURN JUMPDEST CALLVALUE DUP1 ISZERO PUSH2 0x52E JUMPI PUSH0 DUP1 REVERT JUMPDEST POP PUSH2 0x549 PUSH1 0x4 DUP1 CALLDATASIZE SUB DUP2 ADD SWAP1 PUSH2 0x544 SWAP2 SWAP1 PUSH2 0x3D4F JUMP JUMPDEST PUSH2 0x1148 JUMP JUMPDEST PUSH1 0x40 MLOAD PUSH2 0x556 SWAP2 SWAP1 PUSH2 0x3DAE JUMP JUMPDEST PUSH1 0x40 MLOAD DUP1 SWAP2 SUB SWAP1 RETURN JUMPDEST CALLVALUE DUP1 ISZERO PUSH2 0x56A JUMPI PUSH0 DUP1 REVERT JUMPDEST POP PUSH2 0x573 PUSH2 0x1175 JUMP JUMPDEST STOP JUMPDEST CALLVALUE DUP1 ISZERO PUSH2 0x580 JUMPI PUSH0 DUP1 REVERT JUMPDEST POP PUSH2 0x589 PUSH2 0x133E JUMP JUMPDEST PUSH1 0x40 MLOAD PUSH2 0x596 SWAP2 SWAP1 PUSH2 0x3B76 JUMP JUMPDEST PUSH1 0x40 MLOAD DUP1 SWAP2 SUB SWAP1 RETURN JUMPDEST CALLVALUE DUP1 ISZERO PUSH2 0x5AA JUMPI PUSH0 DUP1 REVERT JUMPDEST POP PUSH2 0x5B3 PUSH2 0x1344 JUMP JUMPDEST STOP JUMPDEST CALLVALUE DUP1 ISZERO PUSH2 0x5C0 JUMPI PUSH0 DUP1 REVERT JUMPDEST POP PUSH2 0x5C9 PUSH2 0x15D2 JUMP JUMPDEST PUSH1 0x40 MLOAD PUSH2 0x5D6 SWAP2 SWAP1 PUSH2 0x3DAE JUMP JUMPDEST PUSH1 0x40 MLOAD DUP1 SWAP2 SUB SWAP1 RETURN JUMPDEST PUSH2 0x5F9 PUSH1 0x4 DUP1 CALLDATASIZE SUB DUP2 ADD SWAP1 PUSH2 0x5F4 SWAP2 SWAP1 PUSH2 0x4030 JUMP JUMPDEST PUSH2 0x15D8 JUMP JUMPDEST PUSH1 0x40 MLOAD PUSH2 0x606 SWAP2 SWAP1 PUSH2 0x3C91 JUMP JUMPDEST PUSH1 0x40 MLOAD DUP1 SWAP2 SUB SWAP1 RETURN JUMPDEST CALLVALUE DUP1 ISZERO PUSH2 0x61A JUMPI PUSH0 DUP1 REVERT JUMPDEST POP PUSH2 0x623 PUSH2 0x1D92 JUMP JUMPDEST PUSH1 0x40 MLOAD PUSH2 0x630 SWAP2 SWAP1 PUSH2 0x3DAE JUMP JUMPDEST PUSH1 0x40 MLOAD DUP1 SWAP2 SUB SWAP1 RETURN JUMPDEST CALLVALUE DUP1 ISZERO PUSH2 0x644 JUMPI PUSH0 DUP1 REVERT JUMPDEST POP PUSH2 0x64D PUSH2 0x1D97 JUMP JUMPDEST PUSH1 0x40 MLOAD PUSH2 0x65A SWAP2 SWAP1 PUSH2 0x3DAE JUMP JUMPDEST PUSH1 0x40 MLOAD DUP1 SWAP2 SUB SWAP1 RETURN JUMPDEST CALLVALUE DUP1 ISZERO PUSH2 0x66E JUMPI PUSH0 DUP1 REVERT JUMPDEST POP PUSH2 0x689 PUSH1 0x4 DUP1 CALLDATASIZE SUB DUP2 ADD SWAP1 PUSH2 0x684 SWAP2 SWAP1 PUSH2 0x3BE9 JUMP JUMPDEST PUSH2 0x1D9E JUMP JUMPDEST STOP JUMPDEST CALLVALUE DUP1 ISZERO PUSH2 0x696 JUMPI PUSH0 DUP1 REVERT JUMPDEST POP PUSH2 0x6B1 PUSH1 0x4 DUP1 CALLDATASIZE SUB DUP2 ADD SWAP1 PUSH2 0x6AC SWAP2 SWAP1 PUSH2 0x4107 JUMP JUMPDEST PUSH2 0x1DC0 JUMP JUMPDEST PUSH1 0x40 MLOAD PUSH2 0x6BE SWAP2 SWAP1 PUSH2 0x3C91 JUMP JUMPDEST PUSH1 0x40 MLOAD DUP1 SWAP2 SUB SWAP1 RETURN JUMPDEST CALLVALUE DUP1 ISZERO PUSH2 0x6D2 JUMPI PUSH0 DUP1 REVERT JUMPDEST POP PUSH2 0x6ED PUSH1 0x4 DUP1 CALLDATASIZE SUB DUP2 ADD SWAP1 PUSH2 0x6E8 SWAP2 SWAP1 PUSH2 0x4132 JUMP JUMPDEST PUSH2 0x1E66 JUMP JUMPDEST STOP JUMPDEST CALLVALUE DUP1 ISZERO PUSH2 0x6FA JUMPI PUSH0 DUP1 REVERT JUMPDEST POP PUSH2 0x715 PUSH1 0x4 DUP1 CALLDATASIZE SUB DUP2 ADD SWAP1 PUSH2 0x710 SWAP2 SWAP1 PUSH2 0x4107 JUMP JUMPDEST PUSH2 0x21AF JUMP JUMPDEST STOP JUMPDEST CALLVALUE DUP1 ISZERO PUSH2 0x722 JUMPI PUSH0 DUP1 REVERT JUMPDEST POP PUSH2 0x73D PUSH1 0x4 DUP1 CALLDATASIZE SUB DUP2 ADD SWAP1 PUSH2 0x738 SWAP2 SWAP1 PUSH2 0x41B0 JUMP JUMPDEST PUSH2 0x224A JUMP JUMPDEST PUSH1 0x40 MLOAD PUSH2 0x74A SWAP2 SWAP1 PUSH2 0x392C JUMP JUMPDEST PUSH1 0x40 MLOAD DUP1 SWAP2 SUB SWAP1 RETURN JUMPDEST CALLVALUE DUP1 ISZERO PUSH2 0x75E JUMPI PUSH0 DUP1 REVERT JUMPDEST POP PUSH2 0x779 PUSH1 0x4 DUP1 CALLDATASIZE SUB DUP2 ADD SWAP1 PUSH2 0x774 SWAP2 SWAP1 PUSH2 0x4253 JUMP JUMPDEST PUSH2 0x25CE JUMP JUMPDEST STOP JUMPDEST CALLVALUE DUP1 ISZERO PUSH2 0x786 JUMPI PUSH0 DUP1 REVERT JUMPDEST POP PUSH2 0x78F PUSH2 0x2676 JUMP JUMPDEST PUSH1 0x40 MLOAD PUSH2 0x79C SWAP2 SWAP1 PUSH2 0x428D JUMP JUMPDEST PUSH1 0x40 MLOAD DUP1 SWAP2 SUB SWAP1 RETURN JUMPDEST CALLVALUE DUP1 ISZERO PUSH2 0x7B0 JUMPI PUSH0 DUP1 REVERT JUMPDEST POP PUSH2 0x7B9 PUSH2 0x269A JUMP JUMPDEST PUSH1 0x40 MLOAD PUSH2 0x7C6 SWAP2 SWAP1 PUSH2 0x3DAE JUMP JUMPDEST PUSH1 0x40 MLOAD DUP1 SWAP2 SUB SWAP1 RETURN JUMPDEST CALLVALUE DUP1 ISZERO PUSH2 0x7DA JUMPI PUSH0 DUP1 REVERT JUMPDEST POP PUSH2 0x7F5 PUSH1 0x4 DUP1 CALLDATASIZE SUB DUP2 ADD SWAP1 PUSH2 0x7F0 SWAP2 SWAP1 PUSH2 0x42A6 JUMP JUMPDEST PUSH2 0x26A1 JUMP JUMPDEST STOP JUMPDEST CALLVALUE DUP1 ISZERO PUSH2 0x802 JUMPI PUSH0 DUP1 REVERT JUMPDEST POP PUSH2 0x81D PUSH1 0x4 DUP1 CALLDATASIZE SUB DUP2 ADD SWAP1 PUSH2 0x818 SWAP2 SWAP1 PUSH2 0x4324 JUMP JUMPDEST PUSH2 0x2ABB JUMP JUMPDEST PUSH1 0x40 MLOAD PUSH2 0x82A SWAP2 SWAP1 PUSH2 0x3C91 JUMP JUMPDEST PUSH1 0x40 MLOAD DUP1 SWAP2 SUB SWAP1 RETURN JUMPDEST PUSH0 PUSH32 0x7965DB0B00000000000000000000000000000000000000000000000000000000 PUSH28 0xFFFFFFFFFFFFFFFFFFFFFFFFFFFFFFFFFFFFFFFFFFFFFFFFFFFFFFFF NOT AND DUP3 PUSH28 0xFFFFFFFFFFFFFFFFFFFFFFFFFFFFFFFFFFFFFFFFFFFFFFFFFFFFFFFF NOT AND EQ DUP1 PUSH2 0x8A5 JUMPI POP PUSH2 0x8A4 DUP3 PUSH2 0x2B6E JUMP JUMPDEST JUMPDEST SWAP1 POP SWAP2 SWAP1 POP JUMP JUMPDEST PUSH0 PUSH1 0x30 DUP5 MLOAD EQ PUSH2 0x8F1 JUMPI PUSH1 0x40 MLOAD PUSH32 0x8C379A000000000000000000000000000000000000000000000000000000000 DUP2 MSTORE PUSH1 0x4 ADD PUSH2 0x8E8 SWAP1 PUSH2 0x43B5 JUMP JUMPDEST PUSH1 0x40 MLOAD DUP1 SWAP2 SUB SWAP1 REVERT JUMPDEST PUSH1 0x60 DUP3 MLOAD EQ PUSH2 0x935 JUMPI PUSH1 0x40 MLOAD PUSH32 0x8C379A000000000000000000000000000000000000000000000000000000000 DUP2 MSTORE PUSH1 0x4 ADD PUSH2 0x92C SWAP1 PUSH2 0x441D JUMP JUMPDEST PUSH1 0x40 MLOAD DUP1 SWAP2 SUB SWAP1 REVERT JUMPDEST PUSH0 PUSH1 0x2 DUP5 PUSH1 0x40 MLOAD PUSH1 0x20 ADD PUSH2 0x949 SWAP2 SWAP1 PUSH2 0x445B JUMP JUMPDEST PUSH1 0x40 MLOAD PUSH1 0x20 DUP2 DUP4 SUB SUB DUP2 MSTORE SWAP1 PUSH1 0x40 MSTORE PUSH1 0x40 MLOAD PUSH2 0x965 SWAP2 SWAP1 PUSH2 0x44A5 JUMP JUMPDEST PUSH1 0x20 PUSH1 0x40 MLOAD DUP1 DUP4 SUB DUP2 DUP6 GAS STATICCALL ISZERO DUP1 ISZERO PUSH2 0x980 JUMPI RETURNDATASIZE PUSH0 DUP1 RETURNDATACOPY RETURNDATASIZE PUSH0 REVERT JUMPDEST POP POP POP PUSH1 0x40 MLOAD RETURNDATASIZE PUSH1 0x1F NOT PUSH1 0x1F DUP3 ADD AND DUP3 ADD DUP1 PUSH1 0x40 MSTORE POP DUP2 ADD SWAP1 PUSH2 0x9A3 SWAP2 SWAP1 PUSH2 0x44CF JUMP JUMPDEST SWAP1 POP PUSH0 DUP1 PUSH1 0x66 PUSH20 0xFFFFFFFFFFFFFFFFFFFFFFFFFFFFFFFFFFFFFFFF AND PUSH32 0x48B2F2A947105D01C86B15409A4C8312E3DD9BDF0E038BC299F222F30EE1FFF9 DUP9 DUP6 DUP9 PUSH1 0x40 MLOAD DUP1 PUSH1 0x60 ADD PUSH1 0x40 MSTORE DUP1 PUSH1 0x2B DUP2 MSTORE PUSH1 0x20 ADD PUSH2 0x5D87 PUSH1 0x2B SWAP2 CODECOPY PUSH1 0x40 MLOAD PUSH1 0x24 ADD PUSH2 0xA0F SWAP5 SWAP4 SWAP3 SWAP2 SWAP1 PUSH2 0x44FA JUMP JUMPDEST PUSH1 0x40 MLOAD PUSH1 0x20 DUP2 DUP4 SUB SUB DUP2 MSTORE SWAP1 PUSH1 0x40 MSTORE SWAP1 PUSH28 0xFFFFFFFFFFFFFFFFFFFFFFFFFFFFFFFFFFFFFFFFFFFFFFFFFFFFFFFF NOT AND PUSH1 0x20 DUP3 ADD DUP1 MLOAD PUSH28 0xFFFFFFFFFFFFFFFFFFFFFFFFFFFFFFFFFFFFFFFFFFFFFFFFFFFFFFFF DUP4 DUP2 DUP4 AND OR DUP4 MSTORE POP POP POP POP PUSH1 0x40 MLOAD PUSH2 0xA79 SWAP2 SWAP1 PUSH2 0x44A5 JUMP JUMPDEST PUSH0 PUSH1 0x40 MLOAD DUP1 DUP4 SUB DUP2 DUP6 GAS STATICCALL SWAP2 POP POP RETURNDATASIZE DUP1 PUSH0 DUP2 EQ PUSH2 0xAB1 JUMPI PUSH1 0x40 MLOAD SWAP2 POP PUSH1 0x1F NOT PUSH1 0x3F RETURNDATASIZE ADD AND DUP3 ADD PUSH1 0x40 MSTORE RETURNDATASIZE DUP3 MSTORE RETURNDATASIZE PUSH0 PUSH1 0x20 DUP5 ADD RETURNDATACOPY PUSH2 0xAB6 JUMP JUMPDEST PUSH1 0x60 SWAP2 POP JUMPDEST POP SWAP2 POP SWAP2 POP PUSH1 0x1 SWAP4 POP POP POP POP SWAP4 SWAP3 POP POP POP JUMP JUMPDEST PUSH0 PUSH1 0x1 PUSH0 DUP4 DUP2 MSTORE PUSH1 0x20 ADD SWAP1 DUP2 MSTORE PUSH1 0x20 ADD PUSH0 KECCAK256 PUSH1 0x1 ADD SLOAD SWAP1 POP SWAP2 SWAP1 POP JUMP JUMPDEST PUSH2 0xAEE PUSH2 0x2BD7 JUMP JUMPDEST PUSH0 PUSH2 0xAF7 PUSH2 0x2C24 JUMP JUMPDEST SWAP1 POP PUSH0 PUSH1 0x3 DUP3 PUSH1 0x40 MLOAD PUSH2 0xB0A SWAP2 SWAP1 PUSH2 0x458C JUMP JUMPDEST SWAP1 DUP2 MSTORE PUSH1 0x20 ADD PUSH1 0x40 MLOAD DUP1 SWAP2 SUB SWAP1 KECCAK256 SWAP1 POP PUSH1 0x2 PUSH1 0x4 DUP2 GT ISZERO PUSH2 0xB2E JUMPI PUSH2 0xB2D PUSH2 0x3E81 JUMP JUMPDEST JUMPDEST DUP2 PUSH1 0x5 ADD PUSH0 SWAP1 SLOAD SWAP1 PUSH2 0x100 EXP SWAP1 DIV PUSH1 0xFF AND PUSH1 0x4 DUP2 GT ISZERO PUSH2 0xB51 JUMPI PUSH2 0xB50 PUSH2 0x3E81 JUMP JUMPDEST JUMPDEST EQ PUSH2 0xB91 JUMPI PUSH1 0x40 MLOAD PUSH32 0x8C379A000000000000000000000000000000000000000000000000000000000 DUP2 MSTORE PUSH1 0x4 ADD PUSH2 0xB88 SWAP1 PUSH2 0x45EC JUMP JUMPDEST PUSH1 0x40 MLOAD DUP1 SWAP2 SUB SWAP1 REVERT JUMPDEST PUSH1 0x3 DUP2 PUSH1 0x6 ADD SLOAD LT PUSH2 0xBD8 JUMPI PUSH1 0x40 MLOAD PUSH32 0x8C379A000000000000000000000000000000000000000000000000000000000 DUP2 MSTORE PUSH1 0x4 ADD PUSH2 0xBCF SWAP1 PUSH2 0x467A JUMP JUMPDEST PUSH1 0x40 MLOAD DUP1 SWAP2 SUB SWAP1 REVERT JUMPDEST PUSH1 0x7 DUP3 PUSH1 0x40 MLOAD PUSH2 0xBE8 SWAP2 SWAP1 PUSH2 0x458C JUMP JUMPDEST SWAP1 DUP2 MSTORE PUSH1 0x20 ADD PUSH1 0x40 MLOAD DUP1 SWAP2 SUB SWAP1 KECCAK256 SLOAD TIMESTAMP LT ISZERO PUSH2 0xC39 JUMPI PUSH1 0x40 MLOAD PUSH32 0x8C379A000000000000000000000000000000000000000000000000000000000 DUP2 MSTORE PUSH1 0x4 ADD PUSH2 0xC30 SWAP1 PUSH2 0x4708 JUMP JUMPDEST PUSH1 0x40 MLOAD DUP1 SWAP2 SUB SWAP1 REVERT JUMPDEST PUSH1 0x2 SLOAD CALLVALUE LT ISZERO PUSH2 0xC7E JUMPI PUSH1 0x40 MLOAD PUSH32 0x8C379A000000000000000000000000000000000000000000000000000000000 DUP2 MSTORE PUSH1 0x4 ADD PUSH2 0xC75 SWAP1 PUSH2 0x4770 JUMP JUMPDEST PUSH1 0x40 MLOAD DUP1 SWAP2 SUB SWAP1 REVERT JUMPDEST PUSH1 0x1 DUP2 PUSH1 0x5 ADD PUSH0 PUSH2 0x100 EXP DUP2 SLOAD DUP2 PUSH1 0xFF MUL NOT AND SWAP1 DUP4 PUSH1 0x4 DUP2 GT ISZERO PUSH2 0xCA5 JUMPI PUSH2 0xCA4 PUSH2 0x3E81 JUMP JUMPDEST JUMPDEST MUL OR SWAP1 SSTORE POP CALLVALUE DUP2 PUSH1 0x2 ADD DUP2 SWAP1 SSTORE POP PUSH0 PUSH1 0x9 DUP1 SLOAD SWAP1 POP SWAP1 POP PUSH1 0x9 DUP4 SWAP1 DUP1 PUSH1 0x1 DUP2 SLOAD ADD DUP1 DUP3 SSTORE DUP1 SWAP2 POP POP PUSH1 0x1 SWAP1 SUB SWAP1 PUSH0 MSTORE PUSH1 0x20 PUSH0 KECCAK256 ADD PUSH0 SWAP1 SWAP2 SWAP1 SWAP2 SWAP1 SWAP2 POP SWAP1 DUP2 PUSH2 0xCED SWAP2 SWAP1 PUSH2 0x4988 JUMP JUMPDEST POP DUP1 PUSH1 0x6 DUP5 PUSH1 0x40 MLOAD PUSH2 0xCFF SWAP2 SWAP1 PUSH2 0x458C JUMP JUMPDEST SWAP1 DUP2 MSTORE PUSH1 0x20 ADD PUSH1 0x40 MLOAD DUP1 SWAP2 SUB SWAP1 KECCAK256 DUP2 SWAP1 SSTORE POP DUP3 PUSH1 0x40 MLOAD PUSH2 0xD1F SWAP2 SWAP1 PUSH2 0x458C JUMP JUMPDEST PUSH1 0x40 MLOAD DUP1 SWAP2 SUB SWAP1 KECCAK256 PUSH32 0xEB438E5BC628B66A384FF92DF1B383FADF555DED62C1E41C64BCF5916EE8A188 TIMESTAMP PUSH1 0x40 MLOAD PUSH2 0xD56 SWAP2 SWAP1 PUSH2 0x3DAE JUMP JUMPDEST PUSH1 0x40 MLOAD DUP1 SWAP2 SUB SWAP1 LOG2 POP POP POP PUSH2 0xD69 PUSH2 0x2D95 JUMP JUMPDEST JUMP JUMPDEST PUSH2 0xD74 DUP3 PUSH2 0xAC9 JUMP JUMPDEST PUSH2 0xD7D DUP2 PUSH2 0x2D9E JUMP JUMPDEST PUSH2 0xD87 DUP4 DUP4 PUSH2 0x2DB2 JUMP JUMPDEST POP POP POP POP JUMP JUMPDEST PUSH2 0xD95 PUSH2 0x2E9B JUMP JUMPDEST PUSH20 0xFFFFFFFFFFFFFFFFFFFFFFFFFFFFFFFFFFFFFFFF AND DUP2 PUSH20 0xFFFFFFFFFFFFFFFFFFFFFFFFFFFFFFFFFFFFFFFF AND EQ PUSH2 0xDF9 JUMPI PUSH1 0x40 MLOAD PUSH32 0x6697B23200000000000000000000000000000000000000000000000000000000 DUP2 MSTORE PUSH1 0x4 ADD PUSH1 0x40 MLOAD DUP1 SWAP2 SUB SWAP1 REVERT JUMPDEST PUSH2 0xE03 DUP3 DUP3 PUSH2 0x2EA2 JUMP JUMPDEST POP POP POP JUMP JUMPDEST PUSH1 0x40 MLOAD DUP1 PUSH1 0x40 ADD PUSH1 0x40 MSTORE DUP1 PUSH1 0x9 DUP2 MSTORE PUSH1 0x20 ADD PUSH32 0x6469643A657468723A0000000000000000000000000000000000000000000000 DUP2 MSTORE POP DUP2 JUMP JUMPDEST PUSH1 0x6 DUP2 DUP1 MLOAD PUSH1 0x20 DUP2 ADD DUP3 ADD DUP1 MLOAD DUP5 DUP3 MSTORE PUSH1 0x20 DUP4 ADD PUSH1 0x20 DUP6 ADD KECCAK256 DUP2 DUP4 MSTORE DUP1 SWAP6 POP POP POP POP POP POP PUSH0 SWAP2 POP SWAP1 POP SLOAD DUP2 JUMP JUMPDEST PUSH1 0x5 PUSH1 0x20 MSTORE DUP2 PUSH0 MSTORE PUSH1 0x40 PUSH0 KECCAK256 DUP2 DUP2 SLOAD DUP2 LT PUSH2 0xE87 JUMPI PUSH0 DUP1 REVERT JUMPDEST SWAP1 PUSH0 MSTORE PUSH1 0x20 PUSH0 KECCAK256 ADD PUSH0 SWAP2 POP SWAP2 POP POP DUP1 SLOAD PUSH2 0xEA0 SWAP1 PUSH2 0x47BB JUMP JUMPDEST DUP1 PUSH1 0x1F ADD PUSH1 0x20 DUP1 SWAP2 DIV MUL PUSH1 0x20 ADD PUSH1 0x40 MLOAD SWAP1 DUP2 ADD PUSH1 0x40 MSTORE DUP1 SWAP3 SWAP2 SWAP1 DUP2 DUP2 MSTORE PUSH1 0x20 ADD DUP3 DUP1 SLOAD PUSH2 0xECC SWAP1 PUSH2 0x47BB JUMP JUMPDEST DUP1 ISZERO PUSH2 0xF17 JUMPI DUP1 PUSH1 0x1F LT PUSH2 0xEEE JUMPI PUSH2 0x100 DUP1 DUP4 SLOAD DIV MUL DUP4 MSTORE SWAP2 PUSH1 0x20 ADD SWAP2 PUSH2 0xF17 JUMP JUMPDEST DUP3 ADD SWAP2 SWAP1 PUSH0 MSTORE PUSH1 0x20 PUSH0 KECCAK256 SWAP1 JUMPDEST DUP2 SLOAD DUP2 MSTORE SWAP1 PUSH1 0x1 ADD SWAP1 PUSH1 0x20 ADD DUP1 DUP4 GT PUSH2 0xEFA JUMPI DUP3 SWAP1 SUB PUSH1 0x1F AND DUP3 ADD SWAP2 JUMPDEST POP POP POP POP POP DUP2 JUMP JUMPDEST PUSH1 0x7 DUP2 DUP1 MLOAD PUSH1 0x20 DUP2 ADD DUP3 ADD DUP1 MLOAD DUP5 DUP3 MSTORE PUSH1 0x20 DUP4 ADD PUSH1 0x20 DUP6 ADD KECCAK256 DUP2 DUP4 MSTORE DUP1 SWAP6 POP POP POP POP POP POP PUSH0 SWAP2 POP SWAP1 POP SLOAD DUP2 JUMP JUMPDEST PUSH32 0xC1B6B25172765141D53BDEC489E447C8B55159182799C48F41F9F454FBB17016 DUP2 JUMP JUMPDEST PUSH1 0x3 DUP2 DUP1 MLOAD PUSH1 0x20 DUP2 ADD DUP3 ADD DUP1 MLOAD DUP5 DUP3 MSTORE PUSH1 0x20 DUP4 ADD PUSH1 0x20 DUP6 ADD KECCAK256 DUP2 DUP4 MSTORE DUP1 SWAP6 POP POP POP POP POP POP PUSH0 SWAP2 POP SWAP1 POP DUP1 PUSH0 ADD DUP1 SLOAD PUSH2 0xFA7 SWAP1 PUSH2 0x47BB JUMP JUMPDEST DUP1 PUSH1 0x1F ADD PUSH1 0x20 DUP1 SWAP2 DIV MUL PUSH1 0x20 ADD PUSH1 0x40 MLOAD SWAP1 DUP2 ADD PUSH1 0x40 MSTORE DUP1 SWAP3 SWAP2 SWAP1 DUP2 DUP2 MSTORE PUSH1 0x20 ADD DUP3 DUP1 SLOAD PUSH2 0xFD3 SWAP1 PUSH2 0x47BB JUMP JUMPDEST DUP1 ISZERO PUSH2 0x101E JUMPI DUP1 PUSH1 0x1F LT PUSH2 0xFF5 JUMPI PUSH2 0x100 DUP1 DUP4 SLOAD DIV MUL DUP4 MSTORE SWAP2 PUSH1 0x20 ADD SWAP2 PUSH2 0x101E JUMP JUMPDEST DUP3 ADD SWAP2 SWAP1 PUSH0 MSTORE PUSH1 0x20 PUSH0 KECCAK256 SWAP1 JUMPDEST DUP2 SLOAD DUP2 MSTORE SWAP1 PUSH1 0x1 ADD SWAP1 PUSH1 0x20 ADD DUP1 DUP4 GT PUSH2 0x1001 JUMPI DUP3 SWAP1 SUB PUSH1 0x1F AND DUP3 ADD SWAP2 JUMPDEST POP POP POP POP POP SWAP1 DUP1 PUSH1 0x1 ADD SLOAD SWAP1 DUP1 PUSH1 0x2 ADD SLOAD SWAP1 DUP1 PUSH1 0x3 ADD SLOAD SWAP1 DUP1 PUSH1 0x4 ADD SLOAD SWAP1 DUP1 PUSH1 0x5 ADD PUSH0 SWAP1 SLOAD SWAP1 PUSH2 0x100 EXP SWAP1 DIV PUSH1 0xFF AND SWAP1 DUP1 PUSH1 0x6 ADD SLOAD SWAP1 DUP1 PUSH1 0x7 ADD DUP1 SLOAD PUSH2 0x1063 SWAP1 PUSH2 0x47BB JUMP JUMPDEST DUP1 PUSH1 0x1F ADD PUSH1 0x20 DUP1 SWAP2 DIV MUL PUSH1 0x20 ADD PUSH1 0x40 MLOAD SWAP1 DUP2 ADD PUSH1 0x40 MSTORE DUP1 SWAP3 SWAP2 SWAP1 DUP2 DUP2 MSTORE PUSH1 0x20 ADD DUP3 DUP1 SLOAD PUSH2 0x108F SWAP1 PUSH2 0x47BB JUMP JUMPDEST DUP1 ISZERO PUSH2 0x10DA JUMPI DUP1 PUSH1 0x1F LT PUSH2 0x10B1 JUMPI PUSH2 0x100 DUP1 DUP4 SLOAD DIV MUL DUP4 MSTORE SWAP2 PUSH1 0x20 ADD SWAP2 PUSH2 0x10DA JUMP JUMPDEST DUP3 ADD SWAP2 SWAP1 PUSH0 MSTORE PUSH1 0x20 PUSH0 KECCAK256 SWAP1 JUMPDEST DUP2 SLOAD DUP2 MSTORE SWAP1 PUSH1 0x1 ADD SWAP1 PUSH1 0x20 ADD DUP1 DUP4 GT PUSH2 0x10BD JUMPI DUP3 SWAP1 SUB PUSH1 0x1F AND DUP3 ADD SWAP2 JUMPDEST POP POP POP POP POP SWAP1 POP DUP9 JUMP JUMPDEST PUSH0 PUSH1 0x1 PUSH0 DUP5 DUP2 MSTORE PUSH1 0x20 ADD SWAP1 DUP2 MSTORE PUSH1 0x20 ADD PUSH0 KECCAK256 PUSH0 ADD PUSH0 DUP4 PUSH20 0xFFFFFFFFFFFFFFFFFFFFFFFFFFFFFFFFFFFFFFFF AND PUSH20 0xFFFFFFFFFFFFFFFFFFFFFFFFFFFFFFFFFFFFFFFF AND DUP2 MSTORE PUSH1 0x20 ADD SWAP1 DUP2 MSTORE PUSH1 0x20 ADD PUSH0 KECCAK256 PUSH0 SWAP1 SLOAD SWAP1 PUSH2 0x100 EXP SWAP1 DIV PUSH1 0xFF AND SWAP1 POP SWAP3 SWAP2 POP POP JUMP JUMPDEST PUSH1 0x8 DUP2 DUP1 MLOAD PUSH1 0x20 DUP2 ADD DUP3 ADD DUP1 MLOAD DUP5 DUP3 MSTORE PUSH1 0x20 DUP4 ADD PUSH1 0x20 DUP6 ADD KECCAK256 DUP2 DUP4 MSTORE DUP1 SWAP6 POP POP POP POP POP POP PUSH0 SWAP2 POP SWAP1 POP SLOAD DUP2 JUMP JUMPDEST PUSH2 0x117D PUSH2 0x2BD7 JUMP JUMPDEST PUSH0 PUSH2 0x1186 PUSH2 0x2C24 JUMP JUMPDEST SWAP1 POP PUSH0 PUSH1 0x3 DUP3 PUSH1 0x40 MLOAD PUSH2 0x1199 SWAP2 SWAP1 PUSH2 0x458C JUMP JUMPDEST SWAP1 DUP2 MSTORE PUSH1 0x20 ADD PUSH1 0x40 MLOAD DUP1 SWAP2 SUB SWAP1 KECCAK256 SWAP1 POP PUSH1 0x1 PUSH1 0x4 DUP2 GT ISZERO PUSH2 0x11BD JUMPI PUSH2 0x11BC PUSH2 0x3E81 JUMP JUMPDEST JUMPDEST DUP2 PUSH1 0x5 ADD PUSH0 SWAP1 SLOAD SWAP1 PUSH2 0x100 EXP SWAP1 DIV PUSH1 0xFF AND PUSH1 0x4 DUP2 GT ISZERO PUSH2 0x11E0 JUMPI PUSH2 0x11DF PUSH2 0x3E81 JUMP JUMPDEST JUMPDEST EQ DUP1 PUSH2 0x1220 JUMPI POP PUSH1 0x2 PUSH1 0x4 DUP2 GT ISZERO PUSH2 0x11FB JUMPI PUSH2 0x11FA PUSH2 0x3E81 JUMP JUMPDEST JUMPDEST DUP2 PUSH1 0x5 ADD PUSH0 SWAP1 SLOAD SWAP1 PUSH2 0x100 EXP SWAP1 DIV PUSH1 0xFF AND PUSH1 0x4 DUP2 GT ISZERO PUSH2 0x121E JUMPI PUSH2 0x121D PUSH2 0x3E81 JUMP JUMPDEST JUMPDEST EQ JUMPDEST PUSH2 0x125F JUMPI PUSH1 0x40 MLOAD PUSH32 0x8C379A000000000000000000000000000000000000000000000000000000000 DUP2 MSTORE PUSH1 0x4 ADD PUSH2 0x1256 SWAP1 PUSH2 0x4AC7 JUMP JUMPDEST PUSH1 0x40 MLOAD DUP1 SWAP2 SUB SWAP1 REVERT JUMPDEST PUSH1 0x3 DUP2 PUSH1 0x5 ADD PUSH0 PUSH2 0x100 EXP DUP2 SLOAD DUP2 PUSH1 0xFF MUL NOT AND SWAP1 DUP4 PUSH1 0x4 DUP2 GT ISZERO PUSH2 0x1286 JUMPI PUSH2 0x1285 PUSH2 0x3E81 JUMP JUMPDEST JUMPDEST MUL OR SWAP1 SSTORE POP PUSH3 0x93A80 TIMESTAMP PUSH2 0x129A SWAP2 SWAP1 PUSH2 0x4B12 JUMP JUMPDEST PUSH1 0x8 DUP4 PUSH1 0x40 MLOAD PUSH2 0x12AA SWAP2 SWAP1 PUSH2 0x458C JUMP JUMPDEST SWAP1 DUP2 MSTORE PUSH1 0x20 ADD PUSH1 0x40 MLOAD DUP1 SWAP2 SUB SWAP1 KECCAK256 DUP2 SWAP1 SSTORE POP PUSH2 0x12C5 DUP3 PUSH2 0x2F8C JUMP JUMPDEST DUP2 PUSH1 0x40 MLOAD PUSH2 0x12D3 SWAP2 SWAP1 PUSH2 0x458C JUMP JUMPDEST PUSH1 0x40 MLOAD DUP1 SWAP2 SUB SWAP1 KECCAK256 PUSH32 0xD005EFBA581BF54897413DC0B34DED7ECDD656A834779273F92DF07E086C2311 PUSH1 0x8 DUP5 PUSH1 0x40 MLOAD PUSH2 0x130C SWAP2 SWAP1 PUSH2 0x458C JUMP JUMPDEST SWAP1 DUP2 MSTORE PUSH1 0x20 ADD PUSH1 0x40 MLOAD DUP1 SWAP2 SUB SWAP1 KECCAK256 SLOAD TIMESTAMP PUSH1 0x40 MLOAD PUSH2 0x132A SWAP3 SWAP2 SWAP1 PUSH2 0x4B45 JUMP JUMPDEST PUSH1 0x40 MLOAD DUP1 SWAP2 SUB SWAP1 LOG2 POP POP PUSH2 0x133C PUSH2 0x2D95 JUMP JUMPDEST JUMP JUMPDEST PUSH0 DUP1 SHL DUP2 JUMP JUMPDEST PUSH2 0x134C PUSH2 0x2BD7 JUMP JUMPDEST PUSH0 PUSH2 0x1355 PUSH2 0x2C24 JUMP JUMPDEST SWAP1 POP PUSH0 PUSH1 0x3 DUP3 PUSH1 0x40 MLOAD PUSH2 0x1368 SWAP2 SWAP1 PUSH2 0x458C JUMP JUMPDEST SWAP1 DUP2 MSTORE PUSH1 0x20 ADD PUSH1 0x40 MLOAD DUP1 SWAP2 SUB SWAP1 KECCAK256 SWAP1 POP PUSH0 PUSH1 0x8 DUP4 PUSH1 0x40 MLOAD PUSH2 0x1389 SWAP2 SWAP1 PUSH2 0x458C JUMP JUMPDEST SWAP1 DUP2 MSTORE PUSH1 0x20 ADD PUSH1 0x40 MLOAD DUP1 SWAP2 SUB SWAP1 KECCAK256 SLOAD SWAP1 POP PUSH1 0x3 PUSH1 0x4 DUP2 GT ISZERO PUSH2 0x13AE JUMPI PUSH2 0x13AD PUSH2 0x3E81 JUMP JUMPDEST JUMPDEST DUP3 PUSH1 0x5 ADD PUSH0 SWAP1 SLOAD SWAP1 PUSH2 0x100 EXP SWAP1 DIV PUSH1 0xFF AND PUSH1 0x4 DUP2 GT ISZERO PUSH2 0x13D1 JUMPI PUSH2 0x13D0 PUSH2 0x3E81 JUMP JUMPDEST JUMPDEST EQ PUSH2 0x1411 JUMPI PUSH1 0x40 MLOAD PUSH32 0x8C379A000000000000000000000000000000000000000000000000000000000 DUP2 MSTORE PUSH1 0x4 ADD PUSH2 0x1408 SWAP1 PUSH2 0x4BB6 JUMP JUMPDEST PUSH1 0x40 MLOAD DUP1 SWAP2 SUB SWAP1 REVERT JUMPDEST DUP1 TIMESTAMP LT ISZERO PUSH2 0x1454 JUMPI PUSH1 0x40 MLOAD PUSH32 0x8C379A000000000000000000000000000000000000000000000000000000000 DUP2 MSTORE PUSH1 0x4 ADD PUSH2 0x144B SWAP1 PUSH2 0x4C44 JUMP JUMPDEST PUSH1 0x40 MLOAD DUP1 SWAP2 SUB SWAP1 REVERT JUMPDEST PUSH0 DUP3 PUSH1 0x2 ADD SLOAD GT PUSH2 0x149A JUMPI PUSH1 0x40 MLOAD PUSH32 0x8C379A000000000000000000000000000000000000000000000000000000000 DUP2 MSTORE PUSH1 0x4 ADD PUSH2 0x1491 SWAP1 PUSH2 0x4CAC JUMP JUMPDEST PUSH1 0x40 MLOAD DUP1 SWAP2 SUB SWAP1 REVERT JUMPDEST PUSH0 DUP3 PUSH1 0x2 ADD SLOAD SWAP1 POP PUSH0 DUP4 PUSH1 0x2 ADD DUP2 SWAP1 SSTORE POP PUSH1 0x8 DUP5 PUSH1 0x40 MLOAD PUSH2 0x14BB SWAP2 SWAP1 PUSH2 0x458C JUMP JUMPDEST SWAP1 DUP2 MSTORE PUSH1 0x20 ADD PUSH1 0x40 MLOAD DUP1 SWAP2 SUB SWAP1 KECCAK256 PUSH0 SWAP1 SSTORE PUSH0 CALLER PUSH20 0xFFFFFFFFFFFFFFFFFFFFFFFFFFFFFFFFFFFFFFFF AND DUP3 PUSH1 0x40 MLOAD PUSH2 0x14F1 SWAP1 PUSH2 0x37CF JUMP JUMPDEST PUSH0 PUSH1 0x40 MLOAD DUP1 DUP4 SUB DUP2 DUP6 DUP8 GAS CALL SWAP3 POP POP POP RETURNDATASIZE DUP1 PUSH0 DUP2 EQ PUSH2 0x152B JUMPI PUSH1 0x40 MLOAD SWAP2 POP PUSH1 0x1F NOT PUSH1 0x3F RETURNDATASIZE ADD AND DUP3 ADD PUSH1 0x40 MSTORE RETURNDATASIZE DUP3 MSTORE RETURNDATASIZE PUSH0 PUSH1 0x20 DUP5 ADD RETURNDATACOPY PUSH2 0x1530 JUMP JUMPDEST PUSH1 0x60 SWAP2 POP JUMPDEST POP POP SWAP1 POP DUP1 PUSH2 0x1574 JUMPI PUSH1 0x40 MLOAD PUSH32 0x8C379A000000000000000000000000000000000000000000000000000000000 DUP2 MSTORE PUSH1 0x4 ADD PUSH2 0x156B SWAP1 PUSH2 0x4D14 JUMP JUMPDEST PUSH1 0x40 MLOAD DUP1 SWAP2 SUB SWAP1 REVERT JUMPDEST DUP5 PUSH1 0x40 MLOAD PUSH2 0x1582 SWAP2 SWAP1 PUSH2 0x458C JUMP JUMPDEST PUSH1 0x40 MLOAD DUP1 SWAP2 SUB SWAP1 KECCAK256 PUSH32 0xD0F857B3B0CFC3FD40A2410848AFEF3121302FB24875935E554FED8FB8128C95 DUP4 TIMESTAMP PUSH1 0x40 MLOAD PUSH2 0x15BB SWAP3 SWAP2 SWAP1 PUSH2 0x4B45 JUMP JUMPDEST PUSH1 0x40 MLOAD DUP1 SWAP2 SUB SWAP1 LOG2 POP POP POP POP POP PUSH2 0x15D0 PUSH2 0x2D95 JUMP JUMPDEST JUMP JUMPDEST PUSH1 0x2 SLOAD DUP2 JUMP JUMPDEST PUSH1 0x60 PUSH2 0x15E2 PUSH2 0x2BD7 JUMP JUMPDEST PUSH1 0x30 DUP10 DUP10 SWAP1 POP EQ PUSH2 0x1628 JUMPI PUSH1 0x40 MLOAD PUSH32 0x8C379A000000000000000000000000000000000000000000000000000000000 DUP2 MSTORE PUSH1 0x4 ADD PUSH2 0x161F SWAP1 PUSH2 0x4DA2 JUMP JUMPDEST PUSH1 0x40 MLOAD DUP1 SWAP2 SUB SWAP1 REVERT JUMPDEST PUSH1 0x60 DUP6 DUP6 SWAP1 POP EQ PUSH2 0x166E JUMPI PUSH1 0x40 MLOAD PUSH32 0x8C379A000000000000000000000000000000000000000000000000000000000 DUP2 MSTORE PUSH1 0x4 ADD PUSH2 0x1665 SWAP1 PUSH2 0x4E30 JUMP JUMPDEST PUSH1 0x40 MLOAD DUP1 SWAP2 SUB SWAP1 REVERT JUMPDEST PUSH2 0x172C PUSH1 0x4 DUP11 DUP11 PUSH1 0x40 MLOAD PUSH2 0x1683 SWAP3 SWAP2 SWAP1 PUSH2 0x4E72 JUMP JUMPDEST SWAP1 DUP2 MSTORE PUSH1 0x20 ADD PUSH1 0x40 MLOAD DUP1 SWAP2 SUB SWAP1 KECCAK256 DUP1 SLOAD PUSH2 0x169C SWAP1 PUSH2 0x47BB JUMP JUMPDEST DUP1 PUSH1 0x1F ADD PUSH1 0x20 DUP1 SWAP2 DIV MUL PUSH1 0x20 ADD PUSH1 0x40 MLOAD SWAP1 DUP2 ADD PUSH1 0x40 MSTORE DUP1 SWAP3 SWAP2 SWAP1 DUP2 DUP2 MSTORE PUSH1 0x20 ADD DUP3 DUP1 SLOAD PUSH2 0x16C8 SWAP1 PUSH2 0x47BB JUMP JUMPDEST DUP1 ISZERO PUSH2 0x1713 JUMPI DUP1 PUSH1 0x1F LT PUSH2 0x16EA JUMPI PUSH2 0x100 DUP1 DUP4 SLOAD DIV MUL DUP4 MSTORE SWAP2 PUSH1 0x20 ADD SWAP2 PUSH2 0x1713 JUMP JUMPDEST DUP3 ADD SWAP2 SWAP1 PUSH0 MSTORE PUSH1 0x20 PUSH0 KECCAK256 SWAP1 JUMPDEST DUP2 SLOAD DUP2 MSTORE SWAP1 PUSH1 0x1 ADD SWAP1 PUSH1 0x20 ADD DUP1 DUP4 GT PUSH2 0x16F6 JUMPI DUP3 SWAP1 SUB PUSH1 0x1F AND DUP3 ADD SWAP2 JUMPDEST POP POP POP POP POP PUSH1 0x40 MLOAD DUP1 PUSH1 0x20 ADD PUSH1 0x40 MSTORE DUP1 PUSH0 DUP2 MSTORE POP PUSH2 0x3112 JUMP JUMPDEST PUSH2 0x176B JUMPI PUSH1 0x40 MLOAD PUSH32 0x8C379A000000000000000000000000000000000000000000000000000000000 DUP2 MSTORE PUSH1 0x4 ADD PUSH2 0x1762 SWAP1 PUSH2 0x4ED4 JUMP JUMPDEST PUSH1 0x40 MLOAD DUP1 SWAP2 SUB SWAP1 REVERT JUMPDEST PUSH0 PUSH1 0x2 DUP11 DUP11 DUP10 PUSH1 0x40 MLOAD PUSH1 0x20 ADD PUSH2 0x1783 SWAP4 SWAP3 SWAP2 SWAP1 PUSH2 0x4EF2 JUMP JUMPDEST PUSH1 0x40 MLOAD PUSH1 0x20 DUP2 DUP4 SUB SUB DUP2 MSTORE SWAP1 PUSH1 0x40 MSTORE PUSH1 0x40 MLOAD PUSH2 0x179F SWAP2 SWAP1 PUSH2 0x44A5 JUMP JUMPDEST PUSH1 0x20 PUSH1 0x40 MLOAD DUP1 DUP4 SUB DUP2 DUP6 GAS STATICCALL ISZERO DUP1 ISZERO PUSH2 0x17BA JUMPI RETURNDATASIZE PUSH0 DUP1 RETURNDATACOPY RETURNDATASIZE PUSH0 REVERT JUMPDEST POP POP POP PUSH1 0x40 MLOAD RETURNDATASIZE PUSH1 0x1F NOT PUSH1 0x1F DUP3 ADD AND DUP3 ADD DUP1 PUSH1 0x40 MSTORE POP DUP2 ADD SWAP1 PUSH2 0x17DD SWAP2 SWAP1 PUSH2 0x44CF JUMP JUMPDEST SWAP1 POP DUP1 DUP9 EQ PUSH2 0x1821 JUMPI PUSH1 0x40 MLOAD PUSH32 0x8C379A000000000000000000000000000000000000000000000000000000000 DUP2 MSTORE PUSH1 0x4 ADD PUSH2 0x1818 SWAP1 PUSH2 0x4F8B JUMP JUMPDEST PUSH1 0x40 MLOAD DUP1 SWAP2 SUB SWAP1 REVERT JUMPDEST PUSH0 PUSH1 0x2 DUP12 DUP12 DUP12 DUP12 PUSH1 0x40 MLOAD PUSH1 0x20 ADD PUSH2 0x183B SWAP5 SWAP4 SWAP3 SWAP2 SWAP1 PUSH2 0x4FA9 JUMP JUMPDEST PUSH1 0x40 MLOAD PUSH1 0x20 DUP2 DUP4 SUB SUB DUP2 MSTORE SWAP1 PUSH1 0x40 MSTORE PUSH1 0x40 MLOAD PUSH2 0x1857 SWAP2 SWAP1 PUSH2 0x44A5 JUMP JUMPDEST PUSH1 0x20 PUSH1 0x40 MLOAD DUP1 DUP4 SUB DUP2 DUP6 GAS STATICCALL ISZERO DUP1 ISZERO PUSH2 0x1872 JUMPI RETURNDATASIZE PUSH0 DUP1 RETURNDATACOPY RETURNDATASIZE PUSH0 REVERT JUMPDEST POP POP POP PUSH1 0x40 MLOAD RETURNDATASIZE PUSH1 0x1F NOT PUSH1 0x1F DUP3 ADD AND DUP3 ADD DUP1 PUSH1 0x40 MSTORE POP DUP2 ADD SWAP1 PUSH2 0x1895 SWAP2 SWAP1 PUSH2 0x44CF JUMP JUMPDEST SWAP1 POP PUSH2 0x1928 DUP12 DUP12 DUP1 DUP1 PUSH1 0x1F ADD PUSH1 0x20 DUP1 SWAP2 DIV MUL PUSH1 0x20 ADD PUSH1 0x40 MLOAD SWAP1 DUP2 ADD PUSH1 0x40 MSTORE DUP1 SWAP4 SWAP3 SWAP2 SWAP1 DUP2 DUP2 MSTORE PUSH1 0x20 ADD DUP4 DUP4 DUP1 DUP3 DUP5 CALLDATACOPY PUSH0 DUP2 DUP5 ADD MSTORE PUSH1 0x1F NOT PUSH1 0x1F DUP3 ADD AND SWAP1 POP DUP1 DUP4 ADD SWAP3 POP POP POP POP POP POP POP DUP3 DUP10 DUP10 DUP1 DUP1 PUSH1 0x1F ADD PUSH1 0x20 DUP1 SWAP2 DIV MUL PUSH1 0x20 ADD PUSH1 0x40 MLOAD SWAP1 DUP2 ADD PUSH1 0x40 MSTORE DUP1 SWAP4 SWAP3 SWAP2 SWAP1 DUP2 DUP2 MSTORE PUSH1 0x20 ADD DUP4 DUP4 DUP1 DUP3 DUP5 CALLDATACOPY PUSH0 DUP2 DUP5 ADD MSTORE PUSH1 0x1F NOT PUSH1 0x1F DUP3 ADD AND SWAP1 POP DUP1 DUP4 ADD SWAP3 POP POP POP POP POP POP POP PUSH2 0x8AC JUMP JUMPDEST PUSH2 0x1967 JUMPI PUSH1 0x40 MLOAD PUSH32 0x8C379A000000000000000000000000000000000000000000000000000000000 DUP2 MSTORE PUSH1 0x4 ADD PUSH2 0x195E SWAP1 PUSH2 0x502D JUMP JUMPDEST PUSH1 0x40 MLOAD DUP1 SWAP2 SUB SWAP1 REVERT JUMPDEST PUSH1 0x2 SLOAD CALLVALUE LT ISZERO PUSH2 0x19AC JUMPI PUSH1 0x40 MLOAD PUSH32 0x8C379A000000000000000000000000000000000000000000000000000000000 DUP2 MSTORE PUSH1 0x4 ADD PUSH2 0x19A3 SWAP1 PUSH2 0x50BB JUMP JUMPDEST PUSH1 0x40 MLOAD DUP1 SWAP2 SUB SWAP1 REVERT JUMPDEST PUSH1 0x40 MLOAD DUP1 PUSH1 0x40 ADD PUSH1 0x40 MSTORE DUP1 PUSH1 0x9 DUP2 MSTORE PUSH1 0x20 ADD PUSH32 0x6469643A657468723A0000000000000000000000000000000000000000000000 DUP2 MSTORE POP PUSH2 0x1A0B PUSH32 0x0 PUSH2 0x312C JUMP JUMPDEST PUSH2 0x1A14 DUP12 PUSH2 0x342D JUMP JUMPDEST PUSH1 0x40 MLOAD PUSH1 0x20 ADD PUSH2 0x1A26 SWAP4 SWAP3 SWAP2 SWAP1 PUSH2 0x5123 JUMP JUMPDEST PUSH1 0x40 MLOAD PUSH1 0x20 DUP2 DUP4 SUB SUB DUP2 MSTORE SWAP1 PUSH1 0x40 MSTORE SWAP3 POP PUSH0 PUSH1 0x3 DUP5 PUSH1 0x40 MLOAD PUSH2 0x1A48 SWAP2 SWAP1 PUSH2 0x458C JUMP JUMPDEST SWAP1 DUP2 MSTORE PUSH1 0x20 ADD PUSH1 0x40 MLOAD DUP1 SWAP2 SUB SWAP1 KECCAK256 POP PUSH1 0x20 PUSH1 0xFF AND EQ PUSH2 0x1A9C JUMPI PUSH1 0x40 MLOAD PUSH32 0x8C379A000000000000000000000000000000000000000000000000000000000 DUP2 MSTORE PUSH1 0x4 ADD PUSH2 0x1A93 SWAP1 PUSH2 0x51A8 JUMP JUMPDEST PUSH1 0x40 MLOAD DUP1 SWAP2 SUB SWAP1 REVERT JUMPDEST PUSH1 0x40 MLOAD DUP1 PUSH2 0x100 ADD PUSH1 0x40 MSTORE DUP1 DUP13 DUP13 DUP1 DUP1 PUSH1 0x1F ADD PUSH1 0x20 DUP1 SWAP2 DIV MUL PUSH1 0x20 ADD PUSH1 0x40 MLOAD SWAP1 DUP2 ADD PUSH1 0x40 MSTORE DUP1 SWAP4 SWAP3 SWAP2 SWAP1 DUP2 DUP2 MSTORE PUSH1 0x20 ADD DUP4 DUP4 DUP1 DUP3 DUP5 CALLDATACOPY PUSH0 DUP2 DUP5 ADD MSTORE PUSH1 0x1F NOT PUSH1 0x1F DUP3 ADD AND SWAP1 POP DUP1 DUP4 ADD SWAP3 POP POP POP POP POP POP POP DUP2 MSTORE PUSH1 0x20 ADD DUP11 DUP2 MSTORE PUSH1 0x20 ADD CALLVALUE DUP2 MSTORE PUSH1 0x20 ADD TIMESTAMP DUP2 MSTORE PUSH1 0x20 ADD TIMESTAMP DUP2 MSTORE PUSH1 0x20 ADD PUSH1 0x1 PUSH1 0x4 DUP2 GT ISZERO PUSH2 0x1B1D JUMPI PUSH2 0x1B1C PUSH2 0x3E81 JUMP JUMPDEST JUMPDEST DUP2 MSTORE PUSH1 0x20 ADD PUSH0 DUP2 MSTORE PUSH1 0x20 ADD DUP7 DUP7 DUP1 DUP1 PUSH1 0x1F ADD PUSH1 0x20 DUP1 SWAP2 DIV MUL PUSH1 0x20 ADD PUSH1 0x40 MLOAD SWAP1 DUP2 ADD PUSH1 0x40 MSTORE DUP1 SWAP4 SWAP3 SWAP2 SWAP1 DUP2 DUP2 MSTORE PUSH1 0x20 ADD DUP4 DUP4 DUP1 DUP3 DUP5 CALLDATACOPY PUSH0 DUP2 DUP5 ADD MSTORE PUSH1 0x1F NOT PUSH1 0x1F DUP3 ADD AND SWAP1 POP DUP1 DUP4 ADD SWAP3 POP POP POP POP POP POP POP DUP2 MSTORE POP PUSH1 0x3 DUP5 PUSH1 0x40 MLOAD PUSH2 0x1B7F SWAP2 SWAP1 PUSH2 0x458C JUMP JUMPDEST SWAP1 DUP2 MSTORE PUSH1 0x20 ADD PUSH1 0x40 MLOAD DUP1 SWAP2 SUB SWAP1 KECCAK256 PUSH0 DUP3 ADD MLOAD DUP2 PUSH0 ADD SWAP1 DUP2 PUSH2 0x1BA0 SWAP2 SWAP1 PUSH2 0x521E JUMP JUMPDEST POP PUSH1 0x20 DUP3 ADD MLOAD DUP2 PUSH1 0x1 ADD SSTORE PUSH1 0x40 DUP3 ADD MLOAD DUP2 PUSH1 0x2 ADD SSTORE PUSH1 0x60 DUP3 ADD MLOAD DUP2 PUSH1 0x3 ADD SSTORE PUSH1 0x80 DUP3 ADD MLOAD DUP2 PUSH1 0x4 ADD SSTORE PUSH1 0xA0 DUP3 ADD MLOAD DUP2 PUSH1 0x5 ADD PUSH0 PUSH2 0x100 EXP DUP2 SLOAD DUP2 PUSH1 0xFF MUL NOT AND SWAP1 DUP4 PUSH1 0x4 DUP2 GT ISZERO PUSH2 0x1BF3 JUMPI PUSH2 0x1BF2 PUSH2 0x3E81 JUMP JUMPDEST JUMPDEST MUL OR SWAP1 SSTORE POP PUSH1 0xC0 DUP3 ADD MLOAD DUP2 PUSH1 0x6 ADD SSTORE PUSH1 0xE0 DUP3 ADD MLOAD DUP2 PUSH1 0x7 ADD SWAP1 DUP2 PUSH2 0x1C17 SWAP2 SWAP1 PUSH2 0x4988 JUMP JUMPDEST POP SWAP1 POP POP DUP3 PUSH1 0x4 DUP13 DUP13 PUSH1 0x40 MLOAD PUSH2 0x1C2E SWAP3 SWAP2 SWAP1 PUSH2 0x4E72 JUMP JUMPDEST SWAP1 DUP2 MSTORE PUSH1 0x20 ADD PUSH1 0x40 MLOAD DUP1 SWAP2 SUB SWAP1 KECCAK256 SWAP1 DUP2 PUSH2 0x1C48 SWAP2 SWAP1 PUSH2 0x4988 JUMP JUMPDEST POP PUSH1 0x5 PUSH0 CALLER PUSH20 0xFFFFFFFFFFFFFFFFFFFFFFFFFFFFFFFFFFFFFFFF AND PUSH20 0xFFFFFFFFFFFFFFFFFFFFFFFFFFFFFFFFFFFFFFFF AND DUP2 MSTORE PUSH1 0x20 ADD SWAP1 DUP2 MSTORE PUSH1 0x20 ADD PUSH0 KECCAK256 DUP4 SWAP1 DUP1 PUSH1 0x1 DUP2 SLOAD ADD DUP1 DUP3 SSTORE DUP1 SWAP2 POP POP PUSH1 0x1 SWAP1 SUB SWAP1 PUSH0 MSTORE PUSH1 0x20 PUSH0 KECCAK256 ADD PUSH0 SWAP1 SWAP2 SWAP1 SWAP2 SWAP1 SWAP2 POP SWAP1 DUP2 PUSH2 0x1CB5 SWAP2 SWAP1 PUSH2 0x4988 JUMP JUMPDEST POP PUSH0 PUSH1 0x9 DUP1 SLOAD SWAP1 POP SWAP1 POP PUSH1 0x9 DUP5 SWAP1 DUP1 PUSH1 0x1 DUP2 SLOAD ADD DUP1 DUP3 SSTORE DUP1 SWAP2 POP POP PUSH1 0x1 SWAP1 SUB SWAP1 PUSH0 MSTORE PUSH1 0x20 PUSH0 KECCAK256 ADD PUSH0 SWAP1 SWAP2 SWAP1 SWAP2 SWAP1 SWAP2 POP SWAP1 DUP2 PUSH2 0x1CF0 SWAP2 SWAP1 PUSH2 0x4988 JUMP JUMPDEST POP DUP1 PUSH1 0x6 DUP6 PUSH1 0x40 MLOAD PUSH2 0x1D02 SWAP2 SWAP1 PUSH2 0x458C JUMP JUMPDEST SWAP1 DUP2 MSTORE PUSH1 0x20 ADD PUSH1 0x40 MLOAD DUP1 SWAP2 SUB SWAP1 KECCAK256 DUP2 SWAP1 SSTORE POP DUP12 DUP12 PUSH1 0x40 MLOAD PUSH2 0x1D24 SWAP3 SWAP2 SWAP1 PUSH2 0x4E72 JUMP JUMPDEST PUSH1 0x40 MLOAD DUP1 SWAP2 SUB SWAP1 KECCAK256 DUP5 PUSH1 0x40 MLOAD PUSH2 0x1D3A SWAP2 SWAP1 PUSH2 0x458C JUMP JUMPDEST PUSH1 0x40 MLOAD DUP1 SWAP2 SUB SWAP1 KECCAK256 PUSH32 0xAD530FE6C369284575ED65FBB752871CE30BB2C70308406B82FCD493DC289E54 CALLVALUE TIMESTAMP PUSH1 0x40 MLOAD PUSH2 0x1D73 SWAP3 SWAP2 SWAP1 PUSH2 0x4B45 JUMP JUMPDEST PUSH1 0x40 MLOAD DUP1 SWAP2 SUB SWAP1 LOG3 POP POP POP PUSH2 0x1D86 PUSH2 0x2D95 JUMP JUMPDEST SWAP9 SWAP8 POP POP POP POP POP POP POP POP JUMP JUMPDEST PUSH1 0x3 DUP2 JUMP JUMPDEST PUSH3 0x93A80 DUP2 JUMP JUMPDEST PUSH2 0x1DA7 DUP3 PUSH2 0xAC9 JUMP JUMPDEST PUSH2 0x1DB0 DUP2 PUSH2 0x2D9E JUMP JUMPDEST PUSH2 0x1DBA DUP4 DUP4 PUSH2 0x2EA2 JUMP JUMPDEST POP POP POP POP JUMP JUMPDEST PUSH1 0x9 DUP2 DUP2 SLOAD DUP2 LT PUSH2 0x1DCF JUMPI PUSH0 DUP1 REVERT JUMPDEST SWAP1 PUSH0 MSTORE PUSH1 0x20 PUSH0 KECCAK256 ADD PUSH0 SWAP2 POP SWAP1 POP DUP1 SLOAD PUSH2 0x1DE7 SWAP1 PUSH2 0x47BB JUMP JUMPDEST DUP1 PUSH1 0x1F ADD PUSH1 0x20 DUP1 SWAP2 DIV MUL PUSH1 0x20 ADD PUSH1 0x40 MLOAD SWAP1 DUP2 ADD PUSH1 0x40 MSTORE DUP1 SWAP3 SWAP2 SWAP1 DUP2 DUP2 MSTORE PUSH1 0x20 ADD DUP3 DUP1 SLOAD PUSH2 0x1E13 SWAP1 PUSH2 0x47BB JUMP JUMPDEST DUP1 ISZERO PUSH2 0x1E5E JUMPI DUP1 PUSH1 0x1F LT PUSH2 0x1E35 JUMPI PUSH2 0x100 DUP1 DUP4 SLOAD DIV MUL DUP4 MSTORE SWAP2 PUSH1 0x20 ADD SWAP2 PUSH2 0x1E5E JUMP JUMPDEST DUP3 ADD SWAP2 SWAP1 PUSH0 MSTORE PUSH1 0x20 PUSH0 KECCAK256 SWAP1 JUMPDEST DUP2 SLOAD DUP2 MSTORE SWAP1 PUSH1 0x1 ADD SWAP1 PUSH1 0x20 ADD DUP1 DUP4 GT PUSH2 0x1E41 JUMPI DUP3 SWAP1 SUB PUSH1 0x1F AND DUP3 ADD SWAP2 JUMPDEST POP POP POP POP POP DUP2 JUMP JUMPDEST PUSH32 0xC1B6B25172765141D53BDEC489E447C8B55159182799C48F41F9F454FBB17016 PUSH2 0x1E90 DUP2 PUSH2 0x2D9E JUMP JUMPDEST PUSH2 0x1E98 PUSH2 0x2BD7 JUMP JUMPDEST PUSH0 PUSH1 0x3 DUP7 DUP7 PUSH1 0x40 MLOAD PUSH2 0x1EAB SWAP3 SWAP2 SWAP1 PUSH2 0x5311 JUMP JUMPDEST SWAP1 DUP2 MSTORE PUSH1 0x20 ADD PUSH1 0x40 MLOAD DUP1 SWAP2 SUB SWAP1 KECCAK256 SWAP1 POP PUSH0 PUSH1 0x20 PUSH1 0xFF AND GT PUSH2 0x1F01 JUMPI PUSH1 0x40 MLOAD PUSH32 0x8C379A000000000000000000000000000000000000000000000000000000000 DUP2 MSTORE PUSH1 0x4 ADD PUSH2 0x1EF8 SWAP1 PUSH2 0x5373 JUMP JUMPDEST PUSH1 0x40 MLOAD DUP1 SWAP2 SUB SWAP1 REVERT JUMPDEST PUSH1 0x4 DUP1 DUP2 GT ISZERO PUSH2 0x1F14 JUMPI PUSH2 0x1F13 PUSH2 0x3E81 JUMP JUMPDEST JUMPDEST DUP2 PUSH1 0x5 ADD PUSH0 SWAP1 SLOAD SWAP1 PUSH2 0x100 EXP SWAP1 DIV PUSH1 0xFF AND PUSH1 0x4 DUP2 GT ISZERO PUSH2 0x1F37 JUMPI PUSH2 0x1F36 PUSH2 0x3E81 JUMP JUMPDEST JUMPDEST SUB PUSH2 0x1F77 JUMPI PUSH1 0x40 MLOAD PUSH32 0x8C379A000000000000000000000000000000000000000000000000000000000 DUP2 MSTORE PUSH1 0x4 ADD PUSH2 0x1F6E SWAP1 PUSH2 0x53DB JUMP JUMPDEST PUSH1 0x40 MLOAD DUP1 SWAP2 SUB SWAP1 REVERT JUMPDEST PUSH1 0x1 DUP2 PUSH1 0x6 ADD PUSH0 DUP3 DUP3 SLOAD PUSH2 0x1F8B SWAP2 SWAP1 PUSH2 0x4B12 JUMP JUMPDEST SWAP3 POP POP DUP2 SWAP1 SSTORE POP PUSH0 DUP2 PUSH1 0x6 ADD SLOAD SWAP1 POP PUSH1 0x3 DUP2 LT PUSH2 0x1FF6 JUMPI PUSH1 0x4 DUP3 PUSH1 0x5 ADD PUSH0 PUSH2 0x100 EXP DUP2 SLOAD DUP2 PUSH1 0xFF MUL NOT AND SWAP1 DUP4 PUSH1 0x4 DUP2 GT ISZERO PUSH2 0x1FC9 JUMPI PUSH2 0x1FC8 PUSH2 0x3E81 JUMP JUMPDEST JUMPDEST MUL OR SWAP1 SSTORE POP PUSH1 0x7 DUP8 DUP8 PUSH1 0x40 MLOAD PUSH2 0x1FE0 SWAP3 SWAP2 SWAP1 PUSH2 0x5311 JUMP JUMPDEST SWAP1 DUP2 MSTORE PUSH1 0x20 ADD PUSH1 0x40 MLOAD DUP1 SWAP2 SUB SWAP1 KECCAK256 PUSH0 SWAP1 SSTORE PUSH2 0x2056 JUMP JUMPDEST PUSH1 0x2 DUP3 PUSH1 0x5 ADD PUSH0 PUSH2 0x100 EXP DUP2 SLOAD DUP2 PUSH1 0xFF MUL NOT AND SWAP1 DUP4 PUSH1 0x4 DUP2 GT ISZERO PUSH2 0x201D JUMPI PUSH2 0x201C PUSH2 0x3E81 JUMP JUMPDEST JUMPDEST MUL OR SWAP1 SSTORE POP PUSH3 0x3F480 TIMESTAMP PUSH2 0x2031 SWAP2 SWAP1 PUSH2 0x4B12 JUMP JUMPDEST PUSH1 0x7 DUP9 DUP9 PUSH1 0x40 MLOAD PUSH2 0x2043 SWAP3 SWAP2 SWAP1 PUSH2 0x5311 JUMP JUMPDEST SWAP1 DUP2 MSTORE PUSH1 0x20 ADD PUSH1 0x40 MLOAD DUP1 SWAP2 SUB SWAP1 KECCAK256 DUP2 SWAP1 SSTORE POP JUMPDEST PUSH0 DUP3 PUSH1 0x2 ADD SLOAD SWAP1 POP PUSH0 DUP4 PUSH1 0x2 ADD DUP2 SWAP1 SSTORE POP CALLER PUSH20 0xFFFFFFFFFFFFFFFFFFFFFFFFFFFFFFFFFFFFFFFF AND PUSH2 0x8FC DUP3 SWAP1 DUP2 ISZERO MUL SWAP1 PUSH1 0x40 MLOAD PUSH0 PUSH1 0x40 MLOAD DUP1 DUP4 SUB DUP2 DUP6 DUP9 DUP9 CALL SWAP4 POP POP POP POP ISZERO DUP1 ISZERO PUSH2 0x20AA JUMPI RETURNDATASIZE PUSH0 DUP1 RETURNDATACOPY RETURNDATASIZE PUSH0 REVERT JUMPDEST POP PUSH2 0x20F7 DUP9 DUP9 DUP1 DUP1 PUSH1 0x1F ADD PUSH1 0x20 DUP1 SWAP2 DIV MUL PUSH1 0x20 ADD PUSH1 0x40 MLOAD SWAP1 DUP2 ADD PUSH1 0x40 MSTORE DUP1 SWAP4 SWAP3 SWAP2 SWAP1 DUP2 DUP2 MSTORE PUSH1 0x20 ADD DUP4 DUP4 DUP1 DUP3 DUP5 CALLDATACOPY PUSH0 DUP2 DUP5 ADD MSTORE PUSH1 0x1F NOT PUSH1 0x1F DUP3 ADD AND SWAP1 POP DUP1 DUP4 ADD SWAP3 POP POP POP POP POP POP POP PUSH2 0x2F8C JUMP JUMPDEST DUP8 DUP8 PUSH1 0x40 MLOAD PUSH2 0x2107 SWAP3 SWAP2 SWAP1 PUSH2 0x5311 JUMP JUMPDEST PUSH1 0x40 MLOAD DUP1 SWAP2 SUB SWAP1 KECCAK256 PUSH32 0xCD8F47FA8504C2E6D007B21EFCF790E2C60E1C6881B32ABBBF228B45FD19F9F2 DUP8 DUP8 DUP6 TIMESTAMP PUSH1 0x40 MLOAD PUSH2 0x2144 SWAP5 SWAP4 SWAP3 SWAP2 SWAP1 PUSH2 0x5425 JUMP JUMPDEST PUSH1 0x40 MLOAD DUP1 SWAP2 SUB SWAP1 LOG2 DUP8 DUP8 PUSH1 0x40 MLOAD PUSH2 0x215C SWAP3 SWAP2 SWAP1 PUSH2 0x5311 JUMP JUMPDEST PUSH1 0x40 MLOAD DUP1 SWAP2 SUB SWAP1 KECCAK256 PUSH32 0xB3E4532E494A043696BDD3D4B670EA16FB3412F7C13937F05ED0BA0A5D71E798 DUP3 TIMESTAMP PUSH1 0x40 MLOAD PUSH2 0x2195 SWAP3 SWAP2 SWAP1 PUSH2 0x4B45 JUMP JUMPDEST PUSH1 0x40 MLOAD DUP1 SWAP2 SUB SWAP1 LOG2 POP POP POP PUSH2 0x21A8 PUSH2 0x2D95 JUMP JUMPDEST POP POP POP POP POP JUMP JUMPDEST PUSH0 DUP1 SHL PUSH2 0x21BB DUP2 PUSH2 0x2D9E JUMP JUMPDEST PUSH0 DUP3 GT PUSH2 0x21FD JUMPI PUSH1 0x40 MLOAD PUSH32 0x8C379A000000000000000000000000000000000000000000000000000000000 DUP2 MSTORE PUSH1 0x4 ADD PUSH2 0x21F4 SWAP1 PUSH2 0x54AD JUMP JUMPDEST PUSH1 0x40 MLOAD DUP1 SWAP2 SUB SWAP1 REVERT JUMPDEST PUSH0 PUSH1 0x2 SLOAD SWAP1 POP DUP3 PUSH1 0x2 DUP2 SWAP1 SSTORE POP PUSH32 0x5DCE7EF1D777D2F057B53BE7D924C94CC81547A0AAC5AEBB1BCD4B1955F493C2 DUP2 DUP5 TIMESTAMP PUSH1 0x40 MLOAD PUSH2 0x223D SWAP4 SWAP3 SWAP2 SWAP1 PUSH2 0x54CB JUMP JUMPDEST PUSH1 0x40 MLOAD DUP1 SWAP2 SUB SWAP1 LOG1 POP POP POP JUMP JUMPDEST PUSH0 DUP1 PUSH1 0x3 DUP9 DUP9 PUSH1 0x40 MLOAD PUSH2 0x225E SWAP3 SWAP2 SWAP1 PUSH2 0x5311 JUMP JUMPDEST SWAP1 DUP2 MSTORE PUSH1 0x20 ADD PUSH1 0x40 MLOAD DUP1 SWAP2 SUB SWAP1 KECCAK256 SWAP1 POP PUSH0 PUSH1 0x20 PUSH1 0xFF AND GT PUSH2 0x22B4 JUMPI PUSH1 0x40 MLOAD PUSH32 0x8C379A000000000000000000000000000000000000000000000000000000000 DUP2 MSTORE PUSH1 0x4 ADD PUSH2 0x22AB SWAP1 PUSH2 0x5373 JUMP JUMPDEST PUSH1 0x40 MLOAD DUP1 SWAP2 SUB SWAP1 REVERT JUMPDEST PUSH1 0x1 PUSH1 0x4 DUP2 GT ISZERO PUSH2 0x22C8 JUMPI PUSH2 0x22C7 PUSH2 0x3E81 JUMP JUMPDEST JUMPDEST DUP2 PUSH1 0x5 ADD PUSH0 SWAP1 SLOAD SWAP1 PUSH2 0x100 EXP SWAP1 DIV PUSH1 0xFF AND PUSH1 0x4 DUP2 GT ISZERO PUSH2 0x22EB JUMPI PUSH2 0x22EA PUSH2 0x3E81 JUMP JUMPDEST JUMPDEST EQ PUSH2 0x232B JUMPI PUSH1 0x40 MLOAD PUSH32 0x8C379A000000000000000000000000000000000000000000000000000000000 DUP2 MSTORE PUSH1 0x4 ADD PUSH2 0x2322 SWAP1 PUSH2 0x5570 JUMP JUMPDEST PUSH1 0x40 MLOAD DUP1 SWAP2 SUB SWAP1 REVERT JUMPDEST PUSH0 TIMESTAMP SWAP1 POP PUSH1 0x4B DUP2 PUSH2 0x233C SWAP2 SWAP1 PUSH2 0x558E JUMP JUMPDEST DUP5 LT ISZERO DUP1 ISZERO PUSH2 0x2357 JUMPI POP PUSH1 0x4B DUP2 PUSH2 0x2353 SWAP2 SWAP1 PUSH2 0x4B12 JUMP JUMPDEST DUP5 GT ISZERO JUMPDEST PUSH2 0x2396 JUMPI PUSH1 0x40 MLOAD PUSH32 0x8C379A000000000000000000000000000000000000000000000000000000000 DUP2 MSTORE PUSH1 0x4 ADD PUSH2 0x238D SWAP1 PUSH2 0x5631 JUMP JUMPDEST PUSH1 0x40 MLOAD DUP1 SWAP2 SUB SWAP1 REVERT JUMPDEST PUSH0 PUSH1 0x2 DUP11 DUP11 DUP9 DUP9 PUSH1 0x40 MLOAD PUSH1 0x20 ADD PUSH2 0x23B0 SWAP5 SWAP4 SWAP3 SWAP2 SWAP1 PUSH2 0x566F JUMP JUMPDEST PUSH1 0x40 MLOAD PUSH1 0x20 DUP2 DUP4 SUB SUB DUP2 MSTORE SWAP1 PUSH1 0x40 MSTORE PUSH1 0x40 MLOAD PUSH2 0x23CC SWAP2 SWAP1 PUSH2 0x44A5 JUMP JUMPDEST PUSH1 0x20 PUSH1 0x40 MLOAD DUP1 DUP4 SUB DUP2 DUP6 GAS STATICCALL ISZERO DUP1 ISZERO PUSH2 0x23E7 JUMPI RETURNDATASIZE PUSH0 DUP1 RETURNDATACOPY RETURNDATASIZE PUSH0 REVERT JUMPDEST POP POP POP PUSH1 0x40 MLOAD RETURNDATASIZE PUSH1 0x1F NOT PUSH1 0x1F DUP3 ADD AND DUP3 ADD DUP1 PUSH1 0x40 MSTORE POP DUP2 ADD SWAP1 PUSH2 0x240A SWAP2 SWAP1 PUSH2 0x44CF JUMP JUMPDEST SWAP1 POP PUSH2 0x24E3 DUP4 PUSH0 ADD DUP1 SLOAD PUSH2 0x241D SWAP1 PUSH2 0x47BB JUMP JUMPDEST DUP1 PUSH1 0x1F ADD PUSH1 0x20 DUP1 SWAP2 DIV MUL PUSH1 0x20 ADD PUSH1 0x40 MLOAD SWAP1 DUP2 ADD PUSH1 0x40 MSTORE DUP1 SWAP3 SWAP2 SWAP1 DUP2 DUP2 MSTORE PUSH1 0x20 ADD DUP3 DUP1 SLOAD PUSH2 0x2449 SWAP1 PUSH2 0x47BB JUMP JUMPDEST DUP1 ISZERO PUSH2 0x2494 JUMPI DUP1 PUSH1 0x1F LT PUSH2 0x246B JUMPI PUSH2 0x100 DUP1 DUP4 SLOAD DIV MUL DUP4 MSTORE SWAP2 PUSH1 0x20 ADD SWAP2 PUSH2 0x2494 JUMP JUMPDEST DUP3 ADD SWAP2 SWAP1 PUSH0 MSTORE PUSH1 0x20 PUSH0 KECCAK256 SWAP1 JUMPDEST DUP2 SLOAD DUP2 MSTORE SWAP1 PUSH1 0x1 ADD SWAP1 PUSH1 0x20 ADD DUP1 DUP4 GT PUSH2 0x2477 JUMPI DUP3 SWAP1 SUB PUSH1 0x1F AND DUP3 ADD SWAP2 JUMPDEST POP POP POP POP POP DUP3 DUP11 DUP11 DUP1 DUP1 PUSH1 0x1F ADD PUSH1 0x20 DUP1 SWAP2 DIV MUL PUSH1 0x20 ADD PUSH1 0x40 MLOAD SWAP1 DUP2 ADD PUSH1 0x40 MSTORE DUP1 SWAP4 SWAP3 SWAP2 SWAP1 DUP2 DUP2 MSTORE PUSH1 0x20 ADD DUP4 DUP4 DUP1 DUP3 DUP5 CALLDATACOPY PUSH0 DUP2 DUP5 ADD MSTORE PUSH1 0x1F NOT PUSH1 0x1F DUP3 ADD AND SWAP1 POP DUP1 DUP4 ADD SWAP3 POP POP POP POP POP POP POP PUSH2 0x8AC JUMP JUMPDEST PUSH2 0x2522 JUMPI PUSH1 0x40 MLOAD PUSH32 0x8C379A000000000000000000000000000000000000000000000000000000000 DUP2 MSTORE PUSH1 0x4 ADD PUSH2 0x2519 SWAP1 PUSH2 0x56F3 JUMP JUMPDEST PUSH1 0x40 MLOAD DUP1 SWAP2 SUB SWAP1 REVERT JUMPDEST PUSH1 0x2 SLOAD DUP4 PUSH1 0x2 ADD SLOAD LT ISZERO PUSH2 0x256B JUMPI PUSH1 0x40 MLOAD PUSH32 0x8C379A000000000000000000000000000000000000000000000000000000000 DUP2 MSTORE PUSH1 0x4 ADD PUSH2 0x2562 SWAP1 PUSH2 0x575B JUMP JUMPDEST PUSH1 0x40 MLOAD DUP1 SWAP2 SUB SWAP1 REVERT JUMPDEST DUP10 DUP10 PUSH1 0x40 MLOAD PUSH2 0x257B SWAP3 SWAP2 SWAP1 PUSH2 0x5311 JUMP JUMPDEST PUSH1 0x40 MLOAD DUP1 SWAP2 SUB SWAP1 KECCAK256 PUSH32 0xA3D75DA3B30EACEA2316361580F28EDC7A78686829C94690D100616A71058CE8 PUSH1 0x1 TIMESTAMP PUSH1 0x40 MLOAD PUSH2 0x25B5 SWAP3 SWAP2 SWAP1 PUSH2 0x5779 JUMP JUMPDEST PUSH1 0x40 MLOAD DUP1 SWAP2 SUB SWAP1 LOG2 PUSH1 0x1 SWAP4 POP POP POP POP SWAP7 SWAP6 POP POP POP POP POP POP JUMP JUMPDEST PUSH0 DUP1 SHL PUSH2 0x25DA DUP2 PUSH2 0x2D9E JUMP JUMPDEST PUSH0 PUSH20 0xFFFFFFFFFFFFFFFFFFFFFFFFFFFFFFFFFFFFFFFF AND DUP3 PUSH20 0xFFFFFFFFFFFFFFFFFFFFFFFFFFFFFFFFFFFFFFFF AND SUB PUSH2 0x2648 JUMPI PUSH1 0x40 MLOAD PUSH32 0x8C379A000000000000000000000000000000000000000000000000000000000 DUP2 MSTORE PUSH1 0x4 ADD PUSH2 0x263F SWAP1 PUSH2 0x5810 JUMP JUMPDEST PUSH1 0x40 MLOAD DUP1 SWAP2 SUB SWAP1 REVERT JUMPDEST PUSH2 0x2672 PUSH32 0xC1B6B25172765141D53BDEC489E447C8B55159182799C48F41F9F454FBB17016 DUP4 PUSH2 0xD6B JUMP JUMPDEST POP POP JUMP JUMPDEST PUSH32 0x0 DUP2 JUMP JUMPDEST PUSH3 0x3F480 DUP2 JUMP JUMPDEST PUSH2 0x26A9 PUSH2 0x2BD7 JUMP JUMPDEST PUSH1 0x30 DUP5 DUP5 SWAP1 POP EQ PUSH2 0x26EF JUMPI PUSH1 0x40 MLOAD PUSH32 0x8C379A000000000000000000000000000000000000000000000000000000000 DUP2 MSTORE PUSH1 0x4 ADD PUSH2 0x26E6 SWAP1 PUSH2 0x589E JUMP JUMPDEST PUSH1 0x40 MLOAD DUP1 SWAP2 SUB SWAP1 REVERT JUMPDEST PUSH1 0x60 DUP3 DUP3 SWAP1 POP EQ PUSH2 0x2735 JUMPI PUSH1 0x40 MLOAD PUSH32 0x8C379A000000000000000000000000000000000000000000000000000000000 DUP2 MSTORE PUSH1 0x4 ADD PUSH2 0x272C SWAP1 PUSH2 0x592C JUMP JUMPDEST PUSH1 0x40 MLOAD DUP1 SWAP2 SUB SWAP1 REVERT JUMPDEST PUSH2 0x27F3 PUSH1 0x4 DUP6 DUP6 PUSH1 0x40 MLOAD PUSH2 0x274A SWAP3 SWAP2 SWAP1 PUSH2 0x4E72 JUMP JUMPDEST SWAP1 DUP2 MSTORE PUSH1 0x20 ADD PUSH1 0x40 MLOAD DUP1 SWAP2 SUB SWAP1 KECCAK256 DUP1 SLOAD PUSH2 0x2763 SWAP1 PUSH2 0x47BB JUMP JUMPDEST DUP1 PUSH1 0x1F ADD PUSH1 0x20 DUP1 SWAP2 DIV MUL PUSH1 0x20 ADD PUSH1 0x40 MLOAD SWAP1 DUP2 ADD PUSH1 0x40 MSTORE DUP1 SWAP3 SWAP2 SWAP1 DUP2 DUP2 MSTORE PUSH1 0x20 ADD DUP3 DUP1 SLOAD PUSH2 0x278F SWAP1 PUSH2 0x47BB JUMP JUMPDEST DUP1 ISZERO PUSH2 0x27DA JUMPI DUP1 PUSH1 0x1F LT PUSH2 0x27B1 JUMPI PUSH2 0x100 DUP1 DUP4 SLOAD DIV MUL DUP4 MSTORE SWAP2 PUSH1 0x20 ADD SWAP2 PUSH2 0x27DA JUMP JUMPDEST DUP3 ADD SWAP2 SWAP1 PUSH0 MSTORE PUSH1 0x20 PUSH0 KECCAK256 SWAP1 JUMPDEST DUP2 SLOAD DUP2 MSTORE SWAP1 PUSH1 0x1 ADD SWAP1 PUSH1 0x20 ADD DUP1 DUP4 GT PUSH2 0x27BD JUMPI DUP3 SWAP1 SUB PUSH1 0x1F AND DUP3 ADD SWAP2 JUMPDEST POP POP POP POP POP PUSH1 0x40 MLOAD DUP1 PUSH1 0x20 ADD PUSH1 0x40 MSTORE DUP1 PUSH0 DUP2 MSTORE POP PUSH2 0x3112 JUMP JUMPDEST PUSH2 0x2832 JUMPI PUSH1 0x40 MLOAD PUSH32 0x8C379A000000000000000000000000000000000000000000000000000000000 DUP2 MSTORE PUSH1 0x4 ADD PUSH2 0x2829 SWAP1 PUSH2 0x59BA JUMP JUMPDEST PUSH1 0x40 MLOAD DUP1 SWAP2 SUB SWAP1 REVERT JUMPDEST PUSH0 PUSH2 0x283B PUSH2 0x2C24 JUMP JUMPDEST SWAP1 POP PUSH0 PUSH1 0x3 DUP3 PUSH1 0x40 MLOAD PUSH2 0x284E SWAP2 SWAP1 PUSH2 0x458C JUMP JUMPDEST SWAP1 DUP2 MSTORE PUSH1 0x20 ADD PUSH1 0x40 MLOAD DUP1 SWAP2 SUB SWAP1 KECCAK256 SWAP1 POP PUSH0 DUP2 PUSH0 ADD DUP1 SLOAD PUSH2 0x286D SWAP1 PUSH2 0x47BB JUMP JUMPDEST DUP1 PUSH1 0x1F ADD PUSH1 0x20 DUP1 SWAP2 DIV MUL PUSH1 0x20 ADD PUSH1 0x40 MLOAD SWAP1 DUP2 ADD PUSH1 0x40 MSTORE DUP1 SWAP3 SWAP2 SWAP1 DUP2 DUP2 MSTORE PUSH1 0x20 ADD DUP3 DUP1 SLOAD PUSH2 0x2899 SWAP1 PUSH2 0x47BB JUMP JUMPDEST DUP1 ISZERO PUSH2 0x28E4 JUMPI DUP1 PUSH1 0x1F LT PUSH2 0x28BB JUMPI PUSH2 0x100 DUP1 DUP4 SLOAD DIV MUL DUP4 MSTORE SWAP2 PUSH1 0x20 ADD SWAP2 PUSH2 0x28E4 JUMP JUMPDEST DUP3 ADD SWAP2 SWAP1 PUSH0 MSTORE PUSH1 0x20 PUSH0 KECCAK256 SWAP1 JUMPDEST DUP2 SLOAD DUP2 MSTORE SWAP1 PUSH1 0x1 ADD SWAP1 PUSH1 0x20 ADD DUP1 DUP4 GT PUSH2 0x28C7 JUMPI DUP3 SWAP1 SUB PUSH1 0x1F AND DUP3 ADD SWAP2 JUMPDEST POP POP POP POP POP SWAP1 POP PUSH0 PUSH1 0x2 DUP5 DUP10 DUP10 PUSH1 0x40 MLOAD PUSH1 0x20 ADD PUSH2 0x2903 SWAP4 SWAP3 SWAP2 SWAP1 PUSH2 0x59D8 JUMP JUMPDEST PUSH1 0x40 MLOAD PUSH1 0x20 DUP2 DUP4 SUB SUB DUP2 MSTORE SWAP1 PUSH1 0x40 MSTORE PUSH1 0x40 MLOAD PUSH2 0x291F SWAP2 SWAP1 PUSH2 0x44A5 JUMP JUMPDEST PUSH1 0x20 PUSH1 0x40 MLOAD DUP1 DUP4 SUB DUP2 DUP6 GAS STATICCALL ISZERO DUP1 ISZERO PUSH2 0x293A JUMPI RETURNDATASIZE PUSH0 DUP1 RETURNDATACOPY RETURNDATASIZE PUSH0 REVERT JUMPDEST POP POP POP PUSH1 0x40 MLOAD RETURNDATASIZE PUSH1 0x1F NOT PUSH1 0x1F DUP3 ADD AND DUP3 ADD DUP1 PUSH1 0x40 MSTORE POP DUP2 ADD SWAP1 PUSH2 0x295D SWAP2 SWAP1 PUSH2 0x44CF JUMP JUMPDEST SWAP1 POP PUSH2 0x29AD DUP3 DUP3 DUP9 DUP9 DUP1 DUP1 PUSH1 0x1F ADD PUSH1 0x20 DUP1 SWAP2 DIV MUL PUSH1 0x20 ADD PUSH1 0x40 MLOAD SWAP1 DUP2 ADD PUSH1 0x40 MSTORE DUP1 SWAP4 SWAP3 SWAP2 SWAP1 DUP2 DUP2 MSTORE PUSH1 0x20 ADD DUP4 DUP4 DUP1 DUP3 DUP5 CALLDATACOPY PUSH0 DUP2 DUP5 ADD MSTORE PUSH1 0x1F NOT PUSH1 0x1F DUP3 ADD AND SWAP1 POP DUP1 DUP4 ADD SWAP3 POP POP POP POP POP POP POP PUSH2 0x8AC JUMP JUMPDEST PUSH2 0x29EC JUMPI PUSH1 0x40 MLOAD PUSH32 0x8C379A000000000000000000000000000000000000000000000000000000000 DUP2 MSTORE PUSH1 0x4 ADD PUSH2 0x29E3 SWAP1 PUSH2 0x5A47 JUMP JUMPDEST PUSH1 0x40 MLOAD DUP1 SWAP2 SUB SWAP1 REVERT JUMPDEST PUSH1 0x4 DUP3 PUSH1 0x40 MLOAD PUSH2 0x29FC SWAP2 SWAP1 PUSH2 0x44A5 JUMP JUMPDEST SWAP1 DUP2 MSTORE PUSH1 0x20 ADD PUSH1 0x40 MLOAD DUP1 SWAP2 SUB SWAP1 KECCAK256 PUSH0 PUSH2 0x2A15 SWAP2 SWAP1 PUSH2 0x374A JUMP JUMPDEST DUP4 PUSH1 0x4 DUP10 DUP10 PUSH1 0x40 MLOAD PUSH2 0x2A28 SWAP3 SWAP2 SWAP1 PUSH2 0x4E72 JUMP JUMPDEST SWAP1 DUP2 MSTORE PUSH1 0x20 ADD PUSH1 0x40 MLOAD DUP1 SWAP2 SUB SWAP1 KECCAK256 SWAP1 DUP2 PUSH2 0x2A42 SWAP2 SWAP1 PUSH2 0x4988 JUMP JUMPDEST POP DUP8 DUP8 DUP5 PUSH0 ADD SWAP2 DUP3 PUSH2 0x2A55 SWAP3 SWAP2 SWAP1 PUSH2 0x5A6F JUMP JUMPDEST POP DUP4 PUSH1 0x40 MLOAD PUSH2 0x2A64 SWAP2 SWAP1 PUSH2 0x458C JUMP JUMPDEST PUSH1 0x40 MLOAD DUP1 SWAP2 SUB SWAP1 KECCAK256 PUSH32 0x9C224697DAD8634DA3612C158CDC1759D5161333FABE2A34E62ED8933FDCB699 DUP4 DUP11 DUP11 TIMESTAMP PUSH1 0x40 MLOAD PUSH2 0x2AA1 SWAP5 SWAP4 SWAP3 SWAP2 SWAP1 PUSH2 0x5B68 JUMP JUMPDEST PUSH1 0x40 MLOAD DUP1 SWAP2 SUB SWAP1 LOG2 POP POP POP POP PUSH2 0x2AB5 PUSH2 0x2D95 JUMP JUMPDEST POP POP POP POP JUMP JUMPDEST PUSH1 0x4 DUP2 DUP1 MLOAD PUSH1 0x20 DUP2 ADD DUP3 ADD DUP1 MLOAD DUP5 DUP3 MSTORE PUSH1 0x20 DUP4 ADD PUSH1 0x20 DUP6 ADD KECCAK256 DUP2 DUP4 MSTORE DUP1 SWAP6 POP POP POP POP POP POP PUSH0 SWAP2 POP SWAP1 POP DUP1 SLOAD PUSH2 0x2AEF SWAP1 PUSH2 0x47BB JUMP JUMPDEST DUP1 PUSH1 0x1F ADD PUSH1 0x20 DUP1 SWAP2 DIV MUL PUSH1 0x20 ADD PUSH1 0x40 MLOAD SWAP1 DUP2 ADD PUSH1 0x40 MSTORE DUP1 SWAP3 SWAP2 SWAP1 DUP2 DUP2 MSTORE PUSH1 0x20 ADD DUP3 DUP1 SLOAD PUSH2 0x2B1B SWAP1 PUSH2 0x47BB JUMP JUMPDEST DUP1 ISZERO PUSH2 0x2B66 JUMPI DUP1 PUSH1 0x1F LT PUSH2 0x2B3D JUMPI PUSH2 0x100 DUP1 DUP4 SLOAD DIV MUL DUP4 MSTORE SWAP2 PUSH1 0x20 ADD SWAP2 PUSH2 0x2B66 JUMP JUMPDEST DUP3 ADD SWAP2 SWAP1 PUSH0 MSTORE PUSH1 0x20 PUSH0 KECCAK256 SWAP1 JUMPDEST DUP2 SLOAD DUP2 MSTORE SWAP1 PUSH1 0x1 ADD SWAP1 PUSH1 0x20 ADD DUP1 DUP4 GT PUSH2 0x2B49 JUMPI DUP3 SWAP1 SUB PUSH1 0x1F AND DUP3 ADD SWAP2 JUMPDEST POP POP POP POP POP DUP2 JUMP JUMPDEST PUSH0 PUSH32 0x1FFC9A700000000000000000000000000000000000000000000000000000000 PUSH28 0xFFFFFFFFFFFFFFFFFFFFFFFFFFFFFFFFFFFFFFFFFFFFFFFFFFFFFFFF NOT AND DUP3 PUSH28 0xFFFFFFFFFFFFFFFFFFFFFFFFFFFFFFFFFFFFFFFFFFFFFFFFFFFFFFFF NOT AND EQ SWAP1 POP SWAP2 SWAP1 POP JUMP JUMPDEST PUSH1 0x2 PUSH0 SLOAD SUB PUSH2 0x2C1B JUMPI PUSH1 0x40 MLOAD PUSH32 0x8C379A000000000000000000000000000000000000000000000000000000000 DUP2 MSTORE PUSH1 0x4 ADD PUSH2 0x2C12 SWAP1 PUSH2 0x5BF7 JUMP JUMPDEST PUSH1 0x40 MLOAD DUP1 SWAP2 SUB SWAP1 REVERT JUMPDEST PUSH1 0x2 PUSH0 DUP2 SWAP1 SSTORE POP JUMP JUMPDEST PUSH1 0x60 PUSH0 PUSH1 0x5 PUSH0 CALLER PUSH20 0xFFFFFFFFFFFFFFFFFFFFFFFFFFFFFFFFFFFFFFFF AND PUSH20 0xFFFFFFFFFFFFFFFFFFFFFFFFFFFFFFFFFFFFFFFF AND DUP2 MSTORE PUSH1 0x20 ADD SWAP1 DUP2 MSTORE PUSH1 0x20 ADD PUSH0 KECCAK256 DUP1 SLOAD DUP1 PUSH1 0x20 MUL PUSH1 0x20 ADD PUSH1 0x40 MLOAD SWAP1 DUP2 ADD PUSH1 0x40 MSTORE DUP1 SWAP3 SWAP2 SWAP1 DUP2 DUP2 MSTORE PUSH1 0x20 ADD PUSH0 SWAP1 JUMPDEST DUP3 DUP3 LT ISZERO PUSH2 0x2D2B JUMPI DUP4 DUP3 SWAP1 PUSH0 MSTORE PUSH1 0x20 PUSH0 KECCAK256 ADD DUP1 SLOAD PUSH2 0x2CA0 SWAP1 PUSH2 0x47BB JUMP JUMPDEST DUP1 PUSH1 0x1F ADD PUSH1 0x20 DUP1 SWAP2 DIV MUL PUSH1 0x20 ADD PUSH1 0x40 MLOAD SWAP1 DUP2 ADD PUSH1 0x40 MSTORE DUP1 SWAP3 SWAP2 SWAP1 DUP2 DUP2 MSTORE PUSH1 0x20 ADD DUP3 DUP1 SLOAD PUSH2 0x2CCC SWAP1 PUSH2 0x47BB JUMP JUMPDEST DUP1 ISZERO PUSH2 0x2D17 JUMPI DUP1 PUSH1 0x1F LT PUSH2 0x2CEE JUMPI PUSH2 0x100 DUP1 DUP4 SLOAD DIV MUL DUP4 MSTORE SWAP2 PUSH1 0x20 ADD SWAP2 PUSH2 0x2D17 JUMP JUMPDEST DUP3 ADD SWAP2 SWAP1 PUSH0 MSTORE PUSH1 0x20 PUSH0 KECCAK256 SWAP1 JUMPDEST DUP2 SLOAD DUP2 MSTORE SWAP1 PUSH1 0x1 ADD SWAP1 PUSH1 0x20 ADD DUP1 DUP4 GT PUSH2 0x2CFA JUMPI DUP3 SWAP1 SUB PUSH1 0x1F AND DUP3 ADD SWAP2 JUMPDEST POP POP POP POP POP DUP2 MSTORE PUSH1 0x20 ADD SWAP1 PUSH1 0x1 ADD SWAP1 PUSH2 0x2C83 JUMP JUMPDEST POP POP POP POP SWAP1 POP PUSH0 DUP2 MLOAD GT PUSH2 0x2D74 JUMPI PUSH1 0x40 MLOAD PUSH32 0x8C379A000000000000000000000000000000000000000000000000000000000 DUP2 MSTORE PUSH1 0x4 ADD PUSH2 0x2D6B SWAP1 PUSH2 0x5C5F JUMP JUMPDEST PUSH1 0x40 MLOAD DUP1 SWAP2 SUB SWAP1 REVERT JUMPDEST DUP1 PUSH0 DUP2 MLOAD DUP2 LT PUSH2 0x2D87 JUMPI PUSH2 0x2D86 PUSH2 0x5C7D JUMP JUMPDEST JUMPDEST PUSH1 0x20 MUL PUSH1 0x20 ADD ADD MLOAD SWAP2 POP POP SWAP1 JUMP JUMPDEST PUSH1 0x1 PUSH0 DUP2 SWAP1 SSTORE POP JUMP JUMPDEST PUSH2 0x2DAF DUP2 PUSH2 0x2DAA PUSH2 0x2E9B JUMP JUMPDEST PUSH2 0x36F9 JUMP JUMPDEST POP JUMP JUMPDEST PUSH0 PUSH2 0x2DBD DUP4 DUP4 PUSH2 0x10E4 JUMP JUMPDEST PUSH2 0x2E91 JUMPI PUSH1 0x1 DUP1 PUSH0 DUP6 DUP2 MSTORE PUSH1 0x20 ADD SWAP1 DUP2 MSTORE PUSH1 0x20 ADD PUSH0 KECCAK256 PUSH0 ADD PUSH0 DUP5 PUSH20 0xFFFFFFFFFFFFFFFFFFFFFFFFFFFFFFFFFFFFFFFF AND PUSH20 0xFFFFFFFFFFFFFFFFFFFFFFFFFFFFFFFFFFFFFFFF AND DUP2 MSTORE PUSH1 0x20 ADD SWAP1 DUP2 MSTORE PUSH1 0x20 ADD PUSH0 KECCAK256 PUSH0 PUSH2 0x100 EXP DUP2 SLOAD DUP2 PUSH1 0xFF MUL NOT AND SWAP1 DUP4 ISZERO ISZERO MUL OR SWAP1 SSTORE POP PUSH2 0x2E2E PUSH2 0x2E9B JUMP JUMPDEST PUSH20 0xFFFFFFFFFFFFFFFFFFFFFFFFFFFFFFFFFFFFFFFF AND DUP3 PUSH20 0xFFFFFFFFFFFFFFFFFFFFFFFFFFFFFFFFFFFFFFFF AND DUP5 PUSH32 0x2F8788117E7EFF1D82E926EC794901D17C78024A50270940304540A733656F0D PUSH1 0x40 MLOAD PUSH1 0x40 MLOAD DUP1 SWAP2 SUB SWAP1 LOG4 PUSH1 0x1 SWAP1 POP PUSH2 0x2E95 JUMP JUMPDEST PUSH0 SWAP1 POP JUMPDEST SWAP3 SWAP2 POP POP JUMP JUMPDEST PUSH0 CALLER SWAP1 POP SWAP1 JUMP JUMPDEST PUSH0 PUSH2 0x2EAD DUP4 DUP4 PUSH2 0x10E4 JUMP JUMPDEST ISZERO PUSH2 0x2F82 JUMPI PUSH0 PUSH1 0x1 PUSH0 DUP6 DUP2 MSTORE PUSH1 0x20 ADD SWAP1 DUP2 MSTORE PUSH1 0x20 ADD PUSH0 KECCAK256 PUSH0 ADD PUSH0 DUP5 PUSH20 0xFFFFFFFFFFFFFFFFFFFFFFFFFFFFFFFFFFFFFFFF AND PUSH20 0xFFFFFFFFFFFFFFFFFFFFFFFFFFFFFFFFFFFFFFFF AND DUP2 MSTORE PUSH1 0x20 ADD SWAP1 DUP2 MSTORE PUSH1 0x20 ADD PUSH0 KECCAK256 PUSH0 PUSH2 0x100 EXP DUP2 SLOAD DUP2 PUSH1 0xFF MUL NOT AND SWAP1 DUP4 ISZERO ISZERO MUL OR SWAP1 SSTORE POP PUSH2 0x2F1F PUSH2 0x2E9B JUMP JUMPDEST PUSH20 0xFFFFFFFFFFFFFFFFFFFFFFFFFFFFFFFFFFFFFFFF AND DUP3 PUSH20 0xFFFFFFFFFFFFFFFFFFFFFFFFFFFFFFFFFFFFFFFF AND DUP5 PUSH32 0xF6391F5C32D9C69D2A47EA670B442974B53935D1EDC7FD64EB21E047A839171B PUSH1 0x40 MLOAD PUSH1 0x40 MLOAD DUP1 SWAP2 SUB SWAP1 LOG4 PUSH1 0x1 SWAP1 POP PUSH2 0x2F86 JUMP JUMPDEST PUSH0 SWAP1 POP JUMPDEST SWAP3 SWAP2 POP POP JUMP JUMPDEST PUSH0 PUSH1 0x6 DUP3 PUSH1 0x40 MLOAD PUSH2 0x2F9D SWAP2 SWAP1 PUSH2 0x458C JUMP JUMPDEST SWAP1 DUP2 MSTORE PUSH1 0x20 ADD PUSH1 0x40 MLOAD DUP1 SWAP2 SUB SWAP1 KECCAK256 SLOAD SWAP1 POP PUSH0 PUSH1 0x1 PUSH1 0x9 DUP1 SLOAD SWAP1 POP PUSH2 0x2FC1 SWAP2 SWAP1 PUSH2 0x558E JUMP JUMPDEST SWAP1 POP DUP1 DUP3 EQ PUSH2 0x30BF JUMPI PUSH0 PUSH1 0x9 DUP3 DUP2 SLOAD DUP2 LT PUSH2 0x2FDF JUMPI PUSH2 0x2FDE PUSH2 0x5C7D JUMP JUMPDEST JUMPDEST SWAP1 PUSH0 MSTORE PUSH1 0x20 PUSH0 KECCAK256 ADD DUP1 SLOAD PUSH2 0x2FF2 SWAP1 PUSH2 0x47BB JUMP JUMPDEST DUP1 PUSH1 0x1F ADD PUSH1 0x20 DUP1 SWAP2 DIV MUL PUSH1 0x20 ADD PUSH1 0x40 MLOAD SWAP1 DUP2 ADD PUSH1 0x40 MSTORE DUP1 SWAP3 SWAP2 SWAP1 DUP2 DUP2 MSTORE PUSH1 0x20 ADD DUP3 DUP1 SLOAD PUSH2 0x301E SWAP1 PUSH2 0x47BB JUMP JUMPDEST DUP1 ISZERO PUSH2 0x3069 JUMPI DUP1 PUSH1 0x1F LT PUSH2 0x3040 JUMPI PUSH2 0x100 DUP1 DUP4 SLOAD DIV MUL DUP4 MSTORE SWAP2 PUSH1 0x20 ADD SWAP2 PUSH2 0x3069 JUMP JUMPDEST DUP3 ADD SWAP2 SWAP1 PUSH0 MSTORE PUSH1 0x20 PUSH0 KECCAK256 SWAP1 JUMPDEST DUP2 SLOAD DUP2 MSTORE SWAP1 PUSH1 0x1 ADD SWAP1 PUSH1 0x20 ADD DUP1 DUP4 GT PUSH2 0x304C JUMPI DUP3 SWAP1 SUB PUSH1 0x1F AND DUP3 ADD SWAP2 JUMPDEST POP POP POP POP POP SWAP1 POP DUP1 PUSH1 0x9 DUP5 DUP2 SLOAD DUP2 LT PUSH2 0x3085 JUMPI PUSH2 0x3084 PUSH2 0x5C7D JUMP JUMPDEST JUMPDEST SWAP1 PUSH0 MSTORE PUSH1 0x20 PUSH0 KECCAK256 ADD SWAP1 DUP2 PUSH2 0x3099 SWAP2 SWAP1 PUSH2 0x4988 JUMP JUMPDEST POP DUP3 PUSH1 0x6 DUP3 PUSH1 0x40 MLOAD PUSH2 0x30AB SWAP2 SWAP1 PUSH2 0x458C JUMP JUMPDEST SWAP1 DUP2 MSTORE PUSH1 0x20 ADD PUSH1 0x40 MLOAD DUP1 SWAP2 SUB SWAP1 KECCAK256 DUP2 SWAP1 SSTORE POP POP JUMPDEST PUSH1 0x9 DUP1 SLOAD DUP1 PUSH2 0x30D1 JUMPI PUSH2 0x30D0 PUSH2 0x5CAA JUMP JUMPDEST JUMPDEST PUSH1 0x1 SWAP1 SUB DUP2 DUP2 SWAP1 PUSH0 MSTORE PUSH1 0x20 PUSH0 KECCAK256 ADD PUSH0 PUSH2 0x30EA SWAP2 SWAP1 PUSH2 0x374A JUMP JUMPDEST SWAP1 SSTORE PUSH1 0x6 DUP4 PUSH1 0x40 MLOAD PUSH2 0x30FC SWAP2 SWAP1 PUSH2 0x458C JUMP JUMPDEST SWAP1 DUP2 MSTORE PUSH1 0x20 ADD PUSH1 0x40 MLOAD DUP1 SWAP2 SUB SWAP1 KECCAK256 PUSH0 SWAP1 SSTORE POP POP POP JUMP JUMPDEST PUSH0 DUP2 DUP1 MLOAD SWAP1 PUSH1 0x20 ADD KECCAK256 DUP4 DUP1 MLOAD SWAP1 PUSH1 0x20 ADD KECCAK256 EQ SWAP1 POP SWAP3 SWAP2 POP POP JUMP JUMPDEST PUSH1 0x60 PUSH0 DUP3 PUSH20 0xFFFFFFFFFFFFFFFFFFFFFFFFFFFFFFFFFFFFFFFF AND PUSH0 SHL SWAP1 POP PUSH0 PUSH1 0x40 MLOAD DUP1 PUSH1 0x40 ADD PUSH1 0x40 MSTORE DUP1 PUSH1 0x10 DUP2 MSTORE PUSH1 0x20 ADD PUSH32 0x3031323334353637383961626364656600000000000000000000000000000000 DUP2 MSTORE POP SWAP1 POP PUSH0 PUSH1 0x2A PUSH8 0xFFFFFFFFFFFFFFFF DUP2 GT ISZERO PUSH2 0x319F JUMPI PUSH2 0x319E PUSH2 0x395D JUMP JUMPDEST JUMPDEST PUSH1 0x40 MLOAD SWAP1 DUP1 DUP3 MSTORE DUP1 PUSH1 0x1F ADD PUSH1 0x1F NOT AND PUSH1 0x20 ADD DUP3 ADD PUSH1 0x40 MSTORE DUP1 ISZERO PUSH2 0x31D1 JUMPI DUP2 PUSH1 0x20 ADD PUSH1 0x1 DUP3 MUL DUP1 CALLDATASIZE DUP4 CALLDATACOPY DUP1 DUP3 ADD SWAP2 POP POP SWAP1 POP JUMPDEST POP SWAP1 POP PUSH32 0x3000000000000000000000000000000000000000000000000000000000000000 DUP2 PUSH0 DUP2 MLOAD DUP2 LT PUSH2 0x3208 JUMPI PUSH2 0x3207 PUSH2 0x5C7D JUMP JUMPDEST JUMPDEST PUSH1 0x20 ADD ADD SWAP1 PUSH31 0xFFFFFFFFFFFFFFFFFFFFFFFFFFFFFFFFFFFFFFFFFFFFFFFFFFFFFFFFFFFFFF NOT AND SWAP1 DUP2 PUSH0 BYTE SWAP1 MSTORE8 POP PUSH32 0x7800000000000000000000000000000000000000000000000000000000000000 DUP2 PUSH1 0x1 DUP2 MLOAD DUP2 LT PUSH2 0x326B JUMPI PUSH2 0x326A PUSH2 0x5C7D JUMP JUMPDEST JUMPDEST PUSH1 0x20 ADD ADD SWAP1 PUSH31 0xFFFFFFFFFFFFFFFFFFFFFFFFFFFFFFFFFFFFFFFFFFFFFFFFFFFFFFFFFFFFFF NOT AND SWAP1 DUP2 PUSH0 BYTE SWAP1 MSTORE8 POP PUSH0 JUMPDEST PUSH1 0x14 DUP2 LT ISZERO PUSH2 0x3421 JUMPI DUP3 PUSH1 0x4 DUP6 PUSH1 0xC DUP5 PUSH2 0x32B5 SWAP2 SWAP1 PUSH2 0x4B12 JUMP JUMPDEST PUSH1 0x20 DUP2 LT PUSH2 0x32C6 JUMPI PUSH2 0x32C5 PUSH2 0x5C7D JUMP JUMPDEST JUMPDEST BYTE PUSH1 0xF8 SHL PUSH31 0xFFFFFFFFFFFFFFFFFFFFFFFFFFFFFFFFFFFFFFFFFFFFFFFFFFFFFFFFFFFFFF NOT AND SWAP1 SHR PUSH1 0xF8 SHR PUSH1 0xFF AND DUP2 MLOAD DUP2 LT PUSH2 0x3305 JUMPI PUSH2 0x3304 PUSH2 0x5C7D JUMP JUMPDEST JUMPDEST PUSH1 0x20 ADD ADD MLOAD PUSH1 0xF8 SHR PUSH1 0xF8 SHL DUP3 PUSH1 0x2 DUP4 PUSH2 0x331E SWAP2 SWAP1 PUSH2 0x5CD7 JUMP JUMPDEST PUSH1 0x2 PUSH2 0x332A SWAP2 SWAP1 PUSH2 0x4B12 JUMP JUMPDEST DUP2 MLOAD DUP2 LT PUSH2 0x333B JUMPI PUSH2 0x333A PUSH2 0x5C7D JUMP JUMPDEST JUMPDEST PUSH1 0x20 ADD ADD SWAP1 PUSH31 0xFFFFFFFFFFFFFFFFFFFFFFFFFFFFFFFFFFFFFFFFFFFFFFFFFFFFFFFFFFFFFF NOT AND SWAP1 DUP2 PUSH0 BYTE SWAP1 MSTORE8 POP DUP3 PUSH1 0xF PUSH1 0xF8 SHL DUP6 PUSH1 0xC DUP5 PUSH2 0x337D SWAP2 SWAP1 PUSH2 0x4B12 JUMP JUMPDEST PUSH1 0x20 DUP2 LT PUSH2 0x338E JUMPI PUSH2 0x338D PUSH2 0x5C7D JUMP JUMPDEST JUMPDEST BYTE PUSH1 0xF8 SHL AND PUSH1 0xF8 SHR PUSH1 0xFF AND DUP2 MLOAD DUP2 LT PUSH2 0x33AA JUMPI PUSH2 0x33A9 PUSH2 0x5C7D JUMP JUMPDEST JUMPDEST PUSH1 0x20 ADD ADD MLOAD PUSH1 0xF8 SHR PUSH1 0xF8 SHL DUP3 PUSH1 0x2 DUP4 PUSH2 0x33C3 SWAP2 SWAP1 PUSH2 0x5CD7 JUMP JUMPDEST PUSH1 0x3 PUSH2 0x33CF SWAP2 SWAP1 PUSH2 0x4B12 JUMP JUMPDEST DUP2 MLOAD DUP2 LT PUSH2 0x33E0 JUMPI PUSH2 0x33DF PUSH2 0x5C7D JUMP JUMPDEST JUMPDEST PUSH1 0x20 ADD ADD SWAP1 PUSH31 0xFFFFFFFFFFFFFFFFFFFFFFFFFFFFFFFFFFFFFFFFFFFFFFFFFFFFFFFFFFFFFF NOT AND SWAP1 DUP2 PUSH0 BYTE SWAP1 MSTORE8 POP DUP1 DUP1 PUSH2 0x3419 SWAP1 PUSH2 0x5D18 JUMP JUMPDEST SWAP2 POP POP PUSH2 0x329B JUMP JUMPDEST POP DUP1 SWAP4 POP POP POP POP SWAP2 SWAP1 POP JUMP JUMPDEST PUSH1 0x60 PUSH0 PUSH1 0x40 MLOAD DUP1 PUSH1 0x40 ADD PUSH1 0x40 MSTORE DUP1 PUSH1 0x10 DUP2 MSTORE PUSH1 0x20 ADD PUSH32 0x3031323334353637383961626364656600000000000000000000000000000000 DUP2 MSTORE POP SWAP1 POP PUSH0 PUSH1 0x42 PUSH8 0xFFFFFFFFFFFFFFFF DUP2 GT ISZERO PUSH2 0x3484 JUMPI PUSH2 0x3483 PUSH2 0x395D JUMP JUMPDEST JUMPDEST PUSH1 0x40 MLOAD SWAP1 DUP1 DUP3 MSTORE DUP1 PUSH1 0x1F ADD PUSH1 0x1F NOT AND PUSH1 0x20 ADD DUP3 ADD PUSH1 0x40 MSTORE DUP1 ISZERO PUSH2 0x34B6 JUMPI DUP2 PUSH1 0x20 ADD PUSH1 0x1 DUP3 MUL DUP1 CALLDATASIZE DUP4 CALLDATACOPY DUP1 DUP3 ADD SWAP2 POP POP SWAP1 POP JUMPDEST POP SWAP1 POP PUSH32 0x3000000000000000000000000000000000000000000000000000000000000000 DUP2 PUSH0 DUP2 MLOAD DUP2 LT PUSH2 0x34ED JUMPI PUSH2 0x34EC PUSH2 0x5C7D JUMP JUMPDEST JUMPDEST PUSH1 0x20 ADD ADD SWAP1 PUSH31 0xFFFFFFFFFFFFFFFFFFFFFFFFFFFFFFFFFFFFFFFFFFFFFFFFFFFFFFFFFFFFFF NOT AND SWAP1 DUP2 PUSH0 BYTE SWAP1 MSTORE8 POP PUSH32 0x7800000000000000000000000000000000000000000000000000000000000000 DUP2 PUSH1 0x1 DUP2 MLOAD DUP2 LT PUSH2 0x3550 JUMPI PUSH2 0x354F PUSH2 0x5C7D JUMP JUMPDEST JUMPDEST PUSH1 0x20 ADD ADD SWAP1 PUSH31 0xFFFFFFFFFFFFFFFFFFFFFFFFFFFFFFFFFFFFFFFFFFFFFFFFFFFFFFFFFFFFFF NOT AND SWAP1 DUP2 PUSH0 BYTE SWAP1 MSTORE8 POP PUSH0 JUMPDEST PUSH1 0x20 DUP2 LT ISZERO PUSH2 0x36EE JUMPI DUP3 PUSH1 0x4 DUP7 DUP4 PUSH1 0x20 DUP2 LT PUSH2 0x359F JUMPI PUSH2 0x359E PUSH2 0x5C7D JUMP JUMPDEST JUMPDEST BYTE PUSH1 0xF8 SHL PUSH31 0xFFFFFFFFFFFFFFFFFFFFFFFFFFFFFFFFFFFFFFFFFFFFFFFFFFFFFFFFFFFFFF NOT AND SWAP1 SHR PUSH1 0xF8 SHR PUSH1 0xFF AND DUP2 MLOAD DUP2 LT PUSH2 0x35DE JUMPI PUSH2 0x35DD PUSH2 0x5C7D JUMP JUMPDEST JUMPDEST PUSH1 0x20 ADD ADD MLOAD PUSH1 0xF8 SHR PUSH1 0xF8 SHL DUP3 PUSH1 0x2 DUP4 PUSH2 0x35F7 SWAP2 SWAP1 PUSH2 0x5CD7 JUMP JUMPDEST PUSH1 0x2 PUSH2 0x3603 SWAP2 SWAP1 PUSH2 0x4B12 JUMP JUMPDEST DUP2 MLOAD DUP2 LT PUSH2 0x3614 JUMPI PUSH2 0x3613 PUSH2 0x5C7D JUMP JUMPDEST JUMPDEST PUSH1 0x20 ADD ADD SWAP1 PUSH31 0xFFFFFFFFFFFFFFFFFFFFFFFFFFFFFFFFFFFFFFFFFFFFFFFFFFFFFFFFFFFFFF NOT AND SWAP1 DUP2 PUSH0 BYTE SWAP1 MSTORE8 POP DUP3 PUSH1 0xF PUSH1 0xF8 SHL DUP7 DUP4 PUSH1 0x20 DUP2 LT PUSH2 0x365B JUMPI PUSH2 0x365A PUSH2 0x5C7D JUMP JUMPDEST JUMPDEST BYTE PUSH1 0xF8 SHL AND PUSH1 0xF8 SHR PUSH1 0xFF AND DUP2 MLOAD DUP2 LT PUSH2 0x3677 JUMPI PUSH2 0x3676 PUSH2 0x5C7D JUMP JUMPDEST JUMPDEST PUSH1 0x20 ADD ADD MLOAD PUSH1 0xF8 SHR PUSH1 0xF8 SHL DUP3 PUSH1 0x2 DUP4 PUSH2 0x3690 SWAP2 SWAP1 PUSH2 0x5CD7 JUMP JUMPDEST PUSH1 0x3 PUSH2 0x369C SWAP2 SWAP1 PUSH2 0x4B12 JUMP JUMPDEST DUP2 MLOAD DUP2 LT PUSH2 0x36AD JUMPI PUSH2 0x36AC PUSH2 0x5C7D JUMP JUMPDEST JUMPDEST PUSH1 0x20 ADD ADD SWAP1 PUSH31 0xFFFFFFFFFFFFFFFFFFFFFFFFFFFFFFFFFFFFFFFFFFFFFFFFFFFFFFFFFFFFFF NOT AND SWAP1 DUP2 PUSH0 BYTE SWAP1 MSTORE8 POP DUP1 DUP1 PUSH2 0x36E6 SWAP1 PUSH2 0x5D18 JUMP JUMPDEST SWAP2 POP POP PUSH2 0x3580 JUMP JUMPDEST POP DUP1 SWAP3 POP POP POP SWAP2 SWAP1 POP JUMP JUMPDEST PUSH2 0x3703 DUP3 DUP3 PUSH2 0x10E4 JUMP JUMPDEST PUSH2 0x3746 JUMPI DUP1 DUP3 PUSH1 0x40 MLOAD PUSH32 0xE2517D3F00000000000000000000000000000000000000000000000000000000 DUP2 MSTORE PUSH1 0x4 ADD PUSH2 0x373D SWAP3 SWAP2 SWAP1 PUSH2 0x5D5F JUMP JUMPDEST PUSH1 0x40 MLOAD DUP1 SWAP2 SUB SWAP1 REVERT JUMPDEST POP POP JUMP JUMPDEST POP DUP1 SLOAD PUSH2 0x3756 SWAP1 PUSH2 0x47BB JUMP JUMPDEST PUSH0 DUP3 SSTORE DUP1 PUSH1 0x1F LT PUSH2 0x3767 JUMPI POP PUSH2 0x3784 JUMP JUMPDEST PUSH1 0x1F ADD PUSH1 0x20 SWAP1 DIV SWAP1 PUSH0 MSTORE PUSH1 0x20 PUSH0 KECCAK256 SWAP1 DUP2 ADD SWAP1 PUSH2 0x3783 SWAP2 SWAP1 PUSH2 0x3787 JUMP JUMPDEST JUMPDEST POP JUMP JUMPDEST JUMPDEST DUP1 DUP3 GT ISZERO PUSH2 0x379E JUMPI PUSH0 DUP2 PUSH0 SWAP1 SSTORE POP PUSH1 0x1 ADD PUSH2 0x3788 JUMP JUMPDEST POP SWAP1 JUMP JUMPDEST PUSH0 DUP2 SWAP1 POP SWAP3 SWAP2 POP POP JUMP JUMPDEST POP JUMP JUMPDEST PUSH0 PUSH2 0x37BA PUSH0 DUP4 PUSH2 0x37A2 JUMP JUMPDEST SWAP2 POP PUSH2 0x37C5 DUP3 PUSH2 0x37AC JUMP JUMPDEST PUSH0 DUP3 ADD SWAP1 POP SWAP2 SWAP1 POP JUMP JUMPDEST PUSH0 PUSH2 0x37D9 DUP3 PUSH2 0x37AF JUMP JUMPDEST SWAP2 POP DUP2 SWAP1 POP SWAP2 SWAP1 POP JUMP JUMPDEST PUSH0 DUP3 DUP3 MSTORE PUSH1 0x20 DUP3 ADD SWAP1 POP SWAP3 SWAP2 POP POP JUMP JUMPDEST PUSH32 0x526566756E64206661696C656420666F72206163636964656E74616C20455448 PUSH0 DUP3 ADD MSTORE PUSH32 0x207472616E736665720000000000000000000000000000000000000000000000 PUSH1 0x20 DUP3 ADD MSTORE POP JUMP JUMPDEST PUSH0 PUSH2 0x384D PUSH1 0x29 DUP4 PUSH2 0x37E3 JUMP JUMPDEST SWAP2 POP PUSH2 0x3858 DUP3 PUSH2 0x37F3 JUMP JUMPDEST PUSH1 0x40 DUP3 ADD SWAP1 POP SWAP2 SWAP1 POP JUMP JUMPDEST PUSH0 PUSH1 0x20 DUP3 ADD SWAP1 POP DUP2 DUP2 SUB PUSH0 DUP4 ADD MSTORE PUSH2 0x387A DUP2 PUSH2 0x3841 JUMP JUMPDEST SWAP1 POP SWAP2 SWAP1 POP JUMP JUMPDEST PUSH0 PUSH1 0x40 MLOAD SWAP1 POP SWAP1 JUMP JUMPDEST PUSH0 DUP1 REVERT JUMPDEST PUSH0 DUP1 REVERT JUMPDEST PUSH0 PUSH32 0xFFFFFFFF00000000000000000000000000000000000000000000000000000000 DUP3 AND SWAP1 POP SWAP2 SWAP1 POP JUMP JUMPDEST PUSH2 0x38C6 DUP2 PUSH2 0x3892 JUMP JUMPDEST DUP2 EQ PUSH2 0x38D0 JUMPI PUSH0 DUP1 REVERT JUMPDEST POP JUMP JUMPDEST PUSH0 DUP2 CALLDATALOAD SWAP1 POP PUSH2 0x38E1 DUP2 PUSH2 0x38BD JUMP JUMPDEST SWAP3 SWAP2 POP POP JUMP JUMPDEST PUSH0 PUSH1 0x20 DUP3 DUP5 SUB SLT ISZERO PUSH2 0x38FC JUMPI PUSH2 0x38FB PUSH2 0x388A JUMP JUMPDEST JUMPDEST PUSH0 PUSH2 0x3909 DUP5 DUP3 DUP6 ADD PUSH2 0x38D3 JUMP JUMPDEST SWAP2 POP POP SWAP3 SWAP2 POP POP JUMP JUMPDEST PUSH0 DUP2 ISZERO ISZERO SWAP1 POP SWAP2 SWAP1 POP JUMP JUMPDEST PUSH2 0x3926 DUP2 PUSH2 0x3912 JUMP JUMPDEST DUP3 MSTORE POP POP JUMP JUMPDEST PUSH0 PUSH1 0x20 DUP3 ADD SWAP1 POP PUSH2 0x393F PUSH0 DUP4 ADD DUP5 PUSH2 0x391D JUMP JUMPDEST SWAP3 SWAP2 POP POP JUMP JUMPDEST PUSH0 DUP1 REVERT JUMPDEST PUSH0 DUP1 REVERT JUMPDEST PUSH0 PUSH1 0x1F NOT PUSH1 0x1F DUP4 ADD AND SWAP1 POP SWAP2 SWAP1 POP JUMP JUMPDEST PUSH32 0x4E487B7100000000000000000000000000000000000000000000000000000000 PUSH0 MSTORE PUSH1 0x41 PUSH1 0x4 MSTORE PUSH1 0x24 PUSH0 REVERT JUMPDEST PUSH2 0x3993 DUP3 PUSH2 0x394D JUMP JUMPDEST DUP2 ADD DUP2 DUP2 LT PUSH8 0xFFFFFFFFFFFFFFFF DUP3 GT OR ISZERO PUSH2 0x39B2 JUMPI PUSH2 0x39B1 PUSH2 0x395D JUMP JUMPDEST JUMPDEST DUP1 PUSH1 0x40 MSTORE POP POP POP JUMP JUMPDEST PUSH0 PUSH2 0x39C4 PUSH2 0x3881 JUMP JUMPDEST SWAP1 POP PUSH2 0x39D0 DUP3 DUP3 PUSH2 0x398A JUMP JUMPDEST SWAP2 SWAP1 POP JUMP JUMPDEST PUSH0 PUSH8 0xFFFFFFFFFFFFFFFF DUP3 GT ISZERO PUSH2 0x39EF JUMPI PUSH2 0x39EE PUSH2 0x395D JUMP JUMPDEST JUMPDEST PUSH2 0x39F8 DUP3 PUSH2 0x394D JUMP JUMPDEST SWAP1 POP PUSH1 0x20 DUP2 ADD SWAP1 POP SWAP2 SWAP1 POP JUMP JUMPDEST DUP3 DUP2 DUP4 CALLDATACOPY PUSH0 DUP4 DUP4 ADD MSTORE POP POP POP JUMP JUMPDEST PUSH0 PUSH2 0x3A25 PUSH2 0x3A20 DUP5 PUSH2 0x39D5 JUMP JUMPDEST PUSH2 0x39BB JUMP JUMPDEST SWAP1 POP DUP3 DUP2 MSTORE PUSH1 0x20 DUP2 ADD DUP5 DUP5 DUP5 ADD GT ISZERO PUSH2 0x3A41 JUMPI PUSH2 0x3A40 PUSH2 0x3949 JUMP JUMPDEST JUMPDEST PUSH2 0x3A4C DUP5 DUP3 DUP6 PUSH2 0x3A05 JUMP JUMPDEST POP SWAP4 SWAP3 POP POP POP JUMP JUMPDEST PUSH0 DUP3 PUSH1 0x1F DUP4 ADD SLT PUSH2 0x3A68 JUMPI PUSH2 0x3A67 PUSH2 0x3945 JUMP JUMPDEST JUMPDEST DUP2 CALLDATALOAD PUSH2 0x3A78 DUP5 DUP3 PUSH1 0x20 DUP7 ADD PUSH2 0x3A13 JUMP JUMPDEST SWAP2 POP POP SWAP3 SWAP2 POP POP JUMP JUMPDEST PUSH0 DUP2 SWAP1 POP SWAP2 SWAP1 POP JUMP JUMPDEST PUSH2 0x3A93 DUP2 PUSH2 0x3A81 JUMP JUMPDEST DUP2 EQ PUSH2 0x3A9D JUMPI PUSH0 DUP1 REVERT JUMPDEST POP JUMP JUMPDEST PUSH0 DUP2 CALLDATALOAD SWAP1 POP PUSH2 0x3AAE DUP2 PUSH2 0x3A8A JUMP JUMPDEST SWAP3 SWAP2 POP POP JUMP JUMPDEST PUSH0 DUP1 PUSH0 PUSH1 0x60 DUP5 DUP7 SUB SLT ISZERO PUSH2 0x3ACB JUMPI PUSH2 0x3ACA PUSH2 0x388A JUMP JUMPDEST JUMPDEST PUSH0 DUP5 ADD CALLDATALOAD PUSH8 0xFFFFFFFFFFFFFFFF DUP2 GT ISZERO PUSH2 0x3AE8 JUMPI PUSH2 0x3AE7 PUSH2 0x388E JUMP JUMPDEST JUMPDEST PUSH2 0x3AF4 DUP7 DUP3 DUP8 ADD PUSH2 0x3A54 JUMP JUMPDEST SWAP4 POP POP PUSH1 0x20 PUSH2 0x3B05 DUP7 DUP3 DUP8 ADD PUSH2 0x3AA0 JUMP JUMPDEST SWAP3 POP POP PUSH1 0x40 DUP5 ADD CALLDATALOAD PUSH8 0xFFFFFFFFFFFFFFFF DUP2 GT ISZERO PUSH2 0x3B26 JUMPI PUSH2 0x3B25 PUSH2 0x388E JUMP JUMPDEST JUMPDEST PUSH2 0x3B32 DUP7 DUP3 DUP8 ADD PUSH2 0x3A54 JUMP JUMPDEST SWAP2 POP POP SWAP3 POP SWAP3 POP SWAP3 JUMP JUMPDEST PUSH0 PUSH1 0x20 DUP3 DUP5 SUB SLT ISZERO PUSH2 0x3B51 JUMPI PUSH2 0x3B50 PUSH2 0x388A JUMP JUMPDEST JUMPDEST PUSH0 PUSH2 0x3B5E DUP5 DUP3 DUP6 ADD PUSH2 0x3AA0 JUMP JUMPDEST SWAP2 POP POP SWAP3 SWAP2 POP POP JUMP JUMPDEST PUSH2 0x3B70 DUP2 PUSH2 0x3A81 JUMP JUMPDEST DUP3 MSTORE POP POP JUMP JUMPDEST PUSH0 PUSH1 0x20 DUP3 ADD SWAP1 POP PUSH2 0x3B89 PUSH0 DUP4 ADD DUP5 PUSH2 0x3B67 JUMP JUMPDEST SWAP3 SWAP2 POP POP JUMP JUMPDEST PUSH0 PUSH20 0xFFFFFFFFFFFFFFFFFFFFFFFFFFFFFFFFFFFFFFFF DUP3 AND SWAP1 POP SWAP2 SWAP1 POP JUMP JUMPDEST PUSH0 PUSH2 0x3BB8 DUP3 PUSH2 0x3B8F JUMP JUMPDEST SWAP1 POP SWAP2 SWAP1 POP JUMP JUMPDEST PUSH2 0x3BC8 DUP2 PUSH2 0x3BAE JUMP JUMPDEST DUP2 EQ PUSH2 0x3BD2 JUMPI PUSH0 DUP1 REVERT JUMPDEST POP JUMP JUMPDEST PUSH0 DUP2 CALLDATALOAD SWAP1 POP PUSH2 0x3BE3 DUP2 PUSH2 0x3BBF JUMP JUMPDEST SWAP3 SWAP2 POP POP JUMP JUMPDEST PUSH0 DUP1 PUSH1 0x40 DUP4 DUP6 SUB SLT ISZERO PUSH2 0x3BFF JUMPI PUSH2 0x3BFE PUSH2 0x388A JUMP JUMPDEST JUMPDEST PUSH0 PUSH2 0x3C0C DUP6 DUP3 DUP7 ADD PUSH2 0x3AA0 JUMP JUMPDEST SWAP3 POP POP PUSH1 0x20 PUSH2 0x3C1D DUP6 DUP3 DUP7 ADD PUSH2 0x3BD5 JUMP JUMPDEST SWAP2 POP POP SWAP3 POP SWAP3 SWAP1 POP JUMP JUMPDEST PUSH0 DUP2 MLOAD SWAP1 POP SWAP2 SWAP1 POP JUMP JUMPDEST PUSH0 JUMPDEST DUP4 DUP2 LT ISZERO PUSH2 0x3C4E JUMPI DUP1 DUP3 ADD MLOAD DUP2 DUP5 ADD MSTORE PUSH1 0x20 DUP2 ADD SWAP1 POP PUSH2 0x3C33 JUMP JUMPDEST PUSH0 DUP5 DUP5 ADD MSTORE POP POP POP POP JUMP JUMPDEST PUSH0 PUSH2 0x3C63 DUP3 PUSH2 0x3C27 JUMP JUMPDEST PUSH2 0x3C6D DUP2 DUP6 PUSH2 0x37E3 JUMP JUMPDEST SWAP4 POP PUSH2 0x3C7D DUP2 DUP6 PUSH1 0x20 DUP7 ADD PUSH2 0x3C31 JUMP JUMPDEST PUSH2 0x3C86 DUP2 PUSH2 0x394D JUMP JUMPDEST DUP5 ADD SWAP2 POP POP SWAP3 SWAP2 POP POP JUMP JUMPDEST PUSH0 PUSH1 0x20 DUP3 ADD SWAP1 POP DUP2 DUP2 SUB PUSH0 DUP4 ADD MSTORE PUSH2 0x3CA9 DUP2 DUP5 PUSH2 0x3C59 JUMP JUMPDEST SWAP1 POP SWAP3 SWAP2 POP POP JUMP JUMPDEST PUSH0 PUSH8 0xFFFFFFFFFFFFFFFF DUP3 GT ISZERO PUSH2 0x3CCB JUMPI PUSH2 0x3CCA PUSH2 0x395D JUMP JUMPDEST JUMPDEST PUSH2 0x3CD4 DUP3 PUSH2 0x394D JUMP JUMPDEST SWAP1 POP PUSH1 0x20 DUP2 ADD SWAP1 POP SWAP2 SWAP1 POP JUMP JUMPDEST PUSH0 PUSH2 0x3CF3 PUSH2 0x3CEE DUP5 PUSH2 0x3CB1 JUMP JUMPDEST PUSH2 0x39BB JUMP JUMPDEST SWAP1 POP DUP3 DUP2 MSTORE PUSH1 0x20 DUP2 ADD DUP5 DUP5 DUP5 ADD GT ISZERO PUSH2 0x3D0F JUMPI PUSH2 0x3D0E PUSH2 0x3949 JUMP JUMPDEST JUMPDEST PUSH2 0x3D1A DUP5 DUP3 DUP6 PUSH2 0x3A05 JUMP JUMPDEST POP SWAP4 SWAP3 POP POP POP JUMP JUMPDEST PUSH0 DUP3 PUSH1 0x1F DUP4 ADD SLT PUSH2 0x3D36 JUMPI PUSH2 0x3D35 PUSH2 0x3945 JUMP JUMPDEST JUMPDEST DUP2 CALLDATALOAD PUSH2 0x3D46 DUP5 DUP3 PUSH1 0x20 DUP7 ADD PUSH2 0x3CE1 JUMP JUMPDEST SWAP2 POP POP SWAP3 SWAP2 POP POP JUMP JUMPDEST PUSH0 PUSH1 0x20 DUP3 DUP5 SUB SLT ISZERO PUSH2 0x3D64 JUMPI PUSH2 0x3D63 PUSH2 0x388A JUMP JUMPDEST JUMPDEST PUSH0 DUP3 ADD CALLDATALOAD PUSH8 0xFFFFFFFFFFFFFFFF DUP2 GT ISZERO PUSH2 0x3D81 JUMPI PUSH2 0x3D80 PUSH2 0x388E JUMP JUMPDEST JUMPDEST PUSH2 0x3D8D DUP5 DUP3 DUP6 ADD PUSH2 0x3D22 JUMP JUMPDEST SWAP2 POP POP SWAP3 SWAP2 POP POP JUMP JUMPDEST PUSH0 DUP2 SWAP1 POP SWAP2 SWAP1 POP JUMP JUMPDEST PUSH2 0x3DA8 DUP2 PUSH2 0x3D96 JUMP JUMPDEST DUP3 MSTORE POP POP JUMP JUMPDEST PUSH0 PUSH1 0x20 DUP3 ADD SWAP1 POP PUSH2 0x3DC1 PUSH0 DUP4 ADD DUP5 PUSH2 0x3D9F JUMP JUMPDEST SWAP3 SWAP2 POP POP JUMP JUMPDEST PUSH2 0x3DD0 DUP2 PUSH2 0x3D96 JUMP JUMPDEST DUP2 EQ PUSH2 0x3DDA JUMPI PUSH0 DUP1 REVERT JUMPDEST POP JUMP JUMPDEST PUSH0 DUP2 CALLDATALOAD SWAP1 POP PUSH2 0x3DEB DUP2 PUSH2 0x3DC7 JUMP JUMPDEST SWAP3 SWAP2 POP POP JUMP JUMPDEST PUSH0 DUP1 PUSH1 0x40 DUP4 DUP6 SUB SLT ISZERO PUSH2 0x3E07 JUMPI PUSH2 0x3E06 PUSH2 0x388A JUMP JUMPDEST JUMPDEST PUSH0 PUSH2 0x3E14 DUP6 DUP3 DUP7 ADD PUSH2 0x3BD5 JUMP JUMPDEST SWAP3 POP POP PUSH1 0x20 PUSH2 0x3E25 DUP6 DUP3 DUP7 ADD PUSH2 0x3DDD JUMP JUMPDEST SWAP2 POP POP SWAP3 POP SWAP3 SWAP1 POP JUMP JUMPDEST PUSH0 DUP2 MLOAD SWAP1 POP SWAP2 SWAP1 POP JUMP JUMPDEST PUSH0 DUP3 DUP3 MSTORE PUSH1 0x20 DUP3 ADD SWAP1 POP SWAP3 SWAP2 POP POP JUMP JUMPDEST PUSH0 PUSH2 0x3E53 DUP3 PUSH2 0x3E2F JUMP JUMPDEST PUSH2 0x3E5D DUP2 DUP6 PUSH2 0x3E39 JUMP JUMPDEST SWAP4 POP PUSH2 0x3E6D DUP2 DUP6 PUSH1 0x20 DUP7 ADD PUSH2 0x3C31 JUMP JUMPDEST PUSH2 0x3E76 DUP2 PUSH2 0x394D JUMP JUMPDEST DUP5 ADD SWAP2 POP POP SWAP3 SWAP2 POP POP JUMP JUMPDEST PUSH32 0x4E487B7100000000000000000000000000000000000000000000000000000000 PUSH0 MSTORE PUSH1 0x21 PUSH1 0x4 MSTORE PUSH1 0x24 PUSH0 REVERT JUMPDEST PUSH1 0x5 DUP2 LT PUSH2 0x3EBF JUMPI PUSH2 0x3EBE PUSH2 0x3E81 JUMP JUMPDEST JUMPDEST POP JUMP JUMPDEST PUSH0 DUP2 SWAP1 POP PUSH2 0x3ECF DUP3 PUSH2 0x3EAE JUMP JUMPDEST SWAP2 SWAP1 POP JUMP JUMPDEST PUSH0 PUSH2 0x3EDE DUP3 PUSH2 0x3EC2 JUMP JUMPDEST SWAP1 POP SWAP2 SWAP1 POP JUMP JUMPDEST PUSH2 0x3EEE DUP2 PUSH2 0x3ED4 JUMP JUMPDEST DUP3 MSTORE POP POP JUMP JUMPDEST PUSH0 PUSH2 0x100 DUP3 ADD SWAP1 POP DUP2 DUP2 SUB PUSH0 DUP4 ADD MSTORE PUSH2 0x3F0D DUP2 DUP12 PUSH2 0x3E49 JUMP JUMPDEST SWAP1 POP PUSH2 0x3F1C PUSH1 0x20 DUP4 ADD DUP11 PUSH2 0x3B67 JUMP JUMPDEST PUSH2 0x3F29 PUSH1 0x40 DUP4 ADD DUP10 PUSH2 0x3D9F JUMP JUMPDEST PUSH2 0x3F36 PUSH1 0x60 DUP4 ADD DUP9 PUSH2 0x3D9F JUMP JUMPDEST PUSH2 0x3F43 PUSH1 0x80 DUP4 ADD DUP8 PUSH2 0x3D9F JUMP JUMPDEST PUSH2 0x3F50 PUSH1 0xA0 DUP4 ADD DUP7 PUSH2 0x3EE5 JUMP JUMPDEST PUSH2 0x3F5D PUSH1 0xC0 DUP4 ADD DUP6 PUSH2 0x3D9F JUMP JUMPDEST DUP2 DUP2 SUB PUSH1 0xE0 DUP4 ADD MSTORE PUSH2 0x3F6F DUP2 DUP5 PUSH2 0x3C59 JUMP JUMPDEST SWAP1 POP SWAP10 SWAP9 POP POP POP POP POP POP POP POP POP JUMP JUMPDEST PUSH0 DUP1 REVERT JUMPDEST PUSH0 DUP1 REVERT JUMPDEST PUSH0 DUP1 DUP4 PUSH1 0x1F DUP5 ADD SLT PUSH2 0x3F9B JUMPI PUSH2 0x3F9A PUSH2 0x3945 JUMP JUMPDEST JUMPDEST DUP3 CALLDATALOAD SWAP1 POP PUSH8 0xFFFFFFFFFFFFFFFF DUP2 GT ISZERO PUSH2 0x3FB8 JUMPI PUSH2 0x3FB7 PUSH2 0x3F7E JUMP JUMPDEST JUMPDEST PUSH1 0x20 DUP4 ADD SWAP2 POP DUP4 PUSH1 0x1 DUP3 MUL DUP4 ADD GT ISZERO PUSH2 0x3FD4 JUMPI PUSH2 0x3FD3 PUSH2 0x3F82 JUMP JUMPDEST JUMPDEST SWAP3 POP SWAP3 SWAP1 POP JUMP JUMPDEST PUSH0 DUP1 DUP4 PUSH1 0x1F DUP5 ADD SLT PUSH2 0x3FF0 JUMPI PUSH2 0x3FEF PUSH2 0x3945 JUMP JUMPDEST JUMPDEST DUP3 CALLDATALOAD SWAP1 POP PUSH8 0xFFFFFFFFFFFFFFFF DUP2 GT ISZERO PUSH2 0x400D JUMPI PUSH2 0x400C PUSH2 0x3F7E JUMP JUMPDEST JUMPDEST PUSH1 0x20 DUP4 ADD SWAP2 POP DUP4 PUSH1 0x1 DUP3 MUL DUP4 ADD GT ISZERO PUSH2 0x4029 JUMPI PUSH2 0x4028 PUSH2 0x3F82 JUMP JUMPDEST JUMPDEST SWAP3 POP SWAP3 SWAP1 POP JUMP JUMPDEST PUSH0 DUP1 PUSH0 DUP1 PUSH0 DUP1 PUSH0 DUP1 PUSH1 0xA0 DUP10 DUP12 SUB SLT ISZERO PUSH2 0x404C JUMPI PUSH2 0x404B PUSH2 0x388A JUMP JUMPDEST JUMPDEST PUSH0 DUP10 ADD CALLDATALOAD PUSH8 0xFFFFFFFFFFFFFFFF DUP2 GT ISZERO PUSH2 0x4069 JUMPI PUSH2 0x4068 PUSH2 0x388E JUMP JUMPDEST JUMPDEST PUSH2 0x4075 DUP12 DUP3 DUP13 ADD PUSH2 0x3F86 JUMP JUMPDEST SWAP9 POP SWAP9 POP POP PUSH1 0x20 PUSH2 0x4088 DUP12 DUP3 DUP13 ADD PUSH2 0x3AA0 JUMP JUMPDEST SWAP7 POP POP PUSH1 0x40 PUSH2 0x4099 DUP12 DUP3 DUP13 ADD PUSH2 0x3AA0 JUMP JUMPDEST SWAP6 POP POP PUSH1 0x60 DUP10 ADD CALLDATALOAD PUSH8 0xFFFFFFFFFFFFFFFF DUP2 GT ISZERO PUSH2 0x40BA JUMPI PUSH2 0x40B9 PUSH2 0x388E JUMP JUMPDEST JUMPDEST PUSH2 0x40C6 DUP12 DUP3 DUP13 ADD PUSH2 0x3F86 JUMP JUMPDEST SWAP5 POP SWAP5 POP POP PUSH1 0x80 DUP10 ADD CALLDATALOAD PUSH8 0xFFFFFFFFFFFFFFFF DUP2 GT ISZERO PUSH2 0x40E9 JUMPI PUSH2 0x40E8 PUSH2 0x388E JUMP JUMPDEST JUMPDEST PUSH2 0x40F5 DUP12 DUP3 DUP13 ADD PUSH2 0x3FDB JUMP JUMPDEST SWAP3 POP SWAP3 POP POP SWAP3 SWAP6 SWAP9 POP SWAP3 SWAP6 SWAP9 SWAP1 SWAP4 SWAP7 POP JUMP JUMPDEST PUSH0 PUSH1 0x20 DUP3 DUP5 SUB SLT ISZERO PUSH2 0x411C JUMPI PUSH2 0x411B PUSH2 0x388A JUMP JUMPDEST JUMPDEST PUSH0 PUSH2 0x4129 DUP5 DUP3 DUP6 ADD PUSH2 0x3DDD JUMP JUMPDEST SWAP2 POP POP SWAP3 SWAP2 POP POP JUMP JUMPDEST PUSH0 DUP1 PUSH0 DUP1 PUSH1 0x40 DUP6 DUP8 SUB SLT ISZERO PUSH2 0x414A JUMPI PUSH2 0x4149 PUSH2 0x388A JUMP JUMPDEST JUMPDEST PUSH0 DUP6 ADD CALLDATALOAD PUSH8 0xFFFFFFFFFFFFFFFF DUP2 GT ISZERO PUSH2 0x4167 JUMPI PUSH2 0x4166 PUSH2 0x388E JUMP JUMPDEST JUMPDEST PUSH2 0x4173 DUP8 DUP3 DUP9 ADD PUSH2 0x3FDB JUMP JUMPDEST SWAP5 POP SWAP5 POP POP PUSH1 0x20 DUP6 ADD CALLDATALOAD PUSH8 0xFFFFFFFFFFFFFFFF DUP2 GT ISZERO PUSH2 0x4196 JUMPI PUSH2 0x4195 PUSH2 0x388E JUMP JUMPDEST JUMPDEST PUSH2 0x41A2 DUP8 DUP3 DUP9 ADD PUSH2 0x3FDB JUMP JUMPDEST SWAP3 POP SWAP3 POP POP SWAP3 SWAP6 SWAP2 SWAP5 POP SWAP3 POP JUMP JUMPDEST PUSH0 DUP1 PUSH0 DUP1 PUSH0 DUP1 PUSH1 0x80 DUP8 DUP10 SUB SLT ISZERO PUSH2 0x41CA JUMPI PUSH2 0x41C9 PUSH2 0x388A JUMP JUMPDEST JUMPDEST PUSH0 DUP8 ADD CALLDATALOAD PUSH8 0xFFFFFFFFFFFFFFFF DUP2 GT ISZERO PUSH2 0x41E7 JUMPI PUSH2 0x41E6 PUSH2 0x388E JUMP JUMPDEST JUMPDEST PUSH2 0x41F3 DUP10 DUP3 DUP11 ADD PUSH2 0x3FDB JUMP JUMPDEST SWAP7 POP SWAP7 POP POP PUSH1 0x20 DUP8 ADD CALLDATALOAD PUSH8 0xFFFFFFFFFFFFFFFF DUP2 GT ISZERO PUSH2 0x4216 JUMPI PUSH2 0x4215 PUSH2 0x388E JUMP JUMPDEST JUMPDEST PUSH2 0x4222 DUP10 DUP3 DUP11 ADD PUSH2 0x3F86 JUMP JUMPDEST SWAP5 POP SWAP5 POP POP PUSH1 0x40 PUSH2 0x4235 DUP10 DUP3 DUP11 ADD PUSH2 0x3AA0 JUMP JUMPDEST SWAP3 POP POP PUSH1 0x60 PUSH2 0x4246 DUP10 DUP3 DUP11 ADD PUSH2 0x3DDD JUMP JUMPDEST SWAP2 POP POP SWAP3 SWAP6 POP SWAP3 SWAP6 POP SWAP3 SWAP6 JUMP JUMPDEST PUSH0 PUSH1 0x20 DUP3 DUP5 SUB SLT ISZERO PUSH2 0x4268 JUMPI PUSH2 0x4267 PUSH2 0x388A JUMP JUMPDEST JUMPDEST PUSH0 PUSH2 0x4275 DUP5 DUP3 DUP6 ADD PUSH2 0x3BD5 JUMP JUMPDEST SWAP2 POP POP SWAP3 SWAP2 POP POP JUMP JUMPDEST PUSH2 0x4287 DUP2 PUSH2 0x3BAE JUMP JUMPDEST DUP3 MSTORE POP POP JUMP JUMPDEST PUSH0 PUSH1 0x20 DUP3 ADD SWAP1 POP PUSH2 0x42A0 PUSH0 DUP4 ADD DUP5 PUSH2 0x427E JUMP JUMPDEST SWAP3 SWAP2 POP POP JUMP JUMPDEST PUSH0 DUP1 PUSH0 DUP1 PUSH1 0x40 DUP6 DUP8 SUB SLT ISZERO PUSH2 0x42BE JUMPI PUSH2 0x42BD PUSH2 0x388A JUMP JUMPDEST JUMPDEST PUSH0 DUP6 ADD CALLDATALOAD PUSH8 0xFFFFFFFFFFFFFFFF DUP2 GT ISZERO PUSH2 0x42DB JUMPI PUSH2 0x42DA PUSH2 0x388E JUMP JUMPDEST JUMPDEST PUSH2 0x42E7 DUP8 DUP3 DUP9 ADD PUSH2 0x3F86 JUMP JUMPDEST SWAP5 POP SWAP5 POP POP PUSH1 0x20 DUP6 ADD CALLDATALOAD PUSH8 0xFFFFFFFFFFFFFFFF DUP2 GT ISZERO PUSH2 0x430A JUMPI PUSH2 0x4309 PUSH2 0x388E JUMP JUMPDEST JUMPDEST PUSH2 0x4316 DUP8 DUP3 DUP9 ADD PUSH2 0x3F86 JUMP JUMPDEST SWAP3 POP SWAP3 POP POP SWAP3 SWAP6 SWAP2 SWAP5 POP SWAP3 POP JUMP JUMPDEST PUSH0 PUSH1 0x20 DUP3 DUP5 SUB SLT ISZERO PUSH2 0x4339 JUMPI PUSH2 0x4338 PUSH2 0x388A JUMP JUMPDEST JUMPDEST PUSH0 DUP3 ADD CALLDATALOAD PUSH8 0xFFFFFFFFFFFFFFFF DUP2 GT ISZERO PUSH2 0x4356 JUMPI PUSH2 0x4355 PUSH2 0x388E JUMP JUMPDEST JUMPDEST PUSH2 0x4362 DUP5 DUP3 DUP6 ADD PUSH2 0x3A54 JUMP JUMPDEST SWAP2 POP POP SWAP3 SWAP2 POP POP JUMP JUMPDEST PUSH32 0x424C5320706B206D757374206265203438206279746573000000000000000000 PUSH0 DUP3 ADD MSTORE POP JUMP JUMPDEST PUSH0 PUSH2 0x439F PUSH1 0x17 DUP4 PUSH2 0x37E3 JUMP JUMPDEST SWAP2 POP PUSH2 0x43AA DUP3 PUSH2 0x436B JUMP JUMPDEST PUSH1 0x20 DUP3 ADD SWAP1 POP SWAP2 SWAP1 POP JUMP JUMPDEST PUSH0 PUSH1 0x20 DUP3 ADD SWAP1 POP DUP2 DUP2 SUB PUSH0 DUP4 ADD MSTORE PUSH2 0x43CC DUP2 PUSH2 0x4393 JUMP JUMPDEST SWAP1 POP SWAP2 SWAP1 POP JUMP JUMPDEST PUSH32 0x424C53207369676E6174757265206D7573742062652039362062797465730000 PUSH0 DUP3 ADD MSTORE POP JUMP JUMPDEST PUSH0 PUSH2 0x4407 PUSH1 0x1E DUP4 PUSH2 0x37E3 JUMP JUMPDEST SWAP2 POP PUSH2 0x4412 DUP3 PUSH2 0x43D3 JUMP JUMPDEST PUSH1 0x20 DUP3 ADD SWAP1 POP SWAP2 SWAP1 POP JUMP JUMPDEST PUSH0 PUSH1 0x20 DUP3 ADD SWAP1 POP DUP2 DUP2 SUB PUSH0 DUP4 ADD MSTORE PUSH2 0x4434 DUP2 PUSH2 0x43FB JUMP JUMPDEST SWAP1 POP SWAP2 SWAP1 POP JUMP JUMPDEST PUSH0 DUP2 SWAP1 POP SWAP2 SWAP1 POP JUMP JUMPDEST PUSH2 0x4455 PUSH2 0x4450 DUP3 PUSH2 0x3A81 JUMP JUMPDEST PUSH2 0x443B JUMP JUMPDEST DUP3 MSTORE POP POP JUMP JUMPDEST PUSH0 PUSH2 0x4466 DUP3 DUP5 PUSH2 0x4444 JUMP JUMPDEST PUSH1 0x20 DUP3 ADD SWAP2 POP DUP2 SWAP1 POP SWAP3 SWAP2 POP POP JUMP JUMPDEST PUSH0 PUSH2 0x447F DUP3 PUSH2 0x3E2F JUMP JUMPDEST PUSH2 0x4489 DUP2 DUP6 PUSH2 0x37A2 JUMP JUMPDEST SWAP4 POP PUSH2 0x4499 DUP2 DUP6 PUSH1 0x20 DUP7 ADD PUSH2 0x3C31 JUMP JUMPDEST DUP1 DUP5 ADD SWAP2 POP POP SWAP3 SWAP2 POP POP JUMP JUMPDEST PUSH0 PUSH2 0x44B0 DUP3 DUP5 PUSH2 0x4475 JUMP JUMPDEST SWAP2 POP DUP2 SWAP1 POP SWAP3 SWAP2 POP POP JUMP JUMPDEST PUSH0 DUP2 MLOAD SWAP1 POP PUSH2 0x44C9 DUP2 PUSH2 0x3A8A JUMP JUMPDEST SWAP3 SWAP2 POP POP JUMP JUMPDEST PUSH0 PUSH1 0x20 DUP3 DUP5 SUB SLT ISZERO PUSH2 0x44E4 JUMPI PUSH2 0x44E3 PUSH2 0x388A JUMP JUMPDEST JUMPDEST PUSH0 PUSH2 0x44F1 DUP5 DUP3 DUP6 ADD PUSH2 0x44BB JUMP JUMPDEST SWAP2 POP POP SWAP3 SWAP2 POP POP JUMP JUMPDEST PUSH0 PUSH1 0x80 DUP3 ADD SWAP1 POP DUP2 DUP2 SUB PUSH0 DUP4 ADD MSTORE PUSH2 0x4512 DUP2 DUP8 PUSH2 0x3E49 JUMP JUMPDEST SWAP1 POP PUSH2 0x4521 PUSH1 0x20 DUP4 ADD DUP7 PUSH2 0x3B67 JUMP JUMPDEST DUP2 DUP2 SUB PUSH1 0x40 DUP4 ADD MSTORE PUSH2 0x4533 DUP2 DUP6 PUSH2 0x3E49 JUMP JUMPDEST SWAP1 POP DUP2 DUP2 SUB PUSH1 0x60 DUP4 ADD MSTORE PUSH2 0x4547 DUP2 DUP5 PUSH2 0x3E49 JUMP JUMPDEST SWAP1 POP SWAP6 SWAP5 POP POP POP POP POP JUMP JUMPDEST PUSH0 DUP2 SWAP1 POP SWAP3 SWAP2 POP POP JUMP JUMPDEST PUSH0 PUSH2 0x4566 DUP3 PUSH2 0x3C27 JUMP JUMPDEST PUSH2 0x4570 DUP2 DUP6 PUSH2 0x4552 JUMP JUMPDEST SWAP4 POP PUSH2 0x4580 DUP2 DUP6 PUSH1 0x20 DUP7 ADD PUSH2 0x3C31 JUMP JUMPDEST DUP1 DUP5 ADD SWAP2 POP POP SWAP3 SWAP2 POP POP JUMP JUMPDEST PUSH0 PUSH2 0x4597 DUP3 DUP5 PUSH2 0x455C JUMP JUMPDEST SWAP2 POP DUP2 SWAP1 POP SWAP3 SWAP2 POP POP JUMP JUMPDEST PUSH32 0x4E6F6465206973206E6F742066726F7A656E0000000000000000000000000000 PUSH0 DUP3 ADD MSTORE POP JUMP JUMPDEST PUSH0 PUSH2 0x45D6 PUSH1 0x12 DUP4 PUSH2 0x37E3 JUMP JUMPDEST SWAP2 POP PUSH2 0x45E1 DUP3 PUSH2 0x45A2 JUMP JUMPDEST PUSH1 0x20 DUP3 ADD SWAP1 POP SWAP2 SWAP1 POP JUMP JUMPDEST PUSH0 PUSH1 0x20 DUP3 ADD SWAP1 POP DUP2 DUP2 SUB PUSH0 DUP4 ADD MSTORE PUSH2 0x4603 DUP2 PUSH2 0x45CA JUMP JUMPDEST SWAP1 POP SWAP2 SWAP1 POP JUMP JUMPDEST PUSH32 0x43616E6E6F7420756E667265657A65207065726D616E656E746C792066726F7A PUSH0 DUP3 ADD MSTORE PUSH32 0x656E206E6F646500000000000000000000000000000000000000000000000000 PUSH1 0x20 DUP3 ADD MSTORE POP JUMP JUMPDEST PUSH0 PUSH2 0x4664 PUSH1 0x27 DUP4 PUSH2 0x37E3 JUMP JUMPDEST SWAP2 POP PUSH2 0x466F DUP3 PUSH2 0x460A JUMP JUMPDEST PUSH1 0x40 DUP3 ADD SWAP1 POP SWAP2 SWAP1 POP JUMP JUMPDEST PUSH0 PUSH1 0x20 DUP3 ADD SWAP1 POP DUP2 DUP2 SUB PUSH0 DUP4 ADD MSTORE PUSH2 0x4691 DUP2 PUSH2 0x4658 JUMP JUMPDEST SWAP1 POP SWAP2 SWAP1 POP JUMP JUMPDEST PUSH32 0x43616E6E6F7420756E667265657A65206265666F726520667265657A65207065 PUSH0 DUP3 ADD MSTORE PUSH32 0x72696F6420656E64730000000000000000000000000000000000000000000000 PUSH1 0x20 DUP3 ADD MSTORE POP JUMP JUMPDEST PUSH0 PUSH2 0x46F2 PUSH1 0x29 DUP4 PUSH2 0x37E3 JUMP JUMPDEST SWAP2 POP PUSH2 0x46FD DUP3 PUSH2 0x4698 JUMP JUMPDEST PUSH1 0x40 DUP3 ADD SWAP1 POP SWAP2 SWAP1 POP JUMP JUMPDEST PUSH0 PUSH1 0x20 DUP3 ADD SWAP1 POP DUP2 DUP2 SUB PUSH0 DUP4 ADD MSTORE PUSH2 0x471F DUP2 PUSH2 0x46E6 JUMP JUMPDEST SWAP1 POP SWAP2 SWAP1 POP JUMP JUMPDEST PUSH32 0x496E73756666696369656E74207374616B6520746F20756E667265657A650000 PUSH0 DUP3 ADD MSTORE POP JUMP JUMPDEST PUSH0 PUSH2 0x475A PUSH1 0x1E DUP4 PUSH2 0x37E3 JUMP JUMPDEST SWAP2 POP PUSH2 0x4765 DUP3 PUSH2 0x4726 JUMP JUMPDEST PUSH1 0x20 DUP3 ADD SWAP1 POP SWAP2 SWAP1 POP JUMP JUMPDEST PUSH0 PUSH1 0x20 DUP3 ADD SWAP1 POP DUP2 DUP2 SUB PUSH0 DUP4 ADD MSTORE PUSH2 0x4787 DUP2 PUSH2 0x474E JUMP JUMPDEST SWAP1 POP SWAP2 SWAP1 POP JUMP JUMPDEST PUSH32 0x4E487B7100000000000000000000000000000000000000000000000000000000 PUSH0 MSTORE PUSH1 0x22 PUSH1 0x4 MSTORE PUSH1 0x24 PUSH0 REVERT JUMPDEST PUSH0 PUSH1 0x2 DUP3 DIV SWAP1 POP PUSH1 0x1 DUP3 AND DUP1 PUSH2 0x47D2 JUMPI PUSH1 0x7F DUP3 AND SWAP2 POP JUMPDEST PUSH1 0x20 DUP3 LT DUP2 SUB PUSH2 0x47E5 JUMPI PUSH2 0x47E4 PUSH2 0x478E JUMP JUMPDEST JUMPDEST POP SWAP2 SWAP1 POP JUMP JUMPDEST PUSH0 DUP2 SWAP1 POP DUP2 PUSH0 MSTORE PUSH1 0x20 PUSH0 KECCAK256 SWAP1 POP SWAP2 SWAP1 POP JUMP JUMPDEST PUSH0 PUSH1 0x20 PUSH1 0x1F DUP4 ADD DIV SWAP1 POP SWAP2 SWAP1 POP JUMP JUMPDEST PUSH0 DUP3 DUP3 SHL SWAP1 POP SWAP3 SWAP2 POP POP JUMP JUMPDEST PUSH0 PUSH1 0x8 DUP4 MUL PUSH2 0x4847 PUSH32 0xFFFFFFFFFFFFFFFFFFFFFFFFFFFFFFFFFFFFFFFFFFFFFFFFFFFFFFFFFFFFFFFF DUP3 PUSH2 0x480C JUMP JUMPDEST PUSH2 0x4851 DUP7 DUP4 PUSH2 0x480C JUMP JUMPDEST SWAP6 POP DUP1 NOT DUP5 AND SWAP4 POP DUP1 DUP7 AND DUP5 OR SWAP3 POP POP POP SWAP4 SWAP3 POP POP POP JUMP JUMPDEST PUSH0 DUP2 SWAP1 POP SWAP2 SWAP1 POP JUMP JUMPDEST PUSH0 PUSH2 0x488C PUSH2 0x4887 PUSH2 0x4882 DUP5 PUSH2 0x3D96 JUMP JUMPDEST PUSH2 0x4869 JUMP JUMPDEST PUSH2 0x3D96 JUMP JUMPDEST SWAP1 POP SWAP2 SWAP1 POP JUMP JUMPDEST PUSH0 DUP2 SWAP1 POP SWAP2 SWAP1 POP JUMP JUMPDEST PUSH2 0x48A5 DUP4 PUSH2 0x4872 JUMP JUMPDEST PUSH2 0x48B9 PUSH2 0x48B1 DUP3 PUSH2 0x4893 JUMP JUMPDEST DUP5 DUP5 SLOAD PUSH2 0x4818 JUMP JUMPDEST DUP3 SSTORE POP POP POP POP JUMP JUMPDEST PUSH0 SWAP1 JUMP JUMPDEST PUSH2 0x48CD PUSH2 0x48C1 JUMP JUMPDEST PUSH2 0x48D8 DUP2 DUP5 DUP5 PUSH2 0x489C JUMP JUMPDEST POP POP POP JUMP JUMPDEST JUMPDEST DUP2 DUP2 LT ISZERO PUSH2 0x48FB JUMPI PUSH2 0x48F0 PUSH0 DUP3 PUSH2 0x48C5 JUMP JUMPDEST PUSH1 0x1 DUP2 ADD SWAP1 POP PUSH2 0x48DE JUMP JUMPDEST POP POP JUMP JUMPDEST PUSH1 0x1F DUP3 GT ISZERO PUSH2 0x4940 JUMPI PUSH2 0x4911 DUP2 PUSH2 0x47EB JUMP JUMPDEST PUSH2 0x491A DUP5 PUSH2 0x47FD JUMP JUMPDEST DUP2 ADD PUSH1 0x20 DUP6 LT ISZERO PUSH2 0x4929 JUMPI DUP2 SWAP1 POP JUMPDEST PUSH2 0x493D PUSH2 0x4935 DUP6 PUSH2 0x47FD JUMP JUMPDEST DUP4 ADD DUP3 PUSH2 0x48DD JUMP JUMPDEST POP POP JUMPDEST POP POP POP JUMP JUMPDEST PUSH0 DUP3 DUP3 SHR SWAP1 POP SWAP3 SWAP2 POP POP JUMP JUMPDEST PUSH0 PUSH2 0x4960 PUSH0 NOT DUP5 PUSH1 0x8 MUL PUSH2 0x4945 JUMP JUMPDEST NOT DUP1 DUP4 AND SWAP2 POP POP SWAP3 SWAP2 POP POP JUMP JUMPDEST PUSH0 PUSH2 0x4978 DUP4 DUP4 PUSH2 0x4951 JUMP JUMPDEST SWAP2 POP DUP3 PUSH1 0x2 MUL DUP3 OR SWAP1 POP SWAP3 SWAP2 POP POP JUMP JUMPDEST PUSH2 0x4991 DUP3 PUSH2 0x3C27 JUMP JUMPDEST PUSH8 0xFFFFFFFFFFFFFFFF DUP2 GT ISZERO PUSH2 0x49AA JUMPI PUSH2 0x49A9 PUSH2 0x395D JUMP JUMPDEST JUMPDEST PUSH2 0x49B4 DUP3 SLOAD PUSH2 0x47BB JUMP JUMPDEST PUSH2 0x49BF DUP3 DUP3 DUP6 PUSH2 0x48FF JUMP JUMPDEST PUSH0 PUSH1 0x20 SWAP1 POP PUSH1 0x1F DUP4 GT PUSH1 0x1 DUP2 EQ PUSH2 0x49F0 JUMPI PUSH0 DUP5 ISZERO PUSH2 0x49DE JUMPI DUP3 DUP8 ADD MLOAD SWAP1 POP JUMPDEST PUSH2 0x49E8 DUP6 DUP3 PUSH2 0x496D JUMP JUMPDEST DUP7 SSTORE POP PUSH2 0x4A4F JUMP JUMPDEST PUSH1 0x1F NOT DUP5 AND PUSH2 0x49FE DUP7 PUSH2 0x47EB JUMP JUMPDEST PUSH0 JUMPDEST DUP3 DUP2 LT ISZERO PUSH2 0x4A25 JUMPI DUP5 DUP10 ADD MLOAD DUP3 SSTORE PUSH1 0x1 DUP3 ADD SWAP2 POP PUSH1 0x20 DUP6 ADD SWAP5 POP PUSH1 0x20 DUP2 ADD SWAP1 POP PUSH2 0x4A00 JUMP JUMPDEST DUP7 DUP4 LT ISZERO PUSH2 0x4A42 JUMPI DUP5 DUP10 ADD MLOAD PUSH2 0x4A3E PUSH1 0x1F DUP10 AND DUP3 PUSH2 0x4951 JUMP JUMPDEST DUP4 SSTORE POP JUMPDEST PUSH1 0x1 PUSH1 0x2 DUP9 MUL ADD DUP9 SSTORE POP POP POP JUMPDEST POP POP POP POP POP POP JUMP JUMPDEST PUSH32 0x496E76616C6964206E6F64652073746174757320286F6E6C7920616374697665 PUSH0 DUP3 ADD MSTORE PUSH32 0x2F66726F7A656E2063616E207265766F6B652900000000000000000000000000 PUSH1 0x20 DUP3 ADD MSTORE POP JUMP JUMPDEST PUSH0 PUSH2 0x4AB1 PUSH1 0x33 DUP4 PUSH2 0x37E3 JUMP JUMPDEST SWAP2 POP PUSH2 0x4ABC DUP3 PUSH2 0x4A57 JUMP JUMPDEST PUSH1 0x40 DUP3 ADD SWAP1 POP SWAP2 SWAP1 POP JUMP JUMPDEST PUSH0 PUSH1 0x20 DUP3 ADD SWAP1 POP DUP2 DUP2 SUB PUSH0 DUP4 ADD MSTORE PUSH2 0x4ADE DUP2 PUSH2 0x4AA5 JUMP JUMPDEST SWAP1 POP SWAP2 SWAP1 POP JUMP JUMPDEST PUSH32 0x4E487B7100000000000000000000000000000000000000000000000000000000 PUSH0 MSTORE PUSH1 0x11 PUSH1 0x4 MSTORE PUSH1 0x24 PUSH0 REVERT JUMPDEST PUSH0 PUSH2 0x4B1C DUP3 PUSH2 0x3D96 JUMP JUMPDEST SWAP2 POP PUSH2 0x4B27 DUP4 PUSH2 0x3D96 JUMP JUMPDEST SWAP3 POP DUP3 DUP3 ADD SWAP1 POP DUP1 DUP3 GT ISZERO PUSH2 0x4B3F JUMPI PUSH2 0x4B3E PUSH2 0x4AE5 JUMP JUMPDEST JUMPDEST SWAP3 SWAP2 POP POP JUMP JUMPDEST PUSH0 PUSH1 0x40 DUP3 ADD SWAP1 POP PUSH2 0x4B58 PUSH0 DUP4 ADD DUP6 PUSH2 0x3D9F JUMP JUMPDEST PUSH2 0x4B65 PUSH1 0x20 DUP4 ADD DUP5 PUSH2 0x3D9F JUMP JUMPDEST SWAP4 SWAP3 POP POP POP JUMP JUMPDEST PUSH32 0x444944206E6F74207265766F6B65640000000000000000000000000000000000 PUSH0 DUP3 ADD MSTORE POP JUMP JUMPDEST PUSH0 PUSH2 0x4BA0 PUSH1 0xF DUP4 PUSH2 0x37E3 JUMP JUMPDEST SWAP2 POP PUSH2 0x4BAB DUP3 PUSH2 0x4B6C JUMP JUMPDEST PUSH1 0x20 DUP3 ADD SWAP1 POP SWAP2 SWAP1 POP JUMP JUMPDEST PUSH0 PUSH1 0x20 DUP3 ADD SWAP1 POP DUP2 DUP2 SUB PUSH0 DUP4 ADD MSTORE PUSH2 0x4BCD DUP2 PUSH2 0x4B94 JUMP JUMPDEST SWAP1 POP SWAP2 SWAP1 POP JUMP JUMPDEST PUSH32 0x5374616B65207374696C6C206C6F636B656420287761697420666F7220667265 PUSH0 DUP3 ADD MSTORE PUSH32 0x657A6520706572696F6429000000000000000000000000000000000000000000 PUSH1 0x20 DUP3 ADD MSTORE POP JUMP JUMPDEST PUSH0 PUSH2 0x4C2E PUSH1 0x2B DUP4 PUSH2 0x37E3 JUMP JUMPDEST SWAP2 POP PUSH2 0x4C39 DUP3 PUSH2 0x4BD4 JUMP JUMPDEST PUSH1 0x40 DUP3 ADD SWAP1 POP SWAP2 SWAP1 POP JUMP JUMPDEST PUSH0 PUSH1 0x20 DUP3 ADD SWAP1 POP DUP2 DUP2 SUB PUSH0 DUP4 ADD MSTORE PUSH2 0x4C5B DUP2 PUSH2 0x4C22 JUMP JUMPDEST SWAP1 POP SWAP2 SWAP1 POP JUMP JUMPDEST PUSH32 0x4E6F207374616B6520746F207769746864726177000000000000000000000000 PUSH0 DUP3 ADD MSTORE POP JUMP JUMPDEST PUSH0 PUSH2 0x4C96 PUSH1 0x14 DUP4 PUSH2 0x37E3 JUMP JUMPDEST SWAP2 POP PUSH2 0x4CA1 DUP3 PUSH2 0x4C62 JUMP JUMPDEST PUSH1 0x20 DUP3 ADD SWAP1 POP SWAP2 SWAP1 POP JUMP JUMPDEST PUSH0 PUSH1 0x20 DUP3 ADD SWAP1 POP DUP2 DUP2 SUB PUSH0 DUP4 ADD MSTORE PUSH2 0x4CC3 DUP2 PUSH2 0x4C8A JUMP JUMPDEST SWAP1 POP SWAP2 SWAP1 POP JUMP JUMPDEST PUSH32 0x5374616B65207769746864726177616C206661696C6564000000000000000000 PUSH0 DUP3 ADD MSTORE POP JUMP JUMPDEST PUSH0 PUSH2 0x4CFE PUSH1 0x17 DUP4 PUSH2 0x37E3 JUMP JUMPDEST SWAP2 POP PUSH2 0x4D09 DUP3 PUSH2 0x4CCA JUMP JUMPDEST PUSH1 0x20 DUP3 ADD SWAP1 POP SWAP2 SWAP1 POP JUMP JUMPDEST PUSH0 PUSH1 0x20 DUP3 ADD SWAP1 POP DUP2 DUP2 SUB PUSH0 DUP4 ADD MSTORE PUSH2 0x4D2B DUP2 PUSH2 0x4CF2 JUMP JUMPDEST SWAP1 POP SWAP2 SWAP1 POP JUMP JUMPDEST PUSH32 0x496E76616C696420424C5320706B20286D757374206265203438206279746573 PUSH0 DUP3 ADD MSTORE PUSH32 0x2900000000000000000000000000000000000000000000000000000000000000 PUSH1 0x20 DUP3 ADD MSTORE POP JUMP JUMPDEST PUSH0 PUSH2 0x4D8C PUSH1 0x21 DUP4 PUSH2 0x37E3 JUMP JUMPDEST SWAP2 POP PUSH2 0x4D97 DUP3 PUSH2 0x4D32 JUMP JUMPDEST PUSH1 0x40 DUP3 ADD SWAP1 POP SWAP2 SWAP1 POP JUMP JUMPDEST PUSH0 PUSH1 0x20 DUP3 ADD SWAP1 POP DUP2 DUP2 SUB PUSH0 DUP4 ADD MSTORE PUSH2 0x4DB9 DUP2 PUSH2 0x4D80 JUMP JUMPDEST SWAP1 POP SWAP2 SWAP1 POP JUMP JUMPDEST PUSH32 0x496E76616C696420424C532073696720286D7573742062652039362062797465 PUSH0 DUP3 ADD MSTORE PUSH32 0x7329000000000000000000000000000000000000000000000000000000000000 PUSH1 0x20 DUP3 ADD MSTORE POP JUMP JUMPDEST PUSH0 PUSH2 0x4E1A PUSH1 0x22 DUP4 PUSH2 0x37E3 JUMP JUMPDEST SWAP2 POP PUSH2 0x4E25 DUP3 PUSH2 0x4DC0 JUMP JUMPDEST PUSH1 0x40 DUP3 ADD SWAP1 POP SWAP2 SWAP1 POP JUMP JUMPDEST PUSH0 PUSH1 0x20 DUP3 ADD SWAP1 POP DUP2 DUP2 SUB PUSH0 DUP4 ADD MSTORE PUSH2 0x4E47 DUP2 PUSH2 0x4E0E JUMP JUMPDEST SWAP1 POP SWAP2 SWAP1 POP JUMP JUMPDEST PUSH0 PUSH2 0x4E59 DUP4 DUP6 PUSH2 0x37A2 JUMP JUMPDEST SWAP4 POP PUSH2 0x4E66 DUP4 DUP6 DUP5 PUSH2 0x3A05 JUMP JUMPDEST DUP3 DUP5 ADD SWAP1 POP SWAP4 SWAP3 POP POP POP JUMP JUMPDEST PUSH0 PUSH2 0x4E7E DUP3 DUP5 DUP7 PUSH2 0x4E4E JUMP JUMPDEST SWAP2 POP DUP2 SWAP1 POP SWAP4 SWAP3 POP POP POP JUMP JUMPDEST PUSH32 0x5075626C6963206B657920616C726561647920626F756E6420746F2044494400 PUSH0 DUP3 ADD MSTORE POP JUMP JUMPDEST PUSH0 PUSH2 0x4EBE PUSH1 0x1F DUP4 PUSH2 0x37E3 JUMP JUMPDEST SWAP2 POP PUSH2 0x4EC9 DUP3 PUSH2 0x4E8A JUMP JUMPDEST PUSH1 0x20 DUP3 ADD SWAP1 POP SWAP2 SWAP1 POP JUMP JUMPDEST PUSH0 PUSH1 0x20 DUP3 ADD SWAP1 POP DUP2 DUP2 SUB PUSH0 DUP4 ADD MSTORE PUSH2 0x4EEB DUP2 PUSH2 0x4EB2 JUMP JUMPDEST SWAP1 POP SWAP2 SWAP1 POP JUMP JUMPDEST PUSH0 PUSH2 0x4EFE DUP3 DUP6 DUP8 PUSH2 0x4E4E JUMP JUMPDEST SWAP2 POP PUSH2 0x4F0A DUP3 DUP5 PUSH2 0x4444 JUMP JUMPDEST PUSH1 0x20 DUP3 ADD SWAP2 POP DUP2 SWAP1 POP SWAP5 SWAP4 POP POP POP POP JUMP JUMPDEST PUSH32 0x496E76616C6964204E6F6465494420286D69736D6174636820706B2F73616C74 PUSH0 DUP3 ADD MSTORE PUSH32 0x2900000000000000000000000000000000000000000000000000000000000000 PUSH1 0x20 DUP3 ADD MSTORE POP JUMP JUMPDEST PUSH0 PUSH2 0x4F75 PUSH1 0x21 DUP4 PUSH2 0x37E3 JUMP JUMPDEST SWAP2 POP PUSH2 0x4F80 DUP3 PUSH2 0x4F1B JUMP JUMPDEST PUSH1 0x40 DUP3 ADD SWAP1 POP SWAP2 SWAP1 POP JUMP JUMPDEST PUSH0 PUSH1 0x20 DUP3 ADD SWAP1 POP DUP2 DUP2 SUB PUSH0 DUP4 ADD MSTORE PUSH2 0x4FA2 DUP2 PUSH2 0x4F69 JUMP JUMPDEST SWAP1 POP SWAP2 SWAP1 POP JUMP JUMPDEST PUSH0 PUSH2 0x4FB5 DUP3 DUP7 DUP9 PUSH2 0x4E4E JUMP JUMPDEST SWAP2 POP PUSH2 0x4FC1 DUP3 DUP6 PUSH2 0x4444 JUMP JUMPDEST PUSH1 0x20 DUP3 ADD SWAP2 POP PUSH2 0x4FD1 DUP3 DUP5 PUSH2 0x4444 JUMP JUMPDEST PUSH1 0x20 DUP3 ADD SWAP2 POP DUP2 SWAP1 POP SWAP6 SWAP5 POP POP POP POP POP JUMP JUMPDEST PUSH32 0x496E76616C696420424C53207369676E61747572650000000000000000000000 PUSH0 DUP3 ADD MSTORE POP JUMP JUMPDEST PUSH0 PUSH2 0x5017 PUSH1 0x15 DUP4 PUSH2 0x37E3 JUMP JUMPDEST SWAP2 POP PUSH2 0x5022 DUP3 PUSH2 0x4FE3 JUMP JUMPDEST PUSH1 0x20 DUP3 ADD SWAP1 POP SWAP2 SWAP1 POP JUMP JUMPDEST PUSH0 PUSH1 0x20 DUP3 ADD SWAP1 POP DUP2 DUP2 SUB PUSH0 DUP4 ADD MSTORE PUSH2 0x5044 DUP2 PUSH2 0x500B JUMP JUMPDEST SWAP1 POP SWAP2 SWAP1 POP JUMP JUMPDEST PUSH32 0x496E73756666696369656E74207374616B65202862656C6F7720626173652072 PUSH0 DUP3 ADD MSTORE PUSH32 0x6571756972656D656E7429000000000000000000000000000000000000000000 PUSH1 0x20 DUP3 ADD MSTORE POP JUMP JUMPDEST PUSH0 PUSH2 0x50A5 PUSH1 0x2B DUP4 PUSH2 0x37E3 JUMP JUMPDEST SWAP2 POP PUSH2 0x50B0 DUP3 PUSH2 0x504B JUMP JUMPDEST PUSH1 0x40 DUP3 ADD SWAP1 POP SWAP2 SWAP1 POP JUMP JUMPDEST PUSH0 PUSH1 0x20 DUP3 ADD SWAP1 POP DUP2 DUP2 SUB PUSH0 DUP4 ADD MSTORE PUSH2 0x50D2 DUP2 PUSH2 0x5099 JUMP JUMPDEST SWAP1 POP SWAP2 SWAP1 POP JUMP JUMPDEST PUSH32 0x3A00000000000000000000000000000000000000000000000000000000000000 PUSH0 DUP3 ADD MSTORE POP JUMP JUMPDEST PUSH0 PUSH2 0x510D PUSH1 0x1 DUP4 PUSH2 0x4552 JUMP JUMPDEST SWAP2 POP PUSH2 0x5118 DUP3 PUSH2 0x50D9 JUMP JUMPDEST PUSH1 0x1 DUP3 ADD SWAP1 POP SWAP2 SWAP1 POP JUMP JUMPDEST PUSH0 PUSH2 0x512E DUP3 DUP7 PUSH2 0x455C JUMP JUMPDEST SWAP2 POP PUSH2 0x513A DUP3 DUP6 PUSH2 0x455C JUMP JUMPDEST SWAP2 POP PUSH2 0x5145 DUP3 PUSH2 0x5101 JUMP JUMPDEST SWAP2 POP PUSH2 0x5151 DUP3 DUP5 PUSH2 0x455C JUMP JUMPDEST SWAP2 POP DUP2 SWAP1 POP SWAP5 SWAP4 POP POP POP POP JUMP JUMPDEST PUSH32 0x44494420616C7265616479206578697374730000000000000000000000000000 PUSH0 DUP3 ADD MSTORE POP JUMP JUMPDEST PUSH0 PUSH2 0x5192 PUSH1 0x12 DUP4 PUSH2 0x37E3 JUMP JUMPDEST SWAP2 POP PUSH2 0x519D DUP3 PUSH2 0x515E JUMP JUMPDEST PUSH1 0x20 DUP3 ADD SWAP1 POP SWAP2 SWAP1 POP JUMP JUMPDEST PUSH0 PUSH1 0x20 DUP3 ADD SWAP1 POP DUP2 DUP2 SUB PUSH0 DUP4 ADD MSTORE PUSH2 0x51BF DUP2 PUSH2 0x5186 JUMP JUMPDEST SWAP1 POP SWAP2 SWAP1 POP JUMP JUMPDEST PUSH0 DUP2 SWAP1 POP DUP2 PUSH0 MSTORE PUSH1 0x20 PUSH0 KECCAK256 SWAP1 POP SWAP2 SWAP1 POP JUMP JUMPDEST PUSH1 0x1F DUP3 GT ISZERO PUSH2 0x5219 JUMPI PUSH2 0x51EA DUP2 PUSH2 0x51C6 JUMP JUMPDEST PUSH2 0x51F3 DUP5 PUSH2 0x47FD JUMP JUMPDEST DUP2 ADD PUSH1 0x20 DUP6 LT ISZERO PUSH2 0x5202 JUMPI DUP2 SWAP1 POP JUMPDEST PUSH2 0x5216 PUSH2 0x520E DUP6 PUSH2 0x47FD JUMP JUMPDEST DUP4 ADD DUP3 PUSH2 0x48DD JUMP JUMPDEST POP POP JUMPDEST POP POP POP JUMP JUMPDEST PUSH2 0x5227 DUP3 PUSH2 0x3E2F JUMP JUMPDEST PUSH8 0xFFFFFFFFFFFFFFFF DUP2 GT ISZERO PUSH2 0x5240 JUMPI PUSH2 0x523F PUSH2 0x395D JUMP JUMPDEST JUMPDEST PUSH2 0x524A DUP3 SLOAD PUSH2 0x47BB JUMP JUMPDEST PUSH2 0x5255 DUP3 DUP3 DUP6 PUSH2 0x51D8 JUMP JUMPDEST PUSH0 PUSH1 0x20 SWAP1 POP PUSH1 0x1F DUP4 GT PUSH1 0x1 DUP2 EQ PUSH2 0x5286 JUMPI PUSH0 DUP5 ISZERO PUSH2 0x5274 JUMPI DUP3 DUP8 ADD MLOAD SWAP1 POP JUMPDEST PUSH2 0x527E DUP6 DUP3 PUSH2 0x496D JUMP JUMPDEST DUP7 SSTORE POP PUSH2 0x52E5 JUMP JUMPDEST PUSH1 0x1F NOT DUP5 AND PUSH2 0x5294 DUP7 PUSH2 0x51C6 JUMP JUMPDEST PUSH0 JUMPDEST DUP3 DUP2 LT ISZERO PUSH2 0x52BB JUMPI DUP5 DUP10 ADD MLOAD DUP3 SSTORE PUSH1 0x1 DUP3 ADD SWAP2 POP PUSH1 0x20 DUP6 ADD SWAP5 POP PUSH1 0x20 DUP2 ADD SWAP1 POP PUSH2 0x5296 JUMP JUMPDEST DUP7 DUP4 LT ISZERO PUSH2 0x52D8 JUMPI DUP5 DUP10 ADD MLOAD PUSH2 0x52D4 PUSH1 0x1F DUP10 AND DUP3 PUSH2 0x4951 JUMP JUMPDEST DUP4 SSTORE POP JUMPDEST PUSH1 0x1 PUSH1 0x2 DUP9 MUL ADD DUP9 SSTORE POP POP POP JUMPDEST POP POP POP POP POP POP JUMP JUMPDEST PUSH0 PUSH2 0x52F8 DUP4 DUP6 PUSH2 0x4552 JUMP JUMPDEST SWAP4 POP PUSH2 0x5305 DUP4 DUP6 DUP5 PUSH2 0x3A05 JUMP JUMPDEST DUP3 DUP5 ADD SWAP1 POP SWAP4 SWAP3 POP POP POP JUMP JUMPDEST PUSH0 PUSH2 0x531D DUP3 DUP5 DUP7 PUSH2 0x52ED JUMP JUMPDEST SWAP2 POP DUP2 SWAP1 POP SWAP4 SWAP3 POP POP POP JUMP JUMPDEST PUSH32 0x444944206E6F7420726567697374657265640000000000000000000000000000 PUSH0 DUP3 ADD MSTORE POP JUMP JUMPDEST PUSH0 PUSH2 0x535D PUSH1 0x12 DUP4 PUSH2 0x37E3 JUMP JUMPDEST SWAP2 POP PUSH2 0x5368 DUP3 PUSH2 0x5329 JUMP JUMPDEST PUSH1 0x20 DUP3 ADD SWAP1 POP SWAP2 SWAP1 POP JUMP JUMPDEST PUSH0 PUSH1 0x20 DUP3 ADD SWAP1 POP DUP2 DUP2 SUB PUSH0 DUP4 ADD MSTORE PUSH2 0x538A DUP2 PUSH2 0x5351 JUMP JUMPDEST SWAP1 POP SWAP2 SWAP1 POP JUMP JUMPDEST PUSH32 0x4E6F646520616C7265616479207065726D616E656E746C792066726F7A656E00 PUSH0 DUP3 ADD MSTORE POP JUMP JUMPDEST PUSH0 PUSH2 0x53C5 PUSH1 0x1F DUP4 PUSH2 0x37E3 JUMP JUMPDEST SWAP2 POP PUSH2 0x53D0 DUP3 PUSH2 0x5391 JUMP JUMPDEST PUSH1 0x20 DUP3 ADD SWAP1 POP SWAP2 SWAP1 POP JUMP JUMPDEST PUSH0 PUSH1 0x20 DUP3 ADD SWAP1 POP DUP2 DUP2 SUB PUSH0 DUP4 ADD MSTORE PUSH2 0x53F2 DUP2 PUSH2 0x53B9 JUMP JUMPDEST SWAP1 POP SWAP2 SWAP1 POP JUMP JUMPDEST PUSH0 PUSH2 0x5404 DUP4 DUP6 PUSH2 0x37E3 JUMP JUMPDEST SWAP4 POP PUSH2 0x5411 DUP4 DUP6 DUP5 PUSH2 0x3A05 JUMP JUMPDEST PUSH2 0x541A DUP4 PUSH2 0x394D JUMP JUMPDEST DUP5 ADD SWAP1 POP SWAP4 SWAP3 POP POP POP JUMP JUMPDEST PUSH0 PUSH1 0x60 DUP3 ADD SWAP1 POP DUP2 DUP2 SUB PUSH0 DUP4 ADD MSTORE PUSH2 0x543E DUP2 DUP7 DUP9 PUSH2 0x53F9 JUMP JUMPDEST SWAP1 POP PUSH2 0x544D PUSH1 0x20 DUP4 ADD DUP6 PUSH2 0x3D9F JUMP JUMPDEST PUSH2 0x545A PUSH1 0x40 DUP4 ADD DUP5 PUSH2 0x3D9F JUMP JUMPDEST SWAP6 SWAP5 POP POP POP POP POP JUMP JUMPDEST PUSH32 0x42617365207374616B652063616E6E6F74206265207A65726F00000000000000 PUSH0 DUP3 ADD MSTORE POP JUMP JUMPDEST PUSH0 PUSH2 0x5497 PUSH1 0x19 DUP4 PUSH2 0x37E3 JUMP JUMPDEST SWAP2 POP PUSH2 0x54A2 DUP3 PUSH2 0x5463 JUMP JUMPDEST PUSH1 0x20 DUP3 ADD SWAP1 POP SWAP2 SWAP1 POP JUMP JUMPDEST PUSH0 PUSH1 0x20 DUP3 ADD SWAP1 POP DUP2 DUP2 SUB PUSH0 DUP4 ADD MSTORE PUSH2 0x54C4 DUP2 PUSH2 0x548B JUMP JUMPDEST SWAP1 POP SWAP2 SWAP1 POP JUMP JUMPDEST PUSH0 PUSH1 0x60 DUP3 ADD SWAP1 POP PUSH2 0x54DE PUSH0 DUP4 ADD DUP7 PUSH2 0x3D9F JUMP JUMPDEST PUSH2 0x54EB PUSH1 0x20 DUP4 ADD DUP6 PUSH2 0x3D9F JUMP JUMPDEST PUSH2 0x54F8 PUSH1 0x40 DUP4 ADD DUP5 PUSH2 0x3D9F JUMP JUMPDEST SWAP5 SWAP4 POP POP POP POP JUMP JUMPDEST PUSH32 0x4E6F6465206973206E6F7420616374697665202866726F7A656E2F7265766F6B PUSH0 DUP3 ADD MSTORE PUSH32 0x6564290000000000000000000000000000000000000000000000000000000000 PUSH1 0x20 DUP3 ADD MSTORE POP JUMP JUMPDEST PUSH0 PUSH2 0x555A PUSH1 0x23 DUP4 PUSH2 0x37E3 JUMP JUMPDEST SWAP2 POP PUSH2 0x5565 DUP3 PUSH2 0x5500 JUMP JUMPDEST PUSH1 0x40 DUP3 ADD SWAP1 POP SWAP2 SWAP1 POP JUMP JUMPDEST PUSH0 PUSH1 0x20 DUP3 ADD SWAP1 POP DUP2 DUP2 SUB PUSH0 DUP4 ADD MSTORE PUSH2 0x5587 DUP2 PUSH2 0x554E JUMP JUMPDEST SWAP1 POP SWAP2 SWAP1 POP JUMP JUMPDEST PUSH0 PUSH2 0x5598 DUP3 PUSH2 0x3D96 JUMP JUMPDEST SWAP2 POP PUSH2 0x55A3 DUP4 PUSH2 0x3D96 JUMP JUMPDEST SWAP3 POP DUP3 DUP3 SUB SWAP1 POP DUP2 DUP2 GT ISZERO PUSH2 0x55BB JUMPI PUSH2 0x55BA PUSH2 0x4AE5 JUMP JUMPDEST JUMPDEST SWAP3 SWAP2 POP POP JUMP JUMPDEST PUSH32 0x496E76616C69642074696D657374616D7020287265706C61792061747461636B PUSH0 DUP3 ADD MSTORE PUSH32 0x2900000000000000000000000000000000000000000000000000000000000000 PUSH1 0x20 DUP3 ADD MSTORE POP JUMP JUMPDEST PUSH0 PUSH2 0x561B PUSH1 0x21 DUP4 PUSH2 0x37E3 JUMP JUMPDEST SWAP2 POP PUSH2 0x5626 DUP3 PUSH2 0x55C1 JUMP JUMPDEST PUSH1 0x40 DUP3 ADD SWAP1 POP SWAP2 SWAP1 POP JUMP JUMPDEST PUSH0 PUSH1 0x20 DUP3 ADD SWAP1 POP DUP2 DUP2 SUB PUSH0 DUP4 ADD MSTORE PUSH2 0x5648 DUP2 PUSH2 0x560F JUMP JUMPDEST SWAP1 POP SWAP2 SWAP1 POP JUMP JUMPDEST PUSH0 DUP2 SWAP1 POP SWAP2 SWAP1 POP JUMP JUMPDEST PUSH2 0x5669 PUSH2 0x5664 DUP3 PUSH2 0x3D96 JUMP JUMPDEST PUSH2 0x564F JUMP JUMPDEST DUP3 MSTORE POP POP JUMP JUMPDEST PUSH0 PUSH2 0x567B DUP3 DUP7 DUP9 PUSH2 0x52ED JUMP JUMPDEST SWAP2 POP PUSH2 0x5687 DUP3 DUP6 PUSH2 0x4444 JUMP JUMPDEST PUSH1 0x20 DUP3 ADD SWAP2 POP PUSH2 0x5697 DUP3 DUP5 PUSH2 0x5658 JUMP JUMPDEST PUSH1 0x20 DUP3 ADD SWAP2 POP DUP2 SWAP1 POP SWAP6 SWAP5 POP POP POP POP POP JUMP JUMPDEST PUSH32 0x496E76616C696420766572696669636174696F6E2070726F6F66000000000000 PUSH0 DUP3 ADD MSTORE POP JUMP JUMPDEST PUSH0 PUSH2 0x56DD PUSH1 0x1A DUP4 PUSH2 0x37E3 JUMP JUMPDEST SWAP2 POP PUSH2 0x56E8 DUP3 PUSH2 0x56A9 JUMP JUMPDEST PUSH1 0x20 DUP3 ADD SWAP1 POP SWAP2 SWAP1 POP JUMP JUMPDEST PUSH0 PUSH1 0x20 DUP3 ADD SWAP1 POP DUP2 DUP2 SUB PUSH0 DUP4 ADD MSTORE PUSH2 0x570A DUP2 PUSH2 0x56D1 JUMP JUMPDEST SWAP1 POP SWAP2 SWAP1 POP JUMP JUMPDEST PUSH32 0x5374616B652062656C6F772063757272656E7420726571756972656D656E7400 PUSH0 DUP3 ADD MSTORE POP JUMP JUMPDEST PUSH0 PUSH2 0x5745 PUSH1 0x1F DUP4 PUSH2 0x37E3 JUMP JUMPDEST SWAP2 POP PUSH2 0x5750 DUP3 PUSH2 0x5711 JUMP JUMPDEST PUSH1 0x20 DUP3 ADD SWAP1 POP SWAP2 SWAP1 POP JUMP JUMPDEST PUSH0 PUSH1 0x20 DUP3 ADD SWAP1 POP DUP2 DUP2 SUB PUSH0 DUP4 ADD MSTORE PUSH2 0x5772 DUP2 PUSH2 0x5739 JUMP JUMPDEST SWAP1 POP SWAP2 SWAP1 POP JUMP JUMPDEST PUSH0 PUSH1 0x40 DUP3 ADD SWAP1 POP PUSH2 0x578C PUSH0 DUP4 ADD DUP6 PUSH2 0x391D JUMP JUMPDEST PUSH2 0x5799 PUSH1 0x20 DUP4 ADD DUP5 PUSH2 0x3D9F JUMP JUMPDEST SWAP4 SWAP3 POP POP POP JUMP JUMPDEST PUSH32 0x496E76616C69642073656C656374696F6E20636F6E747261637420287A65726F PUSH0 DUP3 ADD MSTORE PUSH32 0x2061646472657373290000000000000000000000000000000000000000000000 PUSH1 0x20 DUP3 ADD MSTORE POP JUMP JUMPDEST PUSH0 PUSH2 0x57FA PUSH1 0x29 DUP4 PUSH2 0x37E3 JUMP JUMPDEST SWAP2 POP PUSH2 0x5805 DUP3 PUSH2 0x57A0 JUMP JUMPDEST PUSH1 0x40 DUP3 ADD SWAP1 POP SWAP2 SWAP1 POP JUMP JUMPDEST PUSH0 PUSH1 0x20 DUP3 ADD SWAP1 POP DUP2 DUP2 SUB PUSH0 DUP4 ADD MSTORE PUSH2 0x5827 DUP2 PUSH2 0x57EE JUMP JUMPDEST SWAP1 POP SWAP2 SWAP1 POP JUMP JUMPDEST PUSH32 0x496E76616C6964206E657720424C5320706B20286D7573742062652034382062 PUSH0 DUP3 ADD MSTORE PUSH32 0x7974657329000000000000000000000000000000000000000000000000000000 PUSH1 0x20 DUP3 ADD MSTORE POP JUMP JUMPDEST PUSH0 PUSH2 0x5888 PUSH1 0x25 DUP4 PUSH2 0x37E3 JUMP JUMPDEST SWAP2 POP PUSH2 0x5893 DUP3 PUSH2 0x582E JUMP JUMPDEST PUSH1 0x40 DUP3 ADD SWAP1 POP SWAP2 SWAP1 POP JUMP JUMPDEST PUSH0 PUSH1 0x20 DUP3 ADD SWAP1 POP DUP2 DUP2 SUB PUSH0 DUP4 ADD MSTORE PUSH2 0x58B5 DUP2 PUSH2 0x587C JUMP JUMPDEST SWAP1 POP SWAP2 SWAP1 POP JUMP JUMPDEST PUSH32 0x496E76616C6964207369676E617475726520286D757374206265203936206279 PUSH0 DUP3 ADD MSTORE PUSH32 0x7465732900000000000000000000000000000000000000000000000000000000 PUSH1 0x20 DUP3 ADD MSTORE POP JUMP JUMPDEST PUSH0 PUSH2 0x5916 PUSH1 0x24 DUP4 PUSH2 0x37E3 JUMP JUMPDEST SWAP2 POP PUSH2 0x5921 DUP3 PUSH2 0x58BC JUMP JUMPDEST PUSH1 0x40 DUP3 ADD SWAP1 POP SWAP2 SWAP1 POP JUMP JUMPDEST PUSH0 PUSH1 0x20 DUP3 ADD SWAP1 POP DUP2 DUP2 SUB PUSH0 DUP4 ADD MSTORE PUSH2 0x5943 DUP2 PUSH2 0x590A JUMP JUMPDEST SWAP1 POP SWAP2 SWAP1 POP JUMP JUMPDEST PUSH32 0x4E6577207075626C6963206B657920616C726561647920626F756E6420746F20 PUSH0 DUP3 ADD MSTORE PUSH32 0x4449440000000000000000000000000000000000000000000000000000000000 PUSH1 0x20 DUP3 ADD MSTORE POP JUMP JUMPDEST PUSH0 PUSH2 0x59A4 PUSH1 0x23 DUP4 PUSH2 0x37E3 JUMP JUMPDEST SWAP2 POP PUSH2 0x59AF DUP3 PUSH2 0x594A JUMP JUMPDEST PUSH1 0x40 DUP3 ADD SWAP1 POP SWAP2 SWAP1 POP JUMP JUMPDEST PUSH0 PUSH1 0x20 DUP3 ADD SWAP1 POP DUP2 DUP2 SUB PUSH0 DUP4 ADD MSTORE PUSH2 0x59D1 DUP2 PUSH2 0x5998 JUMP JUMPDEST SWAP1 POP SWAP2 SWAP1 POP JUMP JUMPDEST PUSH0 PUSH2 0x59E3 DUP3 DUP7 PUSH2 0x455C JUMP JUMPDEST SWAP2 POP PUSH2 0x59F0 DUP3 DUP5 DUP7 PUSH2 0x4E4E JUMP JUMPDEST SWAP2 POP DUP2 SWAP1 POP SWAP5 SWAP4 POP POP POP POP JUMP JUMPDEST PUSH32 0x496E76616C6964207369676E617475726520666F72206B657920757064617465 PUSH0 DUP3 ADD MSTORE POP JUMP JUMPDEST PUSH0 PUSH2 0x5A31 PUSH1 0x20 DUP4 PUSH2 0x37E3 JUMP JUMPDEST SWAP2 POP PUSH2 0x5A3C DUP3 PUSH2 0x59FD JUMP JUMPDEST PUSH1 0x20 DUP3 ADD SWAP1 POP SWAP2 SWAP1 POP JUMP JUMPDEST PUSH0 PUSH1 0x20 DUP3 ADD SWAP1 POP DUP2 DUP2 SUB PUSH0 DUP4 ADD MSTORE PUSH2 0x5A5E DUP2 PUSH2 0x5A25 JUMP JUMPDEST SWAP1 POP SWAP2 SWAP1 POP JUMP JUMPDEST PUSH0 DUP3 SWAP1 POP SWAP3 SWAP2 POP POP JUMP JUMPDEST PUSH2 0x5A79 DUP4 DUP4 PUSH2 0x5A65 JUMP JUMPDEST PUSH8 0xFFFFFFFFFFFFFFFF DUP2 GT ISZERO PUSH2 0x5A92 JUMPI PUSH2 0x5A91 PUSH2 0x395D JUMP JUMPDEST JUMPDEST PUSH2 0x5A9C DUP3 SLOAD PUSH2 0x47BB JUMP JUMPDEST PUSH2 0x5AA7 DUP3 DUP3 DUP6 PUSH2 0x51D8 JUMP JUMPDEST PUSH0 PUSH1 0x1F DUP4 GT PUSH1 0x1 DUP2 EQ PUSH2 0x5AD4 JUMPI PUSH0 DUP5 ISZERO PUSH2 0x5AC2 JUMPI DUP3 DUP8 ADD CALLDATALOAD SWAP1 POP JUMPDEST PUSH2 0x5ACC DUP6 DUP3 PUSH2 0x496D JUMP JUMPDEST DUP7 SSTORE POP PUSH2 0x5B33 JUMP JUMPDEST PUSH1 0x1F NOT DUP5 AND PUSH2 0x5AE2 DUP7 PUSH2 0x51C6 JUMP JUMPDEST PUSH0 JUMPDEST DUP3 DUP2 LT ISZERO PUSH2 0x5B09 JUMPI DUP5 DUP10 ADD CALLDATALOAD DUP3 SSTORE PUSH1 0x1 DUP3 ADD SWAP2 POP PUSH1 0x20 DUP6 ADD SWAP5 POP PUSH1 0x20 DUP2 ADD SWAP1 POP PUSH2 0x5AE4 JUMP JUMPDEST DUP7 DUP4 LT ISZERO PUSH2 0x5B26 JUMPI DUP5 DUP10 ADD CALLDATALOAD PUSH2 0x5B22 PUSH1 0x1F DUP10 AND DUP3 PUSH2 0x4951 JUMP JUMPDEST DUP4 SSTORE POP JUMPDEST PUSH1 0x1 PUSH1 0x2 DUP9 MUL ADD DUP9 SSTORE POP POP POP JUMPDEST POP POP POP POP POP POP POP JUMP JUMPDEST PUSH0 PUSH2 0x5B47 DUP4 DUP6 PUSH2 0x3E39 JUMP JUMPDEST SWAP4 POP PUSH2 0x5B54 DUP4 DUP6 DUP5 PUSH2 0x3A05 JUMP JUMPDEST PUSH2 0x5B5D DUP4 PUSH2 0x394D JUMP JUMPDEST DUP5 ADD SWAP1 POP SWAP4 SWAP3 POP POP POP JUMP JUMPDEST PUSH0 PUSH1 0x60 DUP3 ADD SWAP1 POP DUP2 DUP2 SUB PUSH0 DUP4 ADD MSTORE PUSH2 0x5B80 DUP2 DUP8 PUSH2 0x3E49 JUMP JUMPDEST SWAP1 POP DUP2 DUP2 SUB PUSH1 0x20 DUP4 ADD MSTORE PUSH2 0x5B95 DUP2 DUP6 DUP8 PUSH2 0x5B3C JUMP JUMPDEST SWAP1 POP PUSH2 0x5BA4 PUSH1 0x40 DUP4 ADD DUP5 PUSH2 0x3D9F JUMP JUMPDEST SWAP6 SWAP5 POP POP POP POP POP JUMP JUMPDEST PUSH32 0x5265656E7472616E637947756172643A207265656E7472616E742063616C6C00 PUSH0 DUP3 ADD MSTORE POP JUMP JUMPDEST PUSH0 PUSH2 0x5BE1 PUSH1 0x1F DUP4 PUSH2 0x37E3 JUMP JUMPDEST SWAP2 POP PUSH2 0x5BEC DUP3 PUSH2 0x5BAD JUMP JUMPDEST PUSH1 0x20 DUP3 ADD SWAP1 POP SWAP2 SWAP1 POP JUMP JUMPDEST PUSH0 PUSH1 0x20 DUP3 ADD SWAP1 POP DUP2 DUP2 SUB PUSH0 DUP4 ADD MSTORE PUSH2 0x5C0E DUP2 PUSH2 0x5BD5 JUMP JUMPDEST SWAP1 POP SWAP2 SWAP1 POP JUMP JUMPDEST PUSH32 0x53656E646572206E6F7420626F756E6420746F20616E79204449440000000000 PUSH0 DUP3 ADD MSTORE POP JUMP JUMPDEST PUSH0 PUSH2 0x5C49 PUSH1 0x1B DUP4 PUSH2 0x37E3 JUMP JUMPDEST SWAP2 POP PUSH2 0x5C54 DUP3 PUSH2 0x5C15 JUMP JUMPDEST PUSH1 0x20 DUP3 ADD SWAP1 POP SWAP2 SWAP1 POP JUMP JUMPDEST PUSH0 PUSH1 0x20 DUP3 ADD SWAP1 POP DUP2 DUP2 SUB PUSH0 DUP4 ADD MSTORE PUSH2 0x5C76 DUP2 PUSH2 0x5C3D JUMP JUMPDEST SWAP1 POP SWAP2 SWAP1 POP JUMP JUMPDEST PUSH32 0x4E487B7100000000000000000000000000000000000000000000000000000000 PUSH0 MSTORE PUSH1 0x32 PUSH1 0x4 MSTORE PUSH1 0x24 PUSH0 REVERT JUMPDEST PUSH32 0x4E487B7100000000000000000000000000000000000000000000000000000000 PUSH0 MSTORE PUSH1 0x31 PUSH1 0x4 MSTORE PUSH1 0x24 PUSH0 REVERT JUMPDEST PUSH0 PUSH2 0x5CE1 DUP3 PUSH2 0x3D96 JUMP JUMPDEST SWAP2 POP PUSH2 0x5CEC DUP4 PUSH2 0x3D96 JUMP JUMPDEST SWAP3 POP DUP3 DUP3 MUL PUSH2 0x5CFA DUP2 PUSH2 0x3D96 JUMP JUMPDEST SWAP2 POP DUP3 DUP3 DIV DUP5 EQ DUP4 ISZERO OR PUSH2 0x5D11 JUMPI PUSH2 0x5D10 PUSH2 0x4AE5 JUMP JUMPDEST JUMPDEST POP SWAP3 SWAP2 POP POP JUMP JUMPDEST PUSH0 PUSH2 0x5D22 DUP3 PUSH2 0x3D96 JUMP JUMPDEST SWAP2 POP PUSH32 0xFFFFFFFFFFFFFFFFFFFFFFFFFFFFFFFFFFFFFFFFFFFFFFFFFFFFFFFFFFFFFFFF DUP3 SUB PUSH2 0x5D54 JUMPI PUSH2 0x5D53 PUSH2 0x4AE5 JUMP JUMPDEST JUMPDEST PUSH1 0x1 DUP3 ADD SWAP1 POP SWAP2 SWAP1 POP JUMP JUMPDEST PUSH0 PUSH1 0x40 DUP3 ADD SWAP1 POP PUSH2 0x5D72 PUSH0 DUP4 ADD DUP6 PUSH2 0x427E JUMP JUMPDEST PUSH2 0x5D7F PUSH1 0x20 DUP4 ADD DUP5 PUSH2 0x3B67 JUMP JUMPDEST SWAP4 SWAP3 POP POP POP JUMP INVALID TIMESTAMP 0x4C MSTORE8 PUSH0 MSTORE8 0x49 SELFBALANCE PUSH0 TIMESTAMP 0x4C MSTORE8 BALANCE ORIGIN CALLER CODESIZE BALANCE SELFBALANCE ORIGIN PUSH0 PC 0x4D PREVRANDAO GASPRICE MSTORE8 BASEFEE COINBASE 0x2D ORIGIN CALLDATALOAD CALLDATASIZE PUSH0 MSTORE8 MSTORE8 JUMPI SSTORE PUSH0 MSTORE 0x4F PUSH0 POP 0x4F POP PUSH0 LOG2 PUSH5 0x6970667358 0x22 SLT KECCAK256 0xCD PUSH15 0x2EE29BFECCF6F05360021FB072957D PUSH4 0xC6FB56DB 0x21 MSTORE PUSH25 0x14A56A00EEAC3D64736F6C6343000814003300000000000000 "
		},
		"gasEstimates": {
			"creation": {
				"codeDepositCost": "4807800",
				"executionCost": "infinite",
				"totalCost": "infinite"
			},
			"external": {
				"DEFAULT_ADMIN_ROLE()": "376",
				"DID_PREFIX()": "infinite",
				"FREEZE_DURATION()": "391",
				"SELECTION_CONTRACT_ROLE()": "437",
				"STAKING_LOCK_PERIOD()": "392",
				"VIOLATION_LIMIT()": "370",
				"activeCandidatePool(uint256)": "infinite",
				"baseMinStake()": "2515",
				"contractAddress()": "infinite",
				"createDID(bytes,bytes32,bytes32,bytes,string)": "infinite",
				"didFrozenUntil(string)": "infinite",
				"didToCandidateIndex(string)": "infinite",
				"didWithdrawUnlockTime(string)": "infinite",
				"freezeAndConfiscateStake(string,string)": "infinite",
				"getRoleAdmin(bytes32)": "infinite",
				"grantRole(bytes32,address)": "infinite",
				"grantSelectionContractRole(address)": "infinite",
				"hasRole(bytes32,address)": "3189",
				"nodeRegistry(string)": "infinite",
				"ownerToDIDs(address,uint256)": "infinite",
				"pkToDID(bytes)": "infinite",
				"renounceRole(bytes32,address)": "infinite",
				"revokeDID()": "infinite",
				"revokeRole(bytes32,address)": "infinite",
				"supportsInterface(bytes4)": "764",
				"unfreezeDID()": "infinite",
				"updateBaseMinStake(uint256)": "infinite",
				"updatePublicKey(bytes,bytes)": "infinite",
				"verifyBLSSignature(bytes,bytes32,bytes)": "infinite",
				"verifyIdentity(string,bytes,bytes32,uint256)": "infinite",
				"withdrawStake()": "infinite"
			},
			"internal": {
				"_strEquals(string memory,string memory)": "infinite",
				"getDIDBySender()": "infinite",
				"removeFromCandidatePool(string memory)": "infinite",
				"toString(address)": "infinite",
				"toString(bytes32)": "infinite"
			}
		},
		"methodIdentifiers": {
			"DEFAULT_ADMIN_ROLE()": "a217fddf",
			"DID_PREFIX()": "4c0d9781",
			"FREEZE_DURATION()": "f79d0731",
			"SELECTION_CONTRACT_ROLE()": "7ab8b36b",
			"STAKING_LOCK_PERIOD()": "d2f01a9b",
			"VIOLATION_LIMIT()": "cb851c1e",
			"activeCandidatePool(uint256)": "d711e906",
			"baseMinStake()": "c0a4f1fb",
			"contractAddress()": "f6b4dfb4",
			"createDID(bytes,bytes32,bytes32,bytes,string)": "c10c4add",
			"didFrozenUntil(string)": "6e9e9d46",
			"didToCandidateIndex(string)": "52b3bc04",
			"didWithdrawUnlockTime(string)": "93fa8cdd",
			"freezeAndConfiscateStake(string,string)": "e8497e72",
			"getRoleAdmin(bytes32)": "248a9ca3",
			"grantRole(bytes32,address)": "2f2ff15d",
			"grantSelectionContractRole(address)": "f33057e8",
			"hasRole(bytes32,address)": "91d14854",
			"nodeRegistry(string)": "8db90738",
			"ownerToDIDs(address,uint256)": "52fa871e",
			"pkToDID(bytes)": "fa620e5c",
			"renounceRole(bytes32,address)": "36568abe",
			"revokeDID()": "9790874c",
			"revokeRole(bytes32,address)": "d547741f",
			"supportsInterface(bytes4)": "01ffc9a7",
			"unfreezeDID()": "27f200a9",
			"updateBaseMinStake(uint256)": "e88ab95c",
			"updatePublicKey(bytes,bytes)": "fa357d34",
			"verifyBLSSignature(bytes,bytes32,bytes)": "032d6d7c",
			"verifyIdentity(string,bytes,bytes32,uint256)": "f2ebe212",
			"withdrawStake()": "bed9d861"
		}
	},
	"abi": [
		{
			"inputs": [
				{
					"internalType": "uint256",
					"name": "_baseMinStake",
					"type": "uint256"
				},
				{
					"internalType": "address",
					"name": "_selectionContract",
					"type": "address"
				}
			],
			"stateMutability": "nonpayable",
			"type": "constructor"
		},
		{
			"inputs": [],
			"name": "AccessControlBadConfirmation",
			"type": "error"
		},
		{
			"inputs": [
				{
					"internalType": "address",
					"name": "account",
					"type": "address"
				},
				{
					"internalType": "bytes32",
					"name": "neededRole",
					"type": "bytes32"
				}
			],
			"name": "AccessControlUnauthorizedAccount",
			"type": "error"
		},
		{
			"anonymous": false,
			"inputs": [
				{
					"indexed": false,
					"internalType": "uint256",
					"name": "oldBaseMinStake",
					"type": "uint256"
				},
				{
					"indexed": false,
					"internalType": "uint256",
					"name": "newBaseMinStake",
					"type": "uint256"
				},
				{
					"indexed": false,
					"internalType": "uint256",
					"name": "timestamp",
					"type": "uint256"
				}
			],
			"name": "BaseMinStakeUpdated",
			"type": "event"
		},
		{
			"anonymous": false,
			"inputs": [
				{
					"indexed": true,
					"internalType": "string",
					"name": "did",
					"type": "string"
				},
				{
					"indexed": true,
					"internalType": "bytes",
					"name": "blsPk",
					"type": "bytes"
				},
				{
					"indexed": false,
					"internalType": "uint256",
					"name": "stakeAmount",
					"type": "uint256"
				},
				{
					"indexed": false,
					"internalType": "uint256",
					"name": "timestamp",
					"type": "uint256"
				}
			],
			"name": "DIDCreated",
			"type": "event"
		},
		{
			"anonymous": false,
			"inputs": [
				{
					"indexed": true,
					"internalType": "string",
					"name": "did",
					"type": "string"
				},
				{
					"indexed": false,
					"internalType": "uint256",
					"name": "unlockTime",
					"type": "uint256"
				},
				{
					"indexed": false,
					"internalType": "uint256",
					"name": "timestamp",
					"type": "uint256"
				}
			],
			"name": "DIDRevoked",
			"type": "event"
		},
		{
			"anonymous": false,
			"inputs": [
				{
					"indexed": true,
					"internalType": "string",
					"name": "did",
					"type": "string"
				},
				{
					"indexed": false,
					"internalType": "bool",
					"name": "isVerified",
					"type": "bool"
				},
				{
					"indexed": false,
					"internalType": "uint256",
					"name": "timestamp",
					"type": "uint256"
				}
			],
			"name": "IdentityVerified",
			"type": "event"
		},
		{
			"anonymous": false,
			"inputs": [
				{
					"indexed": true,
					"internalType": "string",
					"name": "did",
					"type": "string"
				},
				{
					"indexed": false,
					"internalType": "string",
					"name": "reason",
					"type": "string"
				},
				{
					"indexed": false,
					"internalType": "uint256",
					"name": "violationCount",
					"type": "uint256"
				},
				{
					"indexed": false,
					"internalType": "uint256",
					"name": "timestamp",
					"type": "uint256"
				}
			],
			"name": "NodeFrozen",
			"type": "event"
		},
		{
			"anonymous": false,
			"inputs": [
				{
					"indexed": true,
					"internalType": "string",
					"name": "did",
					"type": "string"
				},
				{
					"indexed": false,
					"internalType": "uint256",
					"name": "timestamp",
					"type": "uint256"
				}
			],
			"name": "NodeUnfrozen",
			"type": "event"
		},
		{
			"anonymous": false,
			"inputs": [
				{
					"indexed": true,
					"internalType": "string",
					"name": "did",
					"type": "string"
				},
				{
					"indexed": false,
					"internalType": "bytes",
					"name": "oldPk",
					"type": "bytes"
				},
				{
					"indexed": false,
					"internalType": "bytes",
					"name": "newPk",
					"type": "bytes"
				},
				{
					"indexed": false,
					"internalType": "uint256",
					"name": "timestamp",
					"type": "uint256"
				}
			],
			"name": "PublicKeyUpdated",
			"type": "event"
		},
		{
			"anonymous": false,
			"inputs": [
				{
					"indexed": true,
					"internalType": "bytes32",
					"name": "role",
					"type": "bytes32"
				},
				{
					"indexed": true,
					"internalType": "bytes32",
					"name": "previousAdminRole",
					"type": "bytes32"
				},
				{
					"indexed": true,
					"internalType": "bytes32",
					"name": "newAdminRole",
					"type": "bytes32"
				}
			],
			"name": "RoleAdminChanged",
			"type": "event"
		},
		{
			"anonymous": false,
			"inputs": [
				{
					"indexed": true,
					"internalType": "bytes32",
					"name": "role",
					"type": "bytes32"
				},
				{
					"indexed": true,
					"internalType": "address",
					"name": "account",
					"type": "address"
				},
				{
					"indexed": true,
					"internalType": "address",
					"name": "sender",
					"type": "address"
				}
			],
			"name": "RoleGranted",
			"type": "event"
		},
		{
			"anonymous": false,
			"inputs": [
				{
					"indexed": true,
					"internalType": "bytes32",
					"name": "role",
					"type": "bytes32"
				},
				{
					"indexed": true,
					"internalType": "address",
					"name": "account",
					"type": "address"
				},
				{
					"indexed": true,
					"internalType": "address",
					"name": "sender",
					"type": "address"
				}
			],
			"name": "RoleRevoked",
			"type": "event"
		},
		{
			"anonymous": false,
			"inputs": [
				{
					"indexed": true,
					"internalType": "string",
					"name": "did",
					"type": "string"
				},
				{
					"indexed": false,
					"internalType": "uint256",
					"name": "confiscatedAmount",
					"type": "uint256"
				},
				{
					"indexed": false,
					"internalType": "uint256",
					"name": "timestamp",
					"type": "uint256"
				}
			],
			"name": "StakeConfiscated",
			"type": "event"
		},
		{
			"anonymous": false,
			"inputs": [
				{
					"indexed": true,
					"internalType": "string",
					"name": "did",
					"type": "string"
				},
				{
					"indexed": false,
					"internalType": "uint256",
					"name": "withdrawAmount",
					"type": "uint256"
				},
				{
					"indexed": false,
					"internalType": "uint256",
					"name": "timestamp",
					"type": "uint256"
				}
			],
			"name": "StakeWithdrawn",
			"type": "event"
		},
		{
			"inputs": [],
			"name": "DEFAULT_ADMIN_ROLE",
			"outputs": [
				{
					"internalType": "bytes32",
					"name": "",
					"type": "bytes32"
				}
			],
			"stateMutability": "view",
			"type": "function"
		},
		{
			"inputs": [],
			"name": "DID_PREFIX",
			"outputs": [
				{
					"internalType": "string",
					"name": "",
					"type": "string"
				}
			],
			"stateMutability": "view",
			"type": "function"
		},
		{
			"inputs": [],
			"name": "FREEZE_DURATION",
			"outputs": [
				{
					"internalType": "uint256",
					"name": "",
					"type": "uint256"
				}
			],
			"stateMutability": "view",
			"type": "function"
		},
		{
			"inputs": [],
			"name": "SELECTION_CONTRACT_ROLE",
			"outputs": [
				{
					"internalType": "bytes32",
					"name": "",
					"type": "bytes32"
				}
			],
			"stateMutability": "view",
			"type": "function"
		},
		{
			"inputs": [],
			"name": "STAKING_LOCK_PERIOD",
			"outputs": [
				{
					"internalType": "uint256",
					"name": "",
					"type": "uint256"
				}
			],
			"stateMutability": "view",
			"type": "function"
		},
		{
			"inputs": [],
			"name": "VIOLATION_LIMIT",
			"outputs": [
				{
					"internalType": "uint256",
					"name": "",
					"type": "uint256"
				}
			],
			"stateMutability": "view",
			"type": "function"
		},
		{
			"inputs": [
				{
					"internalType": "uint256",
					"name": "",
					"type": "uint256"
				}
			],
			"name": "activeCandidatePool",
			"outputs": [
				{
					"internalType": "string",
					"name": "",
					"type": "string"
				}
			],
			"stateMutability": "view",
			"type": "function"
		},
		{
			"inputs": [],
			"name": "baseMinStake",
			"outputs": [
				{
					"internalType": "uint256",
					"name": "",
					"type": "uint256"
				}
			],
			"stateMutability": "view",
			"type": "function"
		},
		{
			"inputs": [],
			"name": "contractAddress",
			"outputs": [
				{
					"internalType": "address",
					"name": "",
					"type": "address"
				}
			],
			"stateMutability": "view",
			"type": "function"
		},
		{
			"inputs": [
				{
					"internalType": "bytes",
					"name": "_blsPk",
					"type": "bytes"
				},
				{
					"internalType": "bytes32",
					"name": "_nodeID",
					"type": "bytes32"
				},
				{
					"internalType": "bytes32",
					"name": "_salt",
					"type": "bytes32"
				},
				{
					"internalType": "bytes",
					"name": "_signature",
					"type": "bytes"
				},
				{
					"internalType": "string",
					"name": "_ipfsAuxHash",
					"type": "string"
				}
			],
			"name": "createDID",
			"outputs": [
				{
					"internalType": "string",
					"name": "did",
					"type": "string"
				}
			],
			"stateMutability": "payable",
			"type": "function"
		},
		{
			"inputs": [
				{
					"internalType": "string",
					"name": "",
					"type": "string"
				}
			],
			"name": "didFrozenUntil",
			"outputs": [
				{
					"internalType": "uint256",
					"name": "",
					"type": "uint256"
				}
			],
			"stateMutability": "view",
			"type": "function"
		},
		{
			"inputs": [
				{
					"internalType": "string",
					"name": "",
					"type": "string"
				}
			],
			"name": "didToCandidateIndex",
			"outputs": [
				{
					"internalType": "uint256",
					"name": "",
					"type": "uint256"
				}
			],
			"stateMutability": "view",
			"type": "function"
		},
		{
			"inputs": [
				{
					"internalType": "string",
					"name": "",
					"type": "string"
				}
			],
			"name": "didWithdrawUnlockTime",
			"outputs": [
				{
					"internalType": "uint256",
					"name": "",
					"type": "uint256"
				}
			],
			"stateMutability": "view",
			"type": "function"
		},
		{
			"inputs": [
				{
					"internalType": "string",
					"name": "_did",
					"type": "string"
				},
				{
					"internalType": "string",
					"name": "_reason",
					"type": "string"
				}
			],
			"name": "freezeAndConfiscateStake",
			"outputs": [],
			"stateMutability": "nonpayable",
			"type": "function"
		},
		{
			"inputs": [
				{
					"internalType": "bytes32",
					"name": "role",
					"type": "bytes32"
				}
			],
			"name": "getRoleAdmin",
			"outputs": [
				{
					"internalType": "bytes32",
					"name": "",
					"type": "bytes32"
				}
			],
			"stateMutability": "view",
			"type": "function"
		},
		{
			"inputs": [
				{
					"internalType": "bytes32",
					"name": "role",
					"type": "bytes32"
				},
				{
					"internalType": "address",
					"name": "account",
					"type": "address"
				}
			],
			"name": "grantRole",
			"outputs": [],
			"stateMutability": "nonpayable",
			"type": "function"
		},
		{
			"inputs": [
				{
					"internalType": "address",
					"name": "_newContract",
					"type": "address"
				}
			],
			"name": "grantSelectionContractRole",
			"outputs": [],
			"stateMutability": "nonpayable",
			"type": "function"
		},
		{
			"inputs": [
				{
					"internalType": "bytes32",
					"name": "role",
					"type": "bytes32"
				},
				{
					"internalType": "address",
					"name": "account",
					"type": "address"
				}
			],
			"name": "hasRole",
			"outputs": [
				{
					"internalType": "bool",
					"name": "",
					"type": "bool"
				}
			],
			"stateMutability": "view",
			"type": "function"
		},
		{
			"inputs": [
				{
					"internalType": "string",
					"name": "",
					"type": "string"
				}
			],
			"name": "nodeRegistry",
			"outputs": [
				{
					"internalType": "bytes",
					"name": "blsPublicKey",
					"type": "bytes"
				},
				{
					"internalType": "bytes32",
					"name": "nodeID",
					"type": "bytes32"
				},
				{
					"internalType": "uint256",
					"name": "stakeAmount",
					"type": "uint256"
				},
				{
					"internalType": "uint256",
					"name": "stakeTime",
					"type": "uint256"
				},
				{
					"internalType": "uint256",
					"name": "joinTime",
					"type": "uint256"
				},
				{
					"internalType": "enum NodeIdentityRegistry.Status",
					"name": "status",
					"type": "uint8"
				},
				{
					"internalType": "uint256",
					"name": "violationCount",
					"type": "uint256"
				},
				{
					"internalType": "string",
					"name": "ipfsAuxHash",
					"type": "string"
				}
			],
			"stateMutability": "view",
			"type": "function"
		},
		{
			"inputs": [
				{
					"internalType": "address",
					"name": "",
					"type": "address"
				},
				{
					"internalType": "uint256",
					"name": "",
					"type": "uint256"
				}
			],
			"name": "ownerToDIDs",
			"outputs": [
				{
					"internalType": "string",
					"name": "",
					"type": "string"
				}
			],
			"stateMutability": "view",
			"type": "function"
		},
		{
			"inputs": [
				{
					"internalType": "bytes",
					"name": "",
					"type": "bytes"
				}
			],
			"name": "pkToDID",
			"outputs": [
				{
					"internalType": "string",
					"name": "",
					"type": "string"
				}
			],
			"stateMutability": "view",
			"type": "function"
		},
		{
			"inputs": [
				{
					"internalType": "bytes32",
					"name": "role",
					"type": "bytes32"
				},
				{
					"internalType": "address",
					"name": "callerConfirmation",
					"type": "address"
				}
			],
			"name": "renounceRole",
			"outputs": [],
			"stateMutability": "nonpayable",
			"type": "function"
		},
		{
			"inputs": [],
			"name": "revokeDID",
			"outputs": [],
			"stateMutability": "nonpayable",
			"type": "function"
		},
		{
			"inputs": [
				{
					"internalType": "bytes32",
					"name": "role",
					"type": "bytes32"
				},
				{
					"internalType": "address",
					"name": "account",
					"type": "address"
				}
			],
			"name": "revokeRole",
			"outputs": [],
			"stateMutability": "nonpayable",
			"type": "function"
		},
		{
			"inputs": [
				{
					"internalType": "bytes4",
					"name": "interfaceId",
					"type": "bytes4"
				}
			],
			"name": "supportsInterface",
			"outputs": [
				{
					"internalType": "bool",
					"name": "",
					"type": "bool"
				}
			],
			"stateMutability": "view",
			"type": "function"
		},
		{
			"inputs": [],
			"name": "unfreezeDID",
			"outputs": [],
			"stateMutability": "payable",
			"type": "function"
		},
		{
			"inputs": [
				{
					"internalType": "uint256",
					"name": "_newBaseMinStake",
					"type": "uint256"
				}
			],
			"name": "updateBaseMinStake",
			"outputs": [],
			"stateMutability": "nonpayable",
			"type": "function"
		},
		{
			"inputs": [
				{
					"internalType": "bytes",
					"name": "_newBlsPk",
					"type": "bytes"
				},
				{
					"internalType": "bytes",
					"name": "_signature",
					"type": "bytes"
				}
			],
			"name": "updatePublicKey",
			"outputs": [],
			"stateMutability": "nonpayable",
			"type": "function"
		},
		{
			"inputs": [
				{
					"internalType": "bytes",
					"name": "pk",
					"type": "bytes"
				},
				{
					"internalType": "bytes32",
					"name": "message",
					"type": "bytes32"
				},
				{
					"internalType": "bytes",
					"name": "signature",
					"type": "bytes"
				}
			],
			"name": "verifyBLSSignature",
			"outputs": [
				{
					"internalType": "bool",
					"name": "",
					"type": "bool"
				}
			],
			"stateMutability": "view",
			"type": "function"
		},
		{
			"inputs": [
				{
					"internalType": "string",
					"name": "_did",
					"type": "string"
				},
				{
					"internalType": "bytes",
					"name": "_proof",
					"type": "bytes"
				},
				{
					"internalType": "bytes32",
					"name": "_blockHash",
					"type": "bytes32"
				},
				{
					"internalType": "uint256",
					"name": "_timestamp",
					"type": "uint256"
				}
			],
			"name": "verifyIdentity",
			"outputs": [
				{
					"internalType": "bool",
					"name": "isVerified",
					"type": "bool"
				}
			],
			"stateMutability": "nonpayable",
			"type": "function"
		},
		{
			"inputs": [],
			"name": "withdrawStake",
			"outputs": [],
			"stateMutability": "nonpayable",
			"type": "function"
		},
		{
			"stateMutability": "payable",
			"type": "receive"
		}
	]
}